:020000040800F2
:1000000000C00020A5030008210E0008250E0008EE
:10001000290E00082D0E0008310E00083B150008BF
:100020003B1500083B1500083B1500083B15000870
:100030003B1500083B1500083B1500084D1500084E
:100040003B1500083B1500083B1500083B15000850
:100050003B1500083B150008750E0008950E0008BA
:10006000B50E0008D50E0008F50E0008CD0C0008EE
:10007000E50C0008FD0C0008190D0008350D0008FE
:10008000510D00086D0D0008D90A00083B15000845
:10009000C52000083B1500083B150008150F000897
:1000A000311800085518000879180008B118000820
:1000B0000519000875190008E51900082D12000837
:1000C0004512000839120008511200083B150008BB
:1000D0003B150008311E0008811E0008D11E0008D3
:1000E000590F00083B1500083B1500080D1B0008C0
:1000F000311B0008551B00088D1B0008310B000840
:100100003B1500083B150008551A00083B15000870
:10011000211F0008711F0008C51A0008E91A00080D
:10012000890D0008A10D0008B90D0008D50D0008C3
:1001300010B5054C237833B9044B13B10448AFF321
:1001400000800123237010BD60100020000000001B
:10015000B808030808B5034B1BB103490348AFF3C4
:10016000008008BD0000000064100020B8080308EB
:1001700010B512490A2309220968114800F0EAF96A
:1001800010490323022209680F4800F0E3F90F49E0
:100190001B231A2209680E4800F0DCF90D492B23B5
:1001A0002A2209680C4800F0D5F9BDE810400B4937
:1001B00032232C2209680A4800F0CCB984020020BE
:1001C0007C10002088020020941000208C02002067
:1001D000AC1000207C020020C4100020800200200F
:1001E000DC10002010B5044600F0F8FC034B20465C
:1001F000BDE81040197800F058BC00BF1600002080
:10020000F8B50446056801F0FDF9002223685B019A
:1002100003F184431A6080232B600123AB622A61BF
:10022000EA606B61637973B1012B0FD001222368FF
:100230005B0103F18443C3F8802223685B0103F16F
:1002400084431A60F8BD4FF400436B644FF6FF72AD
:1002500000252368DA626E1CF7B23946204601F0A9
:10026000E6F9E8B148F6FF72236817F0010F03F1D1
:10027000340343F8252014BF6FF0FF026FF47F4270
:1002800023684FEA650503F1180353F8251001EAC6
:10029000020114BF68224FF4D0420A4343F82520DC
:1002A000042E3546D7D1C1E77047000038B5002588
:1002B000264A274C1368022043F01003136000F015
:1002C0006DFE002001F02EF865602368182023F4ED
:1002D0000023236001F032F8102001F02FF800F025
:1002E00043F8A560102001F01DF8102001F034F84B
:1002F0000028FAD000F039F8164801F039F8182033
:1003000001F010F8182001F027F80028FAD0022098
:1003100000F0F8FF00214FF0006000F0C9FF0E4828
:1003200001F00CF900F038F80C4B188800F03EFC96
:100330000B4800F03FFC0B4801F03EF900F02EF8AE
:1003400000F02DF8FFF7B0FF38BD00BF00200240DD
:10035000001002400C0000203F1901001400002092
:10036000E5010008010200087047002108B50846B1
:1003700001F03EF84FF48061012001F039F80021CE
:10038000022001F035F82D2001F042F8BDE80840C8
:100390000021032001F02CB800F014BE704700F0DB
:1003A00050BE000001498D460149084700C00020A9
:1003B000B503000808B5114B1A68114B9A4213D1C6
:1003C000104B114A934213D329F038FB00221146F7
:1003D000104602F0C7FD0D4B7BB129F0CBF852F867
:1003E000041B043343F8041C09498B42F7D3E7E7A5
:1003F0000022043343F8042CE3E7FEE7186A0308FD
:10040000000000206010002030390020759502089F
:100410006010002010B50D4B1A680AB90C4A1A601A
:100420001A680C49891A814204DB09494442511A6D
:10043000A14207DA29F098F80C234FF0FF3203604D
:10044000104610BD10441860FAE700BFF4100020F9
:100450003039002018DB0328002070474FF4005388
:1004600000204B607047012070474FF0FF3070470D
:100470000020704710B50C46FFF7FAFF20700120EE
:1004800010BD704770B515460C468E18B44201D1A8
:10049000284670BD14F8010BFFF7F3FFF6E7FEE7FF
:1004A000C38882889B1AC2888188914282BF028950
:1004B00001329B1898B2704710B50369044658681A
:1004C000FFF7EEFF88B123695B689A88196892B2DA
:1004D000885C99881A89C0B292B28A420FBF002202
:1004E0009A88013292B29A8010BD4FF0FF30FBE73C
:1004F00008B503695868FFF7D3FF08BD03695B6857
:100500009988DA8892B28A421FBF9A881B6892B291
:10051000985C14BFC0B24FF0FF3070470269916819
:100520008888CB889BB28342FAD1126813685B0635
:10053000FCD5704713B504698DF8071001220DF141
:100540000701204601F097FB0028F7D0012002B0F8
:1005500010BD000030B54FF0000C4FF47A75C0E9C3
:1005600001C5034D016105600275437530BD00BFD3
:10057000501E03082DE9F74303690446DB688846EB
:100580008B42914625D3067D134D3601AB19477D2D
:10059000586818B10022597B01F000F9206901F078
:1005A0001FFB39016A18127BAB19CDF804901B7B35
:1005B000695800932069AB5901F0D9FB2069424684
:1005C000002101F0FAFB206903B0BDE8F04301F01F
:1005D0002DBB03B0BDE8F083181B03080022FFF712
:1005E000C9BF0000044B02791B789A4202BF034B3B
:1005F0001B681860704700BF181100201C110020F4
:10060000002310B50446036072B6054B193119700A
:10061000044B1860044800F0CFFF62B6204610BDBE
:10062000181100201C110020E505000800220368B5
:100630001B685B0103F184431A6070470122036861
:100640001B685B0103F184431A607047036801393A
:100650001B6889B29962704703681A68D36A9BB2B3
:10066000994228BF19465162704738B561B90122D5
:1006700003681B68996203681B68DA6203681B6879
:10068000DC6AA4B2204638BD48224A434FF6FF71C7
:10069000B2FBF1F1013189B202EB5102B2FBF1F28E
:1006A00094B2FFF7D3FF036892B21B68DA62E9E7FE
:1006B000012203681B685B0103F18443C3F88022B5
:1006C0007047000008B501211048FFF799FF02218B
:1006D0000F48FFF795FF03210E48FFF791FF042114
:1006E0000D48FFF78DFF05210C48FFF789FF062114
:1006F0000B48FFF785FF07210A48FFF781FFBDE898
:10070000084008210848FFF77BBF00BFF810002011
:10071000FC1000200011002004110020081100200E
:100720000C1100201011002014110020F8B506460D
:100730000C4615468F18A74206D0336814F8011BE3
:100740001B6830469847F6E72846F8BD70B5054661
:100750000C46084649B12AF02DFA2B68024621467C
:100760002846BDE870409B68184770BD0368C9B251
:100770001B68184703685B68184738B50D210546A4
:10078000FFF7F4FF0A2104462846FFF7EFFF204455
:1007900038BD38B50546FFF7EDFF04462846FFF79C
:1007A000ECFF204438BD2DE970439046994690B047
:1007B00058EA090306469DF8585007D13021FFF743
:1007C000D5FF0125284610B0BDE8708300244046BF
:1007D00049462A4600231FF095FD8046894601348C
:1007E0000DEB040303F8012C58EA0903EFD10025AF
:1007F000013C1DF804103046092994BF30313731CF
:1008000049B2FFF7B3FF0544002CF1D1DAE72DE937
:10081000F0411D46002A75F1000307461446069E66
:1008200005DA2D21FFF7A2FF644265EB4505F6B21C
:10083000069622462B463846BDE8F041FFF7B3BF87
:1008400007B5CB1700920A46FFF7E1FF03B05DF84A
:1008500004FB38B50546FFF7F3FF04462846FFF7CB
:100860008CFF204438BD07B5CB1700920A46FFF72E
:10087000CEFF03B05DF804FB37B5CB1700920A46F4
:100880000546FFF7C4FF04462846FFF776FF2044DD
:1008900003B030BD07B5D2B200920023CAB2FFF751
:1008A00082FF03B05DF804FB07B5D2B200920023CB
:1008B0000A46FFF778FF03B05DF804FB37B5D2B204
:1008C000009200230A460546FFF76DFF04462846BE
:1008D000FFF753FF204403B030BD000000000000CC
:1008E0002DE9F34717461E4682460022002338466C
:1008F00031461FF035F99DF828504FF00104F8B14A
:1009000043A3D3E90023384631461FF01FF900B94D
:100910000446E4B20022002338463146C4B11FF039
:1009200001F918B12D215046FFF720FF04463C493C
:100930005046FFF71FFF0444204602B0BDE8F08791
:1009400035A3D3E90023384631461FF0F5F8DEE73A
:100950001FF0E8F830B12D215046FFF707FF04469D
:1009600006F100464FF0000800202E495FFA88F398
:100970009D4206D900222C4B1EF08CFF08F1010885
:10098000F4E73A4633461EF0A5FC06460F461FF034
:10099000D1FC0A230246009380460B465046894606
:1009A000FFF735FF0444002DC6D0404649461EF0EF
:1009B00019FE02460B46304639461EF089FC0646B3
:1009C0000F4650461949FFF7D5FE0444013DEDB2EC
:1009D000FF2DB1D0144B0022304639461EF030FEB8
:1009E0000F4606461FF0C6F80A22014680465046CA
:1009F000FFF726FF044440461EF0B8FD02460B46B2
:100A0000304639461EF064FC06460F46DEE700BF5E
:100A1000800350726C92DF43800350726C92DFC38C
:100A20006C1E03080000E03F000024406E440308F1
:100A30009DF800100091FFF753BF37B59DF81810CF
:100A400005460091FFF74CFF04462846FFF795FE48
:100A5000204403B030BD000030B504460D4687B0D9
:100A6000064901A829F092FE22462B4601A90A98C0
:100A700029F08CFE0A9807B030BD00BF7B1E03082A
:100A8000FEE7704710B50446007900F07FFC20793E
:100A9000BDE8104000F092BC026841F480119368F8
:100AA00023F46023194391607047002330B51C463E
:100AB0001D4603EB4302072B01FA02F203F1010387
:100AC000D8BF15430A2B44EA0204F2D10368DD6063
:100AD00003681C6130BD000070B5144C23681B68AE
:100AE0001D68A90707D51A6822F002021A60236858
:100AF0009B6803B198476A0709D523681A68136889
:100B000023F00403136023681B6903B19847EB07C4
:100B10000BD523681A68136823F001031360236858
:100B2000DB6813B1BDE87040184770BD1C000020A1
:100B300070B5144C23681B681D68A90707D51A688F
:100B400022F002021A6023689B6803B198476A0783
:100B500009D523681A68136823F004031360236817
:100B60001B6903B19847EB070BD523681A68136814
:100B700023F0010313602368DB6813B1BDE8704004
:100B8000184770BD24000020012203685B0103F1B7
:100B9000844303F58673191F1A6018680028FCD176
:100BA00043F8042C0B68002BFCD17047014604204D
:100BB00000F01EBC10B50446054B1868A047054B55
:100BC0001868A047044B18682346BDE81040184732
:100BD0001C000020200000202400002010B5044646
:100BE000FFF750FF20464FF46021FFF755FF012229
:100BF000236820465B0103F18443C3F85021236836
:100C00005B0103F18443C3F80021BDE81040FFF706
:100C1000BBBF007900F0BABB142301395943006807
:100C20000830435823F4405343EA0232425070479D
:100C3000036814200833013900FB01314A60704712
:100C400000EBC10340F8312093F90430002B08DB9E
:100C50000122591103F01F0302FA03F3014A42F87B
:100C60002130704700E100E014220368013902FBE3
:100C700001310123490101F18441C1F8003170477C
:100C800014220368013902FB01310023490101F1FB
:100C90008441C1F8003170472DE9F04114251C460C
:100CA00090464B1E5D430668FFF7EAFF9DF81C3037
:100CB000240244EA8324089B08361C43069B7719C8
:100CC0007451FB60C7F80880BDE8F08110B5044B93
:100CD0001C68A3681BB19847012223685A6010BDA5
:100CE0006000002010B5044B1C6823691BB19847B5
:100CF000102223685A6010BD6000002010B5054B1B
:100D00001C68A36923B198474FF4807223685A6026
:100D100010BD00BF6000002010B5054B1C68236AA1
:100D200023B198474FF4805223685A6010BD00BF2A
:100D30006000002010B5054B1C68A36A23B19847DA
:100D40004FF4803223685A6010BD00BF600000205D
:100D500010B5054B1C68236B23B198474FF48012E4
:100D600023685A6010BD00BF6000002010B5054B1D
:100D70001C68A36B23B198474FF0807223685A60B8
:100D800010BD00BF6000002010B5044B1C68A368B4
:100D90001BB19847012223685A6010BD64000020EF
:100DA00010B5044B1C6823691BB1984710222368B7
:100DB0005A6010BD6400002010B5054B1C68A36983
:100DC00023B198474FF4807223685A6010BD00BF6A
:100DD0006400002038B5104C636CD8070BD523682D
:100DE000D90408D50D4B1D682B6A23B198474FF4E1
:100DF00080522B685A60A36DDA070BD52368DB039A
:100E000008D5064B1C68A36A23B198474FF480327B
:100E100023685A6038BD00BF00040240640000200F
:100E2000012007E0022005E0032003E0042001E0A8
:100E30000520FFE70D4A0121116072B60C4A00211E
:100E40001160074902B4084902B486B005498E46CC
:100E5000704700BFAFF30080AFF30080AFF30080B6
:100E600000000061F9FFFFFF312F000814ED00E0E2
:100E700010E000E008B5054A136833B150689847A0
:100E80000122034B5A6100BF00BF08BD20110020A2
:100E90000004014008B5054A936833B1D06898470B
:100EA0000222034B5A6100BF00BF08BD2011002081
:100EB0000004014008B5054A136933B150699847E9
:100EC0000422034B5A6100BF00BF08BD201100205F
:100ED0000004014008B5054A936933B1D0699847C9
:100EE0000822034B5A6100BF00BF08BD201100203B
:100EF0000004014008B5054A136A33B1506A9847A7
:100F00001022034B5A6100BF00BF08BD2011002012
:100F1000000401402DE9F041002705240C4DD5F8CF
:100F200014800126A64018EA060F08D0094BE100FC
:100F300053F834201AB10B445868904737430134B2
:100F40000A2CEED16F6100BF00BFBDE8F08100BF89
:100F500000040140201100202DE9F04100270A245F
:100F60000C4DD5F814800126A64018EA060F08D0CB
:100F7000094BE10053F834201AB10B4458689047EC
:100F800037430134102CEED16F6100BF00BFBDE8C4
:100F9000F08100BF0004014020110020034A1368C3
:100FA00023F0070318431060704700BF0020024081
:100FB00010B50446007900F0E9F92079BDE8104049
:100FC00000F0FCB908B50748FFF7F2FF0648FFF745
:100FD000EFFF0648FFF7ECFFBDE808400448FFF7C5
:100FE000E7BF00BFD8000020E0000020E80000209C
:100FF000F000002070B50F250368CE0801F007004F
:10100000840053F82600092A05FA04F520EA0505AC
:1010100014BF10460820A0402843082A43F82600A1
:1010200007D10120DA6800FA01F122EA0101D96052
:1010300070BD092AFCD10122D86802FA01F10143EE
:10104000F5E708B5032000F0A1F9BDE8084003204A
:1010500000F0B4B903681A6812F4985FFBD11A68FB
:1010600042F480721A60704703681A6812F4985F3D
:10107000FBD11A6842F400721A600268136813F414
:10108000985FFBD17047000070B5026845685169F0
:1010900092695A4AAE781268CB07044606F00106F8
:1010A000C26014D50023EB8000F0D8F822685368A2
:1010B00043F48063536026B12268136843F480636D
:1010C000136000212B88226846EA4303136111F064
:1010D0000A0F10D0AB88002E45D0012B0AD1226810
:1010E0002046136823F480631360A38B012B37D948
:1010F000FFF7B0FF002101F08402802A03D1A38B07
:10110000002B49D1002101F08402842A0DD1A18B4A
:101110002046002954D0FFF79DFF22685369D90764
:10112000FCD5002163680C3363604B0661D52368EE
:10113000AA681969EB88581CE880D154AB88EA8802
:10114000591E8A424BD122682046136823F48063DB
:101150001360A38B022B3ED9BDE87040FFF77ABF26
:10116000FFF782FFC6E7012B08D9EB88A9685A1C54
:10117000EA802268CB5C13613146BCE7002BFBD1CF
:101180002046FFF771FF2268536823F40073536011
:10119000022384F82330ADE7EB88A9685A1CEA8063
:1011A0002268CB5C1361EA88AB889A42AAD1226894
:1011B000536823F480635360A38B013BA383A1E7AF
:1011C000FFF752FF2268536823F400735360022331
:1011D00084F82330A9E7BDE87040FFF745BF9A4285
:1011E00007D1A38B013B9BB2A3831BB9022384F8D5
:1011F000233070BD63680C336360FAE7CC3800209D
:1012000008B50268536903F4706383600023536177
:1012100002689361FFF728FF0268536823F4E063D4
:101220005360FF2380F8233008BD00000148FFF71A
:101230002BBF00BFF80000200148FFF725BF00BF0B
:101240001C0100200148FFF7DBBF00BFF8000020B1
:101250000148FFF7D5BF00BF1C01002010B50446B0
:10126000002190F9210000F00FF894F922000021EC
:10127000BDE8104000F008B84AF6AA22014B1A60F7
:10128000704700BF003000400028A8BF00F1604058
:101290004FEA0111B8BF054BC9B2B5BF00F00F004E
:1012A00000F56140195480F80013704714ED00E018
:1012B00010B5002421F0604121F07F01064A01436E
:1012C000916060B20F210134FFF7DEFF3C2CF8D1B2
:1012D000F02382F8233010BD00ED00E00449054BF7
:1012E000CA6802F4E0621343CB60BFF34F8FFEE79E
:1012F00000ED00E00400FA05014B13F81000704700
:10130000A01E0308064B5A6822F0030202435A60EB
:1013100080005A6802F00C028242FAD1704700BF86
:1013200000100240030AC2B2012003F1804303F51A
:101330000433196890400843186070470121030A7C
:1013400003F1804303F504331A68C0B201FA00F0D8
:1013500022EA000018607047030A03F1804303F596
:1013600004331A680223C0B203FA00F01040704739
:10137000054A0168536823F474130B4341680968F4
:101380000B435360704700BF0010024010B5044685
:10139000FFF7B2FF074B53F82020074800EB44004B
:1013A000437803EBC20301229B0003F184431A60DC
:1013B00010BD00BF40010020A01E030810B5044668
:1013C000FFF79AFF084B53F82020084800EB440031
:1013D000437803EBC20301229B0003F184431A60AC
:1013E00000221A6010BD00BF58010020A01E030893
:1013F00010B5054A054C536854F8200023EA000351
:101400000B43536010BD00BF001002408C1E030848
:1014100010B50446FFF770FF074B53F8202007482C
:1014200000EB4400437803EBC20300229B0003F16E
:1014300084431A6010BD00BF4C010020A01E0308A9
:1014400001EBC000800000F184400260704710B5DD
:1014500004460079FFF79AFF2079BDE81040FFF7B6
:10146000ADBF012206210068FFF7EABF0022062176
:101470000068FFF7E5BF10B50C46016803464A68EF
:1014800022F0E0024A6002681268624012F4205FB3
:1014900001D0FFF7EBFF1A6818461460BDE8104052
:1014A000FFF7DFBF134343F004031943FFF7E3BF24
:1014B0000122006811460430FFF7C2BF0068002215
:1014C00001210430FFF7BCBF006801220021043075
:1014D000FFF7B6BF002203685B0103F18443C3F842
:1014E00080207047F8B51046069C9DF81C709DF84A
:1014F00020609DF8245081B10B2239462046FFF729
:1015000079FD042231462046FFF774FD0B2229465F
:101510002046BDE8F840FFF76DBD19460422FFF7ED
:1015200069FD042239462046FFF764FD0B2231464F
:101530002046FFF75FFD0422E9E7FEE70722024BA2
:1015400058601A60704700BF10E000E0044A13685A
:1015500001331360034B1B6803B11847704700BF8A
:10156000CC380020A011002011F0010F70B501F15E
:10157000FF340DBF082500256FF0FF016FF47F4198
:101580000068C4F34004183050F82460134331401D
:10159000AB400B4340F8243070BD02684B1E02F193
:1015A000404220329B0003EBC20301229B0003F167
:1015B00084431A607047000010B504460948A047EC
:1015C0000948A0470948A0470948A0470948A0473B
:1015D0000948A0470948A0472346BDE810400848ED
:1015E000184700BF84010020AC010020D00100207A
:1015F000F4010020180200203C02002048020020D4
:101600005402002010B504460079FFF7BFFE207990
:10161000BDE81040FFF7D2BE0023026813600268E5
:10162000D3604279012A9CBF026813627047037934
:101630001E2B10D9212B0ED0202B0ED9222B01D0FE
:10164000252B04D102298CBF0020012070474B1E9E
:1016500058425841704701207047002070470000F1
:101660008B1C40F82320012342798B4010B5DB43CB
:10167000EAB1012A41F65F6218BF0122134001223C
:1016800004682361036803F140430C3301EBC30397
:101690009B0003F184431A60427903793ABB07291E
:1016A00015D8DFE801F007151515151A1A1F41F6B0
:1016B000FF62E3E71A2B0CBF19232C2301225909DF
:1016C00003F01F0302FA03F3254A42F8213010BD4C
:1016D0001A2B0CBF1B232E23F0E71A2B0CBF1A2347
:1016E0002D23EBE71A2B0CBF18232B23E6E71B3B1C
:1016F0000C2BECD801A252F823F000BF5D170008B4
:101700003117000835170008391700083D17000881
:1017100041170008CF1600084517000849170008B0
:101720004D170008511700085517000859170008F1
:101730001D23C3E71E23C1E73223BFE73623BDE7DE
:101740003723BBE71823B9E71923B7E71A23B5E70F
:101750002B23B3E72C23B1E72D23AFE71C23ADE701
:1017600000E100E00022036803F140430C3301EB89
:10177000C3039B0003F1844302311A6040F8212027
:10178000704738B504460D4613460022FFF7ECFEBD
:1017900029462046BDE83840FFF7FFBE38B54379FB
:1017A0000546022B0C4615D0042A13D8DFE802F0B8
:1017B00003132A2D3A00FFF7D5FF0268631E02F1DA
:1017C000404220329B0003EBC20300229B0003F146
:1017D00084431A6038BD0022036803F140430C3390
:1017E00001EBC3039B0003F184431A6008236022CA
:1017F00021462846FFF7B8FE21462846BDE8384076
:10180000FFF7CBBE00231022F2E74FF2F11203687C
:101810009A61032203689A60036801225B0103F165
:101820008443D6E70122BDE83840FFF7AABF000095
:1018300010B5074A1468E36821690B401B0606D5FA
:10184000536A23B19847236923F08003236110BDB5
:101850008401002010B5074A1468E36821690B4031
:10186000DB0706D5936823B19847236923F001036A
:10187000236110BD84010020F8B50C4D2F68FE686F
:101880003B691E4016F0400403D02C6A0CB1A047FF
:101890004024B30604D5EB6913B1984744F0200403
:1018A0003B6923EA04043C61F8BD00BF84010020C9
:1018B000F8B5134D2F68FE683B691E4016F0100402
:1018C00003D0AC690CB1A0471024310704D56B6973
:1018D00013B1984744F00804720704D52B6913B17B
:1018E000984744F00404B30704D5EB6813B1984754
:1018F00044F002043B6923EA04043C61F8BD00BFE4
:1019000084010020F8B51A4D2F68FE683B691E401F
:1019100016F0400403D02C6A0CB1A0474024F30613
:1019200004D5AB6913B1984744F01004300704D5CF
:101930006B6913B1984744F00804710704D52B690B
:1019400013B1984744F00404B20704D5EB6813B10F
:10195000984744F00204F30704D5AB6813B19847E5
:1019600044F001043B6923EA04043C61F8BD00BF74
:10197000AC010020F8B51A4D2F68FE683B691E4087
:1019800016F0400403D02C6A0CB1A0474024F306A3
:1019900004D5AB6913B1984744F01004300704D55F
:1019A0006B6913B1984744F00804710704D52B699B
:1019B00013B1984744F00404B20704D5EB6813B19F
:1019C000984744F00204F30704D5AB6813B1984775
:1019D00044F001043B6923EA04043C61F8BD00BF04
:1019E000D0010020F8B51A4D2F68FE683B691E40F3
:1019F00016F0400403D02C6A0CB1A0474024F30633
:101A000004D5AB6913B1984744F01004300704D5EE
:101A10006B6913B1984744F00804710704D52B692A
:101A200013B1984744F00404B20704D5EB6813B12E
:101A3000984744F00204F30704D5AB6813B1984704
:101A400044F001043B6923EA04043C61F8BD00BF93
:101A5000F4010020F8B51A4D2F68FE683B691E405E
:101A600016F0400403D02C6A0CB1A0474024F306C2
:101A700004D5AB6913B1984744F01004300704D57E
:101A80006B6913B1984744F00804710704D52B69BA
:101A900013B1984744F00404B20704D5EB6813B1BE
:101AA000984744F00204F30704D5AB6813B1984794
:101AB00044F001043B6923EA04043C61F8BD00BF23
:101AC0001802002010B5074A1468E36821690B402A
:101AD000DB0706D5936823B19847236923F00103F8
:101AE000236110BD3C02002010B5074A1468E3686A
:101AF00021690B40DB0706D5936823B1984723691A
:101B000023F00103236110BD4802002010B5074AED
:101B10001468E36821690B401B0606D5536A23B19C
:101B20009847236923F08003236110BD54020020ED
:101B300010B5074A1468E36821690B40DB0706D536
:101B4000936823B19847236923F00103236110BDF3
:101B500054020020F8B50C4D2F68FE683B691E400A
:101B600016F0400403D02C6A0CB1A0474024B30601
:101B700004D5EB6913B1984744F020043B6923EA8C
:101B800004043C61F8BD00BF54020020F8B5134DB9
:101B90002F68FE683B691E4016F0100403D0AC6944
:101BA0000CB1A0471024310704D56B6913B19847D5
:101BB00044F00804720704D52B6913B1984744F028
:101BC0000404B30704D5EB6813B1984744F002044A
:101BD0003B6923EA04043C61F8BD00BF54020020C5
:101BE00000223F2110B50446436810309A801860E7
:101BF000DA801981A3689A80DA8004F15002198191
:101C00001A6094F89000FFF7C1FB94F99130002B13
:101C100008DB0122591103F01F0302FA03F3024A01
:101C200042F8213010BD00BF00E100E00368DA682F
:101C300042F02C02DA60DA6842F40052DA6070474F
:101C400010B5036881688C88CA8892B2A242FAD122
:101C5000DA68910402D51A685206F9D5DA6822F4D6
:101C60000052DA60426893889BB2D380826893887E
:101C70009BB2D38010BDF0B50B4606460468B5682C
:101C8000581AAF88ED88ADB2BD4204D125682D0643
:101C900001D5824210D8E36823F08003E3609042CC
:101CA000B3680DD39A88DB889BB293421EBFE3686A
:101CB00043F08003E360F0BD13F8010B6060DEE7E2
:101CC000DD889F880135BD42ECD0DF881D89ADB22B
:101CD000BD4203D19D88ADB2002DE3D0DD8811F85F
:101CE00000C01F68ADB207F805C0DF881D8901304C
:101CF000ADB2BD420FBF0025DD880135ADB2DD803C
:101D0000CDE703468288016892B2885C99881A8977
:101D1000C0B292B28A420FBF00229A88013292B2B8
:101D20009A80704738B5C38882880133934204464D
:101D30000D4607D0C28803899BB2934214D1838891
:101D40009BB28BB92046FFF7DCFFE38822689BB289
:101D5000D554E28823899BB293420FBF0023E388C6
:101D600001339BB2E38038BD4FF0FF30EDE770B533
:101D70001E460546084611460422059CFFF73AF91F
:101D80000B229DF810103046FFF734F929686302E2
:101D9000CA6803F4F05322F4F0521204120C1343F5
:101DA000CB602A682402136904F4405423F440539E
:101DB0001B041B0C1C43146170BD38B5054614464A
:101DC00011B900F0FDF8014619235943A200B1FBF7
:101DD000F2F26421B2FBF1F001FB10231B0132335C
:101DE000B3FBF1F303F00F032C6843EA00139BB23B
:101DF000A36038BD10B50446084B1868A047084BCF
:101E00001868A047074B1868A047074B1868A047F9
:101E1000064B18682346BDE810401847840200208E
:101E2000880200208C0200207C020020800200201A
:101E300010B5104CE368980607D52368990604D5B9
:101E400061680D48C9B2FFF76DFFE3681A060BD54C
:101E500023681B0608D509488288C3889BB2934231
:101E600003D0FFF74EFF606010BDE36823F08003EE
:101E7000E360F9E700380140D4110020E0110020B0
:101E800010B5104CE368980607D52368990604D569
:101E900061680D48C9B2FFF745FFE3681A060BD524
:101EA00023681B0608D509488288C3889BB29342E1
:101EB00003D0FFF726FF606010BDE36823F08003C6
:101EC000E360F9E700440040EC110020F811002025
:101ED00010B5104CE368980607D52368990604D519
:101EE00061680D48C9B2FFF71DFFE3681A060BD5FC
:101EF00023681B0608D509488288C3889BB2934291
:101F000003D0FFF7FEFE606010BDE36823F080039E
:101F1000E360F9E70048004004120020101200209E
:101F200010B5104CE368980607D52368990604D5C8
:101F300061680D48C9B2FFF7F5FEE3681A060BD5D4
:101F400023681B0608D509488288C3889BB2934240
:101F500003D0FFF7D6FE606010BDE36823F0800376
:101F6000E360F9E7004C0040A4110020B01100200C
:101F700010B5104CE368980607D52368990604D578
:101F800061680D48C9B2FFF7CDFEE3681A060BD5AC
:101F900023681B0608D509488288C3889BB29342F0
:101FA00003D0FFF7AEFE606010BDE36823F080034E
:101FB000E360F9E700500040BC110020C811002088
:101FC00008B590F89000FFF797F920B10128034871
:101FD00018BF002008BD0248FCE700BF00A24A0469
:101FE0000051250230B548F28005094C226822F4E0
:101FF000804222F070022A4342402260236823F488
:10200000E04323F040032B434B40236030BD00BF2F
:10201000005C0040284B072818BF18701A78052A62
:1020200048D8DFE802F003131E232B364FF6FB716E
:10203000224A106C014011644FF43F4111640622A2
:102040001A701F4B1B685A7B1A7370474FF6FB714F
:102050001A4A106C014011644FF43F41116404228C
:1020600002E002225A7003221A7006E05A78013AFE
:10207000D2B25A705A78002AF1D070470F490A6CD0
:1020800092B242F010020A6405221A700A225A70B3
:1020900070475A78013AD2B25A705A78002AECD175
:1020A0004FF6EF720549086C02400A64044A126850
:1020B000517B11730622D7E7D0380020005C004026
:1020C000740500202DE9F0415F4D604A2B68546C87
:1020D0001B68A4B223405E0506D56FF48063536489
:1020E0005B4B1B685B6898472A6813682340980419
:1020F00042BF6FF40051554B596413682340D90413
:1021000006D56FF4C052514B00205A64FFF782FF8E
:102110002B681A68224012050FD54C490A6C92B2FE
:1021200042F0080042F00C0208640A641A7B5A73F9
:1021300003221A736FF4C0524A641A68224097054A
:1021400042BF6FF40071414A51641B682340DE05B1
:1021500006D56FF480723D4B07205A64FFF75AFF93
:102160002B681B681C40240403D5384C676C3B0467
:1021700001D4BDE8F0816FF4004317F00F066364EB
:1021800038D148F68003D4F8008018EA030FECD069
:102190001FFA88F32F4D304E03F440524FF4005095
:1021A00003F03003202133802A80FFF71BFFF8065D
:1021B00023680ED423F4E14323F070031B041B0CAB
:1021C000236000F09BFD31882888BDE8F041FFF7CF
:1021D00009BF18F0800FEDD123F070031B051B0D14
:1021E00018F4006F236002D000F0A6FBEBE700F0CC
:1021F00003FDE8E7B40004F1804404F5B84427681F
:1022000039040DD5236823F070031B051B0D2360D3
:102210002A6806F180439268013B52F823309847C0
:102220003A06A2D5236806F1804623F4E14323F061
:1022300070031B041B0C23602B68013E5B6853F882
:102240002630984791E700BF74050020005C0040ED
:10225000D8380020D2380020D4380020800000F187
:10226000804000F5B840036823F4804323F07003F6
:1022700043F4004343F0800359400160704700007D
:1022800018B90722024B1B681A820248704700BF28
:10229000E0380020E40500200022012110B5104B99
:1022A0001B689A720F4B19640F490868026008682E
:1022B00004681C644FF4E0545A64046008680468BD
:1022C0001C644FF43F445A64046008680068186452
:1022D0004FF48010054B18600B681A7310BD00BFD7
:1022E000E0380020005C00407405002000E100E0C0
:1022F00013B5104B1A68137803F07F03212B16D106
:10230000022808D0222801D0022405E093780A4A46
:1023100003F0030313700024084B1B6823B102A9C8
:1023200001F8010D02209847204602B010BD02249A
:10233000FAE700BFE0380020201200201C12002025
:1023400021B901288CBF022000207047022070476D
:10235000054B1B689B78032B04D8044901EBC30190
:1023600000F0BCBA00207047E0380020CC05002007
:10237000014900F0B3BA00BF88050020014900F010
:10238000ADBA00BF9005002037B5114C2268127815
:1023900002F07F02212A02D0022003B030BDA0F15A
:1023A0002003012B0B4B0C4D1B6888BF002523B16C
:1023B00002A901F8010D02209847002DECD02368F6
:1023C00000249D615C822046A8472046E5E700BFC7
:1023D000E03800201C120020812200082DE9F0477F
:1023E00000254FF0C00948F68F1648F280074FF0DD
:1023F000400A434B434C1B68DFF838819D7283F8D9
:102400000990256523682846334043F40073236010
:10241000236803EA08033B4383F010032360226D23
:10242000394B520043F802A08022236D5B0003F178
:10243000804303F5C0431A60236823F4E24323F08A
:1024400070031B041B0C2360304B1B6893F82C108B
:1024500000F072F84FF440512846FFF7FFFEA368E2
:102460002946334043F4C063A360226D284B5200D9
:1024700013444FF480721A60A268022002EA080234
:102480003A4382F02002A260FFF7E8FEE36851467B
:102490003340E360226D1F4B520013444FF48872A7
:1024A00003201A6000F048F84FF440510320FFF772
:1024B000D5FE636829461E406660226D164B5200A9
:1024C00043F802906368012003EA08033B4383F06A
:1024D00020036360FFF7C2FE0122104B28461B68F1
:1024E0001A7300F0EBFBFF220D4B1D600D4B1D60BE
:1024F0000D4B1D600D4B1D600D4B1A70BDE8F08734
:10250000E0380020005C004008600040D83800201F
:1025100020600040386000401060004074050020DA
:102520002412002028120020301200203412002033
:102530002C120020BF8FFFFF0D4B0E4A1B6D3E2952
:1025400003EBC0004FEA400002440AD94B09C80619
:1025500004BF03F1FF339BB29B0243F400431360BB
:1025600070474B08C90748BF01339B02F7E700BF1C
:10257000005C00400C60004010B5064C18B9012208
:1025800023681A8210BD044B1B681B68984720689B
:102590000A30F7E7E0380020DC38002010B5064CA0
:1025A00018B9012223681A8210BD044B1B689B686E
:1025B000984720680C30F7E7E0380020DC3800202E
:1025C00010B51E4B1C68002310B90223238210BDD6
:1025D0001B4803802178024611F07F0112D1617AF5
:1025E0008C0644BF02230370037848064CBF23F0D7
:1025F000010343F001031370124B1B681B699847DA
:102600000F48E4E70129E2D0022915D1217901F030
:102610000F039B0003F1804303F5B84309061B68D1
:1026200005D503F03003102BE6D10123E3E703F4D3
:102630004053B3F5805FF7E71846C8E7E03800205D
:10264000D6380020DC3800202DE9F843234FDFF88E
:10265000A0803D682C8AD4B92E7A042E17D1204947
:102660000B78012B0ED11F4B1A681F4B92B21344EB
:102670005B001C6030230C70A8F800303B681E72B1
:10268000BDE8F88310230726A8F80030F6E7AB8AE8
:102690009C4294BF042602269C4228BF1C46AB697C
:1026A000204698478146002000F0B4FB22460146B0
:1026B000484600F052FB2146002000F0C7FB2B8A61
:1026C0004FF440521B1B2B826B8A1C443023A8F80A
:1026D0000030064B6C821A80D0E700BFE038002043
:1026E00038120020505C004002300020D238002018
:1026F000D438002010B50A4B0A491B6849789A78EB
:1027000091420AD3D97841B99C8834B99A72064B60
:102710001B685B689847204610BD0220FCE700BF9D
:10272000E0380020C8050020DC38002038B50F4A0A
:102730000F4D12682B6892699978187990472B6829
:1027400004469A7A7AB170B95A7962B9DB7853B98A
:10275000084B1B68DB6898472B681A79DA729A78FD
:102760001A73204638BD0224FBE700BFD83800208A
:10277000E0380020DC38002038B52B4B1B68187877
:1027800010F07F0004D15A7A22F020025A7238BD2C
:10279000022847D15A88002AF9D15A79002AF6D15D
:1027A0001979224D21F08000840004F1804404F561
:1027B000B844226849B22D780029B4BF02F0300233
:1027C00002F4405285422DD962B39B7A53B300295B
:1027D000236811DA03F03003102B07D1C4B220466E
:1027E00000F004FB3021204600F0D8FA104B1B68A3
:1027F0005B6998470020CAE703F44053B3F5805F54
:10280000F4D10C4D58B90C4B93F82C1000F02CFB64
:1028100023682B409BB283F440532360E6E700F02B
:10282000D2FAF5E70220B2E7E0380020C805002020
:10283000DC3800208FBFFFFF9805002038B51B4B08
:102840001B4D18682D78017921F08004A30003F155
:10285000804303F5B8431A6849B20029B4BF02F0B7
:10286000300202F44052A5421DD94488DCB9D2B1ED
:10287000827AC2B11A680029B5BF22F4E04222F47C
:10288000804222F0400222F07002B5BF92B292B2B2
:1028900082F0100282F480521A60064B1B689B691A
:1028A0009847002038BD0220FCE700BFE038002038
:1028B000C8050020DC38002008B5064B1A68537A9A
:1028C00043F020035372044B1B68DB6998470020D8
:1028D00008BD00BFE0380020DC38002010B5054BF3
:1028E0001C68628A18B98B889B1A238210BD0868FD
:1028F0001044FBE7E038002008B50B4B002093F8AC
:102900002C1000F0B1FA094B1B68187A082806D180
:102910004FF48052064B1A801022064B1A80A0F109
:1029200009035842584108BD98050020E0380020AE
:10293000D2380020D438002073B5964C964E2168CA
:1029400032680B7A092B16D0944B92B213445B0079
:102950001B885B0003F1804303F5C0431A780A70BB
:1029600059782268517099882268518019892268A3
:1029700091809B89D380012223681A72DA885D785E
:10298000002A64D11A7812F07F024DD1092D03D1AB
:10299000FFF7B0FE40BB16E0052D20D193F90220D1
:1029A000002A07DA08232268137202B0BDE87040DB
:1029B000FFF7A2BFDA78002AF4D19A88002AF1D171
:1029C0009B7A002BEED13268754B92B213440022F1
:1029D0005B001A603022734B1A800623E3E7032D55
:1029E00014D19A78012A08D06F4B28461B685B697E
:1029F0009847032828D10923D5E79A88002AF3D1DC
:102A00005B7A9A06F0D5FFF757FFC3E7012DEBD1AC
:102A10009A78012AE8D19A88002AE5D15B7A9B0648
:102A2000E2D5FFF7A9FEB5E7012A04D10B2DDBD1D2
:102A3000FFF77CFEAEE7022AD6D1012DF1D0032D9F
:102A4000D2D1FFF7FBFEA5E70028ABD1BBE7062DEF
:102A500012D11A7855065AD1DB78534A012B1268E5
:102A600002D1D369DBB952E0022B01D1136AF9E735
:102A7000032B4CD1536AF5E7002D54D15988002916
:102A800045D15A6822F0FF02B2F5003F3FD11A78D3
:102A900012F07F0216D19B88002B38D1434B0025C2
:102AA0002268284655829361984728464FF6FF7161
:102AB00023681A8A8A4233D0022801D0002A55D1CD
:102AC00008222EE0012A0AD1374A18791268926941
:102AD0009047E0B923689B7A002BDFD117E0022AE8
:102AE00015D11A7902F00F018B00100603F1804313
:102AF0002F4803F5B8431B6800784CBF03F0300340
:102B000003F44053884202D912F0700FE4D0264BF0
:102B100022681B6850781B6998470328C6D1236830
:102B200009221A7241E7082D04D11B785B06EED109
:102B3000204BB4E70A2DEAD11A7802F07F02012A6D
:102B4000E5D19A7A002AE2D059880029DFD15A6863
:102B500022F0FF02B2F5803FD9D1134A18791268EA
:102B6000926990470028D2D1134B98E793F900104F
:102B7000002936DAD9880C4C0191019824688242E8
:102B80001CD9019A1A8294F82C209A82FFF75CFDD6
:102B90000BE700BFE0380020505C0040043000200C
:102BA00002300020D4380020D8380020C125000889
:102BB000C8050020792500089D2500088A42E2D238
:102BC00094F82C00824203D20021094A1170DAE7FE
:102BD00092FBF0F100FB1122002AD4D1044A01211A
:102BE000F4E703221A724FF44052024B1A80DCE6DB
:102BF00038120020D2380020F8B52A4E3468237AE3
:102C0000032B01D0052B44D1A369B3B1258AA5B10B
:102C1000A28A954228BF154628469847238A074628
:102C20005B1B2382638A00202B44638200F000F93F
:102C30002A460146384600F09FF8238A53B1002106
:102C40004FF44052184B08461A8000F0FFF830222B
:102C5000164B1A80228AA18A3368914209D803222E
:102C60001A7233681B7A32681372BDE8F840FFF7B6
:102C700043BE0AB10522F3E7062119720C4B19680D
:102C80000C4B89B20B445B001A603022074B1A8050
:102C9000E7E7072B03D1084B1B68DB68984708233D
:102CA000E1E700BFE0380020D2380020D43800200F
:102CB000505C004002300020D8380020002210B5BF
:102CC0000C4B1C78A24204D30B4B40F080001860E0
:102CD00010BD02F1805303F5B8539B00196821F42D
:102CE000E04121F070010904090C1143196001321F
:102CF000E8E700BFC80500204C5C004010B5134C4D
:102D000023681A7A022A01D0042A09D1FFF79CFC11
:102D100023681B7A22681372BDE81040FFF7ECBDF0
:102D2000062A10D15A78052A09D11A78520606D1F6
:102D30009878FFF7C3FF064B1B681B6A9847054B43
:102D40001B689B6898470823E4E700BFE038002031
:102D5000DC380020D8380020704701F100510132E2
:102D600001F540515210490002B9704730F8023B5A
:102D7000013A21F8043BF7E7002310B501F10051B7
:102D8000013201F54051521049009A4200D110BD64
:102D900051F8234020F813400133F6E7800000F19A
:102DA000804000F5B8400368CA0623F4E04323F0EE
:102DB00040039BB248BF83F010038A0648BF83F0EC
:102DC000200303607047800000F1804000F5B840A8
:102DD00003685B0409D5036823F4E04323F0700320
:102DE0001B041B0C43F4804303607047800000F118
:102DF000804000F5B84003685B0609D5036823F4FA
:102E0000E04323F070031B041B0C43F040030360FA
:102E100070470000054B1B689BB203EBC00000F13C
:102E2000005000F54050400000887047505C004062
:102E3000044B1B689BB203EBC000034B03445B00D5
:102E400018887047505C004004300020044B1B6819
:102E50009BB203EBC000034B03445B001960704757
:102E6000505C0040023000200D4B0E4A1B683E298A
:102E70009BB203EBC00002444FEA42020AD94B095D
:102E8000C80604BF03F1FF339BB29B0243F4004327
:102E9000136070474B08C90748BF01339B02F7E72F
:102EA000505C00400630002013B504468DF8071032
:102EB00001220DF107012046FEF7DDFE0028F7D0C4
:102EC00002B010BD38B505464C1E14F9011F01B9FA
:102ED00038BDC9B22846FFF7E7FFF6E708B5134B40
:102EE00003221C6801212046FEF784F800230121FB
:102EF0001A46B2F5007F0CD072B1B3F5007F01D154
:102F000000230A449A420CD9022520680561013346
:102F1000EFE74FF0FF31F0E7B3F5007F4FF001012D
:102F2000EED020684FF40035F0E700BF881E03089C
:102F300008B5034B0BB100F045F862B6FFF7CEFFC2
:102F4000C52F000808B5044B23B100F05BF8034916
:102F5000FFF7B8FFFFF7ECFF05300008731F030809
:102F6000FDF7A4B908B500F0B3FF01F073F8FCE772
:102F700026F0AABD32280BD8064B03EB001043689D
:102F80001A68437B343203F18043013B42F823103B
:102F9000704700BF181B030838B50C4605460721CB
:102FA00004EB042400F046F8A1B22846BDE83840FE
:102FB000FFF7E0BF002203685B0103F18443C3F81D
:102FC000002170474FF0FF3310B50A4C0A48C4F88F
:102FD0008030C4F88430FEF7EFFA0848FDF7EAFDC8
:102FE0000748FEF707FF4FF4002323604FF48013D8
:102FF000236010BD00E100E019160008B52F00089D
:10300000411C000810B5094B094C18680B2202211D
:10301000FDF7F0FF2068FEF7E3FD20684FF416523D
:103020000021FEF7CAFE206810BD00BF841E030801
:1030300088020020322838B53BD8082939D8DFE883
:1030400001F00529171A1D2017232600002403224A
:10305000184B00011D18297B1858FDF7CBFF686835
:1030600038B3697BCCB1BDE838400122FEF796BB8E
:1030700000240422ECE700242246E9E70024092288
:10308000E6E700240822E3E701240B22E0E701241D
:103090000F22DDE700240722DAE702684B1E02F167
:1030A000404220329B0003EBC2039B0003F18443A8
:1030B0001C6038BD181B030808B501211048FDF736
:1030C0009FFA02210F48FDF79BFA03210E48FDF7F6
:1030D00097FA04210D48FDF793FA05210C48FDF7F6
:1030E0008FFA06210B48FDF78BFA07210A48FDF7F6
:1030F00087FABDE8084008210848FDF781BA00BFFB
:103100003C120020401200204412002048120020EF
:103110004C1200205012002054120020581200209F
:1031200032280DD8074B000119181B58097B1B6862
:103130009A6801238B40134214BF0120002070477E
:1031400000207047181B0308322810B50ED8084B12
:1031500000011C181B58B1FA81F11A680123207B69
:1031600049098340090103FA01F1116110BD00BF53
:10317000181B03080A4A0B4B11689B6800BF00BF6D
:1031800012688A42F6D14820C3F58C3303F5A07348
:10319000B3FBF0F34FF47A7000FB0230704700BFCE
:1031A000CC38002010E000E038B50446FFF7E2FF1D
:1031B00005465CB1FDF765FCFFF7DCFF401BB0F591
:1031C0007A7FF6D3013C05F57A75F5D138BD28B183
:1031D0000C234343013B18460138FDD870470000DB
:1031E0000449054BCA6822F4E0621204120C13432E
:1031F000CB60704700ED00E00003FA0570477047B0
:103200000120704713B5104C20461BF090FF20465C
:1032100004211BF026FF204602220C491BF024FF4C
:10322000002302220A4900932046A0231BF082FFBC
:1032300020461BF075FF20461BF064FF204602B0BD
:10324000BDE810401BF065BF64120020981F030802
:103250005E12002024280AD0252807D10123054A20
:1032600032F81330044AC3F38903138070470023F4
:10327000F5E700BF5E1200205C120020044B03EB58
:1032800000135B6813B1C0B2FFF786BE704700BF82
:10329000181B0308FEF722B8024B034819681BF0FD
:1032A000DEBE00BF1C0000206412002010B5074CD9
:1032B000032294F84C10206CFDF79CFE236C94F8CC
:1032C0004C101A6801238B40136110BD181B0308B2
:1032D000062838B58CBF00250A4B0B4C98BF1D5CE7
:1032E0002046E46600F03FF92946204600F04DF9FB
:1032F0002046012100F056F92046BDE83840002163
:1033000000F05DB99A1F030874120020FF210148E4
:1033100000F06AB9741200200B46024600210148F1
:1033200000F01ABA741200200146014800F09CBA5D
:103330007412002070B50D46064C0146204600F080
:1033400093FA29462046BDE8704001234FF40072ED
:1033500000F07EBA7412002001398B00012102684E
:1033600099405160704703689A689107FCD59A6844
:103370001206FCD47047436823B1417B00221846F3
:10338000FEF70CBA70470000172806D0182806D0A0
:103390001628044818BF00207047034870470348A8
:1033A000704700BF046A0308086A03080C6A030830
:1033B0002DE9F04F814687B000798A46FFF7E4FF98
:1033C00060B30578174C46782D012B1987783601A4
:1033D00090F8038006EB040B1846059304EB0717DF
:1033E000FFF7C9FF5846FFF7C6FF04EB0818384639
:1033F000FFF7C1FF4046FFF7BEFF98F80C20059B82
:1034000051461B7B03923A7B484602929BF80C2064
:103410000192325900922A59FEF764F807B0BDE8CC
:10342000F08F00BF181B030810B50C46FDF764FFB2
:1034300090B10228094B88BF002300225B089C4200
:10344000D0B205D20132072A4FEA5303F7D1104612
:10345000034B0344187B10BD024BEEE700A24A0465
:10346000046A0308005125022DE9F0410346044691
:103470006C302C4D00221D6001255A731D735A605B
:10348000C3E9072224339842F3D124224B1E02FBC6
:1034900003430229E366DFF8AC80234E39D00329C9
:1034A0003CD0A94201D1214B1C60214B214F1B680C
:1034B000216823611879FFF7B7FF3B680225A361F4
:1034C00003236375D8F80030A06063632575616AD3
:1034D0001879FFF7A9FF3B68E062E363052384F8EE
:1034E0003930042384F838303368A16CA365187927
:1034F000FFF79AFF104B00221B682065236601230B
:1035000084F85C30E36E84F85D50DA732046BDE8E1
:10351000F081D8F800306363084BC5E73368A365D2
:10352000074BC1E700093D0068010020E4120020BC
:10353000600100206000002064000020E8120020EC
:10354000EC12002064010020C06E037B4268012B56
:103550000CBF0023802342F440721343017A427B64
:103560000069FDF79FBF10B50446C36E1869FDF7EB
:103570006EFFE36E01211869FFF71AFF2046FFF77F
:10358000E3FF0122E36EDA7310BDC36E9960C36E70
:1035900001F038011B691A68136823F038031943D6
:1035A00011607047C36E1973C36E1B691A68136884
:1035B00023F0800309B943F0800313607047C36EA2
:1035C0005973C36E01F003011B691A68136823F075
:1035D0000303194311607047C36E1B691B68D960F0
:1035E000C36E1869FFF7BFBE10B5C36E1C692368B0
:1035F0002046DA68D960FFF7B6FE2368D868C0B203
:1036000010BD0000F0B50546C36E85B09869174639
:103610000E46FDF7FEFAE86E4468017DA4F50063EE
:103620005C425C4103691A688223CDE9014300973B
:1036300023460C328069FDF72FFBE86E0369417D5C
:103640001A68C6B91023CDE901430D4B00932346F8
:103650000C328069FDF720FBEB6E0022597D9869E2
:10366000FDF7DAFA0322EB6E197D986905B0BDE823
:10367000F040FDF7D1BA90230096CDE90143E6E78B
:10368000A11F030870B504460D4611B90025284650
:1036900070BDC36E1A6912689168CE0748BFD268C0
:1036A0000422DA73C36E2A46197D9869FDF7C0FAC1
:1036B000E36E2A46597D9869FDF7BAFAE36E197DE3
:1036C0009869FDF7D1FAE36E597D9869FDF7CCFA58
:1036D000E36E1869FDF7F8FEE36E1869FDF7E8FE82
:1036E000E26ED369002BD1D193691A491E68537DCC
:1036F0000D68013B9B00DBB23068D840800727D4BF
:103700000868401B6428F7D902251069FFF72BFED3
:10371000E36E1869FDF7D2FEE36E1869FDF7DAFE75
:10372000E36E597D9869FDF7ABFAE36E197D9869F0
:10373000FDF7A6FAE36E197D9869FFF70DFEE36EBB
:10374000597D9869FFF708FE0122E36EDA739EE760
:103750000025DAE7CC38002038B504461D46FFF7CF
:1037600051FF29462046BDE83840FFF78BBF7FB5A3
:10377000054614460E46C36EE4019869FDF749FA02
:10378000E86E44F012044368417DA3F500625342A1
:10379000534102691268CDE9013400960C32806908
:1037A000FDF77AFA0022EB6E597D986904B0BDE806
:1037B0007040FDF731BA000070B504460D4611B9EE
:1037C0000025284670BDC36E597D9869FFF7C4FD7A
:1037D000E36E2A46597D9869FDF72AFA0322E36EC3
:1037E000DA73E36E597D9869FDF73EFAE36E186966
:1037F000FDF75EFEE26E136A002BE1D19369134977
:103800001E68537D0D68013B9B00DBB23068D840D9
:10381000800719D40868401B6428F7D9022510696D
:10382000FFF7A1FDE36E1869FDF748FEE36E597DD1
:103830009869FDF725FAE36E597D9869FFF78CFDCD
:103840000122E36EDA73BCE70025E8E7CC380020FC
:1038500038B5044615461A46FFF789FF2946204623
:10386000BDE83840FFF7A8BF08B5FFF7B5FE012057
:1038700008BD000001210148FFF7F6BD74120020C9
:10388000084B186803F178420749A2F57C32505082
:10389000064A04339342F4D10022054B01201A70EA
:1038A000704700BF00F00308F01200200000040879
:1038B000F022002070B5164D2C783CB31BF0F0FCC4
:1038C00014481BF0A5FC052805D01BF0F5FC0023CF
:1038D0002B70204670BD10481BF09AFC0528F4D1CF
:1038E0000C4E0E4A06F17843A3F57C33D15A30468C
:1038F0001BF0B0FC052804D000241BF0DDFC2C706C
:10390000E7E7074B02369E42EBD1DEE70124E0E712
:10391000F022002000F0030800F80308F012002055
:1039200000000408F8B505460024944206D0094E6C
:103930000F5D2868264437540134F6E70120064A13
:103940001070A2B2184611F0EFF82B6800201C444A
:103950002C60F8BDF0120020F022002070B5154652
:103960009DF8102004465AB901680A4A1144AAB2C7
:10397000184611F0D9F8226800202A44226070BD50
:103980000022AA42F3D0034E20681644305C8854CB
:103990000132F6E7F01200200228F8B506460D467F
:1039A00039D0052836D100262C4C0222236801216B
:1039B0005B0103F184431E602046FDF7EFFE2849BA
:1039C0004FF6FF70B1FBF5F11122814228BF01468D
:1039D00023685E629A62D8629A69204622F0FF02EA
:1039E0009A6159635B0103F184430121DE611D4A41
:1039F000FDF736FE01213220FDF746FC0122236847
:103A00005B0103F18443C3F8802223685B0103F167
:103A100084431A60F8BD0027134C02462368012135
:103A20005B0103F184431F602046FDF7B7FE40F2BF
:103A3000E73223680D495F62B1FBF5F19A624FF6F8
:103A4000FF72914228BF1146DA6220465963084A44
:103A50000121FDF705FE31461C20CDE718020020AC
:103A600000093D00C59F0108AC010020401901007C
:103A70008DB2010802280CD005280CD1074B1B6819
:103A80005B0103F18443D3F88401003018BF0120A7
:103A90007047034BF3E70020704700BF1802002077
:103AA000AC010020013807289ABF024B53F82000D0
:103AB00000207047A41F0308FDF7DEBB70470368B2
:103AC000C9B21B68184700000023054A9A56824273
:103AD00004D00133162BF8D1002070470120704725
:103AE0007C21030808B500F0FFFABDE80840014852
:103AF00000F0E8BA6E20030808B514F02DFC14F0AD
:103B00008FFCFE2013F082FABDE8084013F05CBA87
:103B1000054BD3F8D02293F8DC124FF480331268AF
:103B20008B401361704700BF181B03080E4AD2F880
:103B3000803092F88C101868012303FA01F109040F
:103B40000161D2F81011086892F81C1103FA01F112
:103B500009040161D2F8201292F82C2209689340DE
:103B60001B040B61FFF7D4BF181B0308044BD3F8E9
:103B7000D02293F8DC12012312688B401361704746
:103B8000181B030840B9054BD3F8D02293F8DC1278
:103B9000012312688B401361704700BF181B030894
:103BA000012130B4124BD3F88020106893F88C2098
:103BB00001FA02F202610F48027822F00104047057
:103BC000D3F81041256893F81C4101FA04F42C61E4
:103BD00022F003040470D3F8204293F82C322468B6
:103BE000994022F007022161027030BCFFF7BEBF8E
:103BF000181B0308CB280020074B1B784BB9074B39
:103C000093F90000012805D0054B1878C0F3800017
:103C100070470020704700BF64230020B4280020B4
:103C2000683700200B4B1B788BB90B4B93F9003096
:103C3000022B0CD0094B1B78C3F3C00040B1084ADB
:103C4000D07828B1C3F3800080F0010070470120D4
:103C5000704700BF64230020B4280020683700208C
:103C60004837002011F0DCBC10B5194C2378013B1B
:103C7000042B29D8DFE803F0030C1118230011F0FE
:103C8000B1FC3B280CD9134806F0F0FD40B910BD3B
:103C9000114806F0EBFD18B9F9E7E4220F4B1A7052
:103CA000237801332370F2E711F09CFC0C4A0D4B92
:103CB0003B2894BF1046184606F0D8FDEBE714F0F9
:103CC00089FB094800F0FEF900232370DFE700BFFD
:103CD000463700201520030819200308502800202B
:103CE000042003080B2003081D20030810B540F230
:103CF000E9330446013B08D000BF00BF00BF42F6D5
:103D00002F22013A00BFFCD1F4E772B640F2E9334A
:103D1000013B08D000BF00BF00BF41F29312013A3F
:103D200000BFFCD1F4E716F0FFFE24B1FFF738FF27
:103D3000FFF7C2FEFCE7FFF719FFF9E70D4604465F
:103D4000164608B516F0F0FE00F0CEF9074800F070
:103D5000B9F907490748002D18BF2946002C18BF9C
:103D6000204610F089FB3046FFF7C0FF7D20030896
:103D7000E51F03087521030870B5394B05461B780C
:103D8000032B01D806F0D8FF364B374A1B6814685E
:103D9000ABB1364909680B44E31A002B0FDB00F086
:103DA000A3F9334B3348196800F0A4F90A213248CB
:103DB000FFF785FE002211461046FFF7BFFF2F4B8D
:103DC0001B6843B12E4908782E49097888420ED0E5
:103DD0001268264B1A602C4D02F06EFF2B68E31A16
:103DE000002B03DB643414F02BFA2C6070BD274ADF
:103DF0001178274A89BB85BB1C4909680B44E31A23
:103E0000002B2ADB1378002BE5D101231370214A04
:103E1000D2F88010086892F88C1003FA01F1016161
:103E20001D48017821F001050570D2F810512E6867
:103E300092F81C5103FA05F5356121F00305057070
:103E4000D2F8205292F82C222D68934021F00701DD
:103E50002B610170FFF78AFEBDE700231370BAE7FC
:103E60004C250020FC220020CC380020802300209C
:103E700090230020312003087C100020EC05002056
:103E80002A3000202B300020F42200206423002060
:103E9000F8220020181B0308CB28002010B5044688
:103EA00010F02CFB05F070FE2046FFF765FF16F0C2
:103EB00035FF10F0C3FDFFF7A1F9044B1B781BB9C8
:103EC000BDE8104017F08ABC10BD00BF842300205D
:103ED00037B5FFF785F94B4A136823F0E06343F0E9
:103EE0000073136016F044F94FF4E1314648FCF7D3
:103EF00075FB464B46481B6800F0E4F800F0EEF80E
:103F0000FFF77EF9C507044602D5424800F0DAF80B
:103F1000A00702D5404800F0D5F8610702D53F4818
:103F200000F0D0F8220702D53D4800F0CBF8A306F8
:103F300002D53C4800F0C6F8FFF761F93A4800F0B6
:103F4000C1F820213048FFF7BAFD384800F0BAF830
:103F50000A212D48FFF7B3FD00F0C0F8344800F007
:103F6000B1F800F0BBF8334800F0ACF800F0B6F858
:103F70000020FCF74FFA0DF10701091A2E4800F056
:103F8000C5F84FF4D8612D4800F0C0F82C4C0A2138
:103F90001D48FFF794FD10F0C7F9002010F096FCC3
:103FA00008F000F9237823B912F022FE08B10123AA
:103FB0002370244C244D216828681BF079FE696821
:103FC000206060681BF074FEA9686060A0681BF048
:103FD0006FFEA06012F0F8FF1C4816F0BFFC11F055
:103FE000EFFA12F049FE15F0AFFBFFF767FD012372
:103FF0001A461946184602F0FFF80122144B1A70AF
:1040000003B030BD040001407C100020CC380020FB
:1040100035500308A1200308AA200308BB20030889
:10402000CD200308DE2003086E210308EF200308DB
:10403000F820030831210308482103085721030809
:10404000F9220020D8280020F8280020383300204A
:10405000FB22002008B50020FFF720FF19F0DAFC52
:10406000114B1B785B0613D519F0A2F806F052FB32
:10407000FFF742FD11F07CFA16F056FD00210846CC
:1040800016F0B2FA0022094B09481A7006F0DEFB5E
:10409000084B1B780BB1FFF7E7FD06F0D9FCBDE834
:1040A000084012F0E5BE00BF68370020F005002090
:1040B0009D20030846370020014818F03DBE00BF90
:1040C000FA22002010B5044614F9011B19B1024868
:1040D000FFF7F5FCF8E710BD7C1000200148FFF762
:1040E000F1BF00BFA42103080148FFF7EBBF00BFE9
:1040F0009D21030810B50C46FFF7E4FF2146BDE8FB
:1041000010400148FCF736BB7C10002010B50C466F
:10411000FFF7D8FF2146BDE810400A220148FCF70E
:104120008FBB00BF7C10002010B50C46FFF7CAFF04
:104130002146BDE810400A220148FCF794BB00BFAD
:104140007C10002013B50C46FFF7BCFF20461BF087
:104150001FFA02230246009302480B46FCF768FC54
:1041600002B010BD7C10002010B50C46FFF7AAFF6E
:104170002146BDE810400A220148FCF795BB00BF6C
:104180007C10002010B50446013CE4B2FF2C04D0A2
:1041900020210248FFF793FCF6E710BD7C100020B9
:1041A000034A044B002814BF10461846FFF78ABF85
:1041B000842B0308902A030808B5FFF7F1FF0A21B2
:1041C0000148FFF77CFC08BD7C100020034A044B2B
:1041D000002814BF10461846FFF774BF9221030849
:1041E00097210308F8B507460E4615461846069C63
:1041F000FFF768FF39680B48FFF7A4FF31680A48EA
:10420000FFF7A0FF29680948FFF79CFF24B120466B
:10421000BDE8F840FFF756BF0A210548FFF74FFCFD
:10422000F8BD00BFF01F0308F71F0308FE1F0308B7
:104230007C10002010B50446322C06D93220323CC6
:10424000FEF7B2FF16F06AFDF6E72046FEF7ACFF78
:10425000BDE8104016F062BD38B5094C25882DB276
:10426000002D0CD0CCBF0121002115F001FF2388C7
:10427000002DCCBF03F1FF3301331BB2238038BDC7
:1042800004230020084B1B7823FA00F0C30709D54C
:10429000064A89B213880B441380054B1A881144CF
:1042A00009B21980704700BFCB28002002230020EC
:1042B000042300200A4610B5074B044603EB800395
:1042C000596910681BF0FCFD1BF0D6FF01B22046B7
:1042D000BDE81040FFF7D6BF7830002038B50C4C51
:1042E00004F12405002120681BF07EFF70B100213D
:1042F00060681BF079FF48B10021A0681BF074FFD3
:1043000020B10C34AC42EDD1002038BD0120FCE7D7
:104310002423002010B50C4C2378834212D014F0D3
:104320007FF8237843B1094813F0E6FF0023237098
:10433000BDE8104012F048BE01230448237013F07A
:10434000F3FFF5E710BD00BF28300020D82800207B
:104350002DE9F041244D04460F46014628681BF024
:1043600043FF00283DD1214B1E78FFF7D3FF0021EA
:1043700020461BF061FF00B900242C601C49204638
:104380001BF050FF20B11B4920461BF041FF30BB02
:1043900021464FF07E501BF047FE174B174A18601E
:1043A000174B1A60EEB1174C0120D4F800806668F4
:1043B000A568FFF7AFFFA7B1414620681BF014FFC7
:1043C00048B1314660681BF00FFF20B1A168284654
:1043D0001BF00AFF28B9BDE8F04112F0DDBD002056
:1043E000DBE7BDE8F08100BF04300020283000206A
:1043F000BD3786B5BD37863534300020F0FF79C42F
:1044000020290020D828002008B50020FFF782FFCF
:10441000BDE8084000F0A0B82DE9F74F04468946F2
:1044200017469A460025A5420FD0EBB20A2B34BF9F
:10443000032002203844C0B2FFF7A4FE29460A2216
:104440002D48FCF7FDF90135EDE70A212A48FFF771
:1044500036FB0024A1455FFA84FB46D0092C03D823
:1044600020212548FFF72BFB0A2221462248FCF792
:10447000E7F90026AE425FFA86F830D020211E48C8
:10448000FFF71DFB59464046D047014680461BF0CA
:10449000DDFE98B9002140461BF0C4FE18B12B2167
:1044A0001548FFF70CFB40461BF072F800970246D8
:1044B0000B461148FCF7BCFA0136DBE74FF0000869
:1044C0005FFA88F3BA1C9A42F6DB002B14BF3D2139
:1044D00020210948FFF7F3FA08F10108F0E70A2163
:1044E0000548FFF7ECFA0134B4E70A210248FFF768
:1044F000E6FA03B0BDE8F08F7C100020F0B500278D
:1045000006460D4D85B0AB6804AC44F8047D0193BC
:104510000A4B224602A9029312F0FAFD214601A895
:10452000039712F0FBFD326873682A6000226B600B
:10453000034B1A7005B0F0BDD82800200000A04041
:10454000F427002000EB4000024B014453F8210007
:10455000704700BF242300200022034B00211A6073
:104560000248242225F0B0BE20230020242300206E
:1045700038B50546074B0849084A094C59601C6084
:104580009A60084B1C6059609A60FFF7E5FF284667
:1045900038BD00BF082300200000EB42000061434B
:1045A000000020411423002013B50D48FFF78AFDB9
:1045B0000C4B052418681AF0EBFF009402460B46DA
:1045C0000948FCF735FA0948FFF77CFD032122462C
:1045D0000846074B02B0BDE81040FFF71DBF00BF03
:1045E000AA210308202300207C100020BF210308FB
:1045F000454500080148FFF7BBBF00BF4823002026
:1046000038B51B4B93F90030012B2DD0194D19B142
:104610000023194A2B601370184B1A682B68D31AA1
:10462000002B21DB144C002894F900301DDB011D08
:10463000994219DB9842CCBF4FF47A704FF4FA706C
:1046400003F001031902C91A03EBC10103EBC10115
:104650008900104401F55C71286089B2322010F0A5
:1046600023FA23780133237038BD4FF47A70E7E7DB
:10467000F1050020602300205C230020CC380020BE
:1046800010B5104B01461B781B070AD40E4B1C7843
:104690003CB90E4BB3F908200D4BB3F900309A42E8
:1046A00009DB0B2000220CF007FFBDE810400121C0
:1046B000002017F0D1B8FFF711FD0648FFF702FD03
:1046C000204610BD01230020D8320020A83200204F
:1046D0007E0600202922030838B5094B094C0D46F7
:1046E000006819681BF0A0FCE1681BF0E1FAE060CB
:1046F000284612F0B5FCBDE8384013F091BE00BF6B
:1047000064060020D82800202DE9F04F85B09DF9DF
:10471000405081462846884617469A469DF83840BC
:104720009DF83CB0FFF7ACFF064648B924B10246FD
:10473000294609200CF0C0FE304605B0BDE8F08FD8
:10474000BBF1000F28D024B10022294604200CF030
:10475000B3FEFFF7C3FC3A48FFF7B4FC0121504613
:10476000FFF74EFF0321374B012093F9002019700A
:1047700035499B460B4608701978019351B10021C9
:1047800050460092FFF73CFF0120FFF787FBDDE971
:104790000023F1E78BF8002024B1002229460520F0
:1047A0000CF08AFE0021D9F800001BF01DFD30B985
:1047B000264B04A941F8043D4846FFF78DFF002130
:1047C000D8F800001BF010FD68B9214D214BD5F839
:1047D0003890AB631D4B04A941F8043D4046FFF7F8
:1047E0007BFFC5F83890002138681BF025FD60B1CB
:1047F00024B10022062011460CF05EFE164B04A9DF
:1048000041F8043D3846FFF767FF002C94D003239E
:1048100000220C4D114695F900802B700A4B0720A1
:104820001A700CF049FE0D4B93F900301BB90120B2
:10483000FFF734FBF7E7012B85F80080D3D07BE747
:10484000D22103087D230020002300200000C04067
:10485000783000200000C841000040407023002054
:104860002DE9F743814610460E461446FFF708FF30
:10487000054648B926B10246014609200CF01CFE47
:10488000284603B0BDE8F08326B10022214603206C
:104890000CF012FE154B02AC0093154B684644F821
:1048A000043D2146FFF718FF41F28830FFF7C2FCB4
:1048B000104E114B114F2146684600930197FFF7A8
:1048C0000BFFD6F83880B763D9F800302146009343
:1048D0000B4B68460193FFF7FFFE0020C6F83880B7
:1048E000FFF750F96420FFF7A5FCC9E7000050C1AD
:1048F00000007042783000200000A8410000C8414C
:10490000000020412DE9F7433C4D1F462B7880469F
:104910008946164623B10024204603B0BDE8F08343
:10492000374B1B7818070FD4002110681BF05CFC74
:1049300050B9344B1C783CB9334BB3F90820334B96
:10494000B3F900309A423FDB0123314A2B701378D0
:1049500059074AD410F020FE2E4C2F4B0FCB84E881
:104960000F0013F05DFD0021D8F800001BF03CFCA7
:10497000B0B9244B1B7863B9234B002158681BF056
:1049800097F91BF079FC214B00B2B3F90030984243
:1049900006DB224B02A941F8043D4046FFF79CFE8E
:1049A000072012F015FE18B94946022010F016F93A
:1049B000002130681BF018FCE8B902223946304665
:1049C000FFF74EFF0124A7E7FFF788FB1448FFF726
:1049D00079FB002F9FD02146224609200CF06CFD68
:1049E000214610480FF05CFD96E76FF382031370C9
:1049F00002232B70AEE701248EE700BF6423002062
:104A000001230020D8320020A83200207E0600209A
:104A1000683700204C230020D82800200000704276
:104A2000292203083A220308002210B50446114641
:104A3000904214BF042002200CF03EFDFFF74EFB15
:104A40000448054B002C08BF1846BDE81040FFF78E
:104A500039BB00BFD2210308F42103082DE9F84F28
:104A600089468346FFF7E0FF01214846FFF7C8FD6E
:104A7000244A254C1368254F03F52F43C833236080
:104A800000232371032397F900A03B700123904674
:104A90001F4D2B702B7883B300214846FFF7B0FDE4
:104AA000237933B300220A2011460CF005FDFFF7ED
:104AB00015FB1848FFF706FB2E781EB10120FFF703
:104AC000EDF9F9E730462660267115F0EBFF304628
:104AD000FFF7D6FD5846FFF7A7FF0121D8F80030B1
:104AE000484603F52F43C833236026712970FFF72A
:104AF00087FD0120FFF7D2F9CCE787F800A0BDE8D9
:104B0000F88F00BFCC380020A03200207D23002089
:104B1000002300200C2203082DE9F0433B4C99466A
:104B2000237889B006460F469046002B6AD00020B5
:104B3000374B1D791860187115F0B4FF7DB9354BEE
:104B40001B7863B9344B002158681BF0B1F81BF097
:104B500093FB324B00B2B3F9003098420ADB0023DA
:104B6000CDE9015301234246009339464B46304676
:104B7000FFF7CAFD00222A4D114608200CF09CFCCC
:104B80000021E8681BF03AFB06AE30B1254B3146F8
:104B900005F10C000693FFF79FFD95E80300224AFC
:104BA00008AB43F80C2D86E803001946304612F096
:104BB000ABFA1E4B31461E48069312F0AFFAEB6873
:104BC0001C481D4A40F80C3FD36014F0F7FA00224D
:104BD000092011460CF070FC2378013BDBB22370F6
:104BE00023B118F0DBFA2378013B2370134B93F9C0
:104BF0000030022B01D110F013FD00200FF066FEF3
:104C000008F080FF09B0BDE8F08300BF64230020F6
:104C1000A0320020D8320020A83200207E060020DA
:104C20004C230020000070420000C8420000A04059
:104C300054230020E8280020D8280020B428002091
:104C400010B50B6804461B69084698472379C0F3E2
:104C5000400210F01E0F60F3000362F3410314BF23
:104C60000122002262F38203C0F304426271C0F3A6
:104C70008072206062F34513C00F60F386136FF3F8
:104C8000C7132371204610BD0A3908B509291CD85D
:104C9000DFE801F0051B0E1B1B1B1B1B1C1419F06E
:104CA000FEF9BDE8084001460A220A48FBF7F2BDBA
:104CB00019F097F8BDE80840FFF788BA19F040F8F6
:104CC00018B12A210348FEF7FAFE08BD19F041F891
:104CD000F6E700BF7C1000200B2908B508D119F0B9
:104CE0004CFBBDE8084001460A221048FBF7A8BD6E
:104CF000093907290CD8DFE801F0150B0B0B040C60
:104D00000F1219F05CF818B12A210848FEF7D7FEF7
:104D100008BD19F04BF8F6E719F03FF8F3E719F082
:104D200033F8F0E719F054F8DBE700BF7C100020FF
:104D300008B509210148FEF7C2FE08BD7C1000201D
:104D400008B558210148FEF7BAFE08BD7C100020C6
:104D500008B559210148FEF7B2FE08BD7C100020BD
:104D600008B55A210148FEF7AAFE08BD7C100020B4
:104D700008B545210148FEF7A2FE08BD7C100020C1
:104D8000F7B5044617461E469DF82050002900F04E
:104D900033840921BA48FEF792FE162C00F2DD8317
:104DA000DFE814F01700DB03380061009200C50053
:104DB00027017A01DB03B401DB03F301DB033302D8
:104DC0006402DB03DB03AD02EA021203480379034A
:104DD000AA03FFF7B5FF002F00F062840921A8485D
:104DE000FEF76DFEFFF7B4FF002E00F0A08409214E
:104DF000A348FEF764FEFFF7B3FF2DB10921A048D9
:104E0000FEF75DFEFFF7B4FF0A219D48FEF757FE4F
:104E100003B0F0BD9B4819F030F9FFF7D7F9002F28
:104E200000F03E8409219648FEF749FE964819F0A5
:104E300024F9FFF7CBF9002E00F07984092190487E
:104E4000FEF73DFE914819F018F9FFF7BFF9002D64
:104E5000DAD009218A48FEF732FE8D4819F00DF9A3
:104E6000FFF7B4F9D0E7874B0A22B3F8481084481B
:104E7000FBF7E6FC002F00F0138409218048FEF7C1
:104E80001EFE814B0A22B3F848107D48FBF7D8FC80
:104E9000002E00F04C8409217948FEF710FE7B4B70
:104EA0000A22B3F848107648FBF7CAFC002DABD0B5
:104EB00009217348FEF703FE0A22754BB3F8481028
:104EC0006F48FBF7BDFC9FE76E4819F024FB0A22F0
:104ED00001466B48FBF7B4FC002F00F0E183092189
:104EE0006748FEF7ECFD684819F015FB0A220146F9
:104EF0006348FBF7A5FC002E00F0198409216048E7
:104F0000FEF7DDFD614819F006FB0A2201465C4808
:104F1000FBF796FC002D3FF477AF09215848FEF7C8
:104F2000CEFD5B4819F0F7FA0A220146C8E755485A
:104F300019F0F1FA1AF06CFF1AF02AFB4EA3D3E92C
:104F400000231AF07DFB0023024600934C480B46D9
:104F5000FBF76EFD002F00F0A38309214848FEF700
:104F6000AEFD494819F0D7FA1AF052FF1AF010FBBB
:104F700041A3D3E900231AF063FB00230246009308
:104F80003F480B46FBF754FD002E00F0D08309216B
:104F90003B48FEF794FD3D4819F0BDFA1AF038FF82
:104FA0001AF0F6FA34A3D3E900231AF049FB0023E0
:104FB0000246009332480B46FBF73AFD002D3FF4C2
:104FC00023AF09212E48FEF77AFD314819F0A3FAE4
:104FD0001AF01EFF1AF0DCFA27A3D3E900231AF017
:104FE0002FFB00230246009325480B46FBF720FDCC
:104FF0000AE7244818F050FF0A2201462048FBF730
:1050000049FC2448FFF75EF8002F00F0498309218E
:105010001B48FEF754FD1C4818F03EFF0A220146CB
:105020001748FBF737FC1B48FFF74CF8002E00F041
:105030007E8309211248FEF742FD144818F02CFF28
:105040000A2201460E48FBF725FC1248FFF73AF802
:10505000002D3FF4D9AE09210948FEF730FD0C4878
:1050600018F01AFF01460A220548FBF713FC09480D
:10507000FFF728F8C8E600BF8FC2F5285C8FF63F1F
:105080007C100020B031002000320020503200207F
:105090006031002076250308AD4818F0F9FE0A2299
:1050A0000146AC48FBF7F6FBAB48FFF70BF8002FC7
:1050B00000F0F6820921A748FEF701FDA74818F085
:1050C000E7FE0A220146A348FBF7E4FBA248FEF7ED
:1050D000F9FF002E00F02B8309219E48FEF7EFFC1C
:1050E0009F4818F0D5FE0A2201469A48FBF7D2FBEA
:1050F0009948FEF7E7FF002D3FF486AE0921954859
:10510000FEF7DDFC974818F0C3FEABE7904818F0B7
:105110005FFE0A2201468F48FBF792FB8E48FEF79E
:10512000D1FF002F00F0BC8209218A48FEF7C7FC9E
:105130008A4818F04DFE0A2201468648FBF780FB9C
:105140008548FEF7BFFF002E00F0F182092181485B
:10515000FEF7B5FC824818F03BFE0A2201467D4866
:10516000FBF76EFB7C48FEF7ADFF002D3FF44CAE25
:1051700009217848FEF7A3FC7A4818F029FE0A2294
:1051800001467448FBF75CFB71E7714818F098FD25
:10519000754A764B002814BF10461846FEF792FF5A
:1051A000002F00F07D8209216A48FEF788FC6B48D9
:1051B00018F086FD6C4A6D4B002814BF1046184647
:1051C000FEF780FF002E00F0B28209216148FEF751
:1051D00076FC634818F074FD634A644B002814BFE2
:1051E00010461846FEF76EFF002D3FF40DAE092164
:1051F0005848FEF764FC5B4818F062FD5A4A5B4B66
:10520000002814BF1046184632E7514819F0E4F957
:105210000A2201464F48FBF713FB002F00F04082A3
:1052200009214C48FEF74BFC4C4819F0D5F90A22ED
:1052300001464848FBF704FB002E00F07882092164
:105240004448FEF73CFC464819F0C6F90A220146DC
:105250004048FBF7F5FA002D3FF4D6AD09213D4853
:10526000FEF72DFC3F4819F0B7F95DE6384819F014
:10527000E2F93F4B014698423DD00A223548FBF700
:1052800013FB002F00F00C8209213248FEF717FCB7
:10529000324819F0D0F9364B0146984200F0E681C9
:1052A0000A222C48FBF700FB002E00F04082092167
:1052B0002848FEF704FC2A4819F0BDF92C4B01469A
:1052C000984200F027820A222248FBF7EDFA002DCF
:1052D0003FF49AAD09211F48FEF7F1FB214819F070
:1052E000AAF9234B0146984200F05C820A22194831
:1052F000FBF7DAFA88E51F48FEF7E4FEC1E7144839
:1053000018F0FAFCFEF762FF002F00F0C9810921B6
:105310001048FEF7D4FB114818F0EEFCFEF756FFDC
:10532000002E00F0048209210A48FEF7C8FB0C4851
:1053300018F0E2FCFEF74AFF002D3FF465AD0921AD
:105340000448FEF7BCFB074818F0D6FC88E500BF10
:10535000B03100207C1000207625030800320020A8
:105360005032002060310020692503086F250308B2
:10537000FFFF0F007A250308C14B93F84C00FEF79E
:1053800025FF002F00F08C810921BE48FEF797FB16
:10539000BD4B93F84C00FEF719FF002E00F0C781BB
:1053A0000921B848FEF78BFBB84B93F84C00FEF789
:1053B0000DFF002D3FF428AD0921B248FEF77FFB19
:1053C000B34B93F84C004BE5AD4818F089FC0A222A
:1053D0000146AC48FBF75EFA002F00F0618109211D
:1053E000A848FEF76CFBA84818F07AFC0A22014690
:1053F000A448FBF74FFA002E00F099810921A1483B
:10540000FEF75DFBA14818F06BFC0A2201469D489F
:10541000FBF740FA002D3FF4F7AC09219948FEF75D
:105420004EFB9B4818F05CFC0A2201469548FBF7AE
:1054300031FAE9E4924819F0DDF80A220146914870
:10544000FBF728FA002F00F02B8109218D48FEF789
:1054500036FB8D4819F0CEF80A2201468948FBF741
:1054600019FA002E00F0638109218648FEF727FB18
:10547000864819F0BFF80A2201468248FBF70AFA6B
:10548000002D3FF4C1AC09217E48FEF718FB80488F
:1054900019F0B0F8C8E77A4819F052F80A22014624
:1054A0007848FBF7CDF9002F00F0FA800921754804
:1054B000FEF705FB744819F043F80A2201467148CB
:1054C000FBF7BEF9002E00F0328109216D48FEF78E
:1054D000F6FA6E4819F034F80A2201466948FBF7DB
:1054E000AFF9002D3FF490AC09216648FEF7E7FACA
:1054F000674819F025F817E5614819F028F80A22DD
:1055000001466048FBF7C6F9002F00F0C980092169
:105510005C48FEF7D4FA5C4819F019F80A220146F3
:105520005848FBF7B7F9002E00F0018109215548D2
:10553000FEF7C5FA554819F00AF80A220146514803
:10554000FBF7A8F9002D3FF45FAC09214D48FEF7A9
:10555000B6FA4F4818F0FBFF66E7012C43D0172C32
:1055600046D1474818F006FF0A2201464548FBF796
:1055700091F9002F00F0948009214248FEF79FFA2C
:10558000012C77D0172C40F087803F4818F0F2FEAE
:105590000A2201463B48FBF77DF9002E00F0C78048
:1055A00009213848FEF78BFA012C00F0B780172C40
:1055B00040F0B980354818F0DDFE0A220146314836
:1055C000FBF768F9002D3FF41FAC09212D48FEF7C9
:1055D00076FA012C00F0E880172C40F0EA802C4885
:1055E00018F0C8FE20E7264B0A2293F84010BDE7CA
:1055F00021462348FFF748FB002F51D009212148BD
:10560000FEF75DFA162CBBD801A353F824F000BFB7
:10561000E54D0008815500082D4E0008834E000816
:10562000E74E0008634F000817500008BD500008FF
:10563000815500083151000881550008AF5100081C
:105640008155000829520008915200088155000830
:10565000815500081753000891530008E7530008CC
:1056600053540008B5540008175500080948FEF7C0
:1056700029FD19E6044B0A2293F840108AE700BF7F
:10568000B03100207C100020003200205032002079
:10569000603100207A25030821464948FFF7F4FAD3
:1056A000002E44D009214748FEF709FA162C3FF690
:1056B0007BAF01A353F824F0F74D0008A95500086B
:1056C000454E00089F4E0008054F0008974F000800
:1056D0003B500008E1500008A9550008555100084A
:1056E000A9550008D3510008A955000847520008E1
:1056F000B7520008A9550008A95500082F53000803
:10570000A95300080554000871540008D354000838
:10571000355500082C48FEF7D5FCD8E52B4B0A225E
:1057200093F840104BE721462848FFF7ADFA002DCB
:105730003FF46AAB09212348FEF7C1F9162C3FF666
:1057400048AF01A353F824F0054E0008D3550008D4
:105750005B4E0008B94E0008234F0008CB4F0008ED
:105760005F50000805510008D35500087951000822
:10577000D3550008F7510008D355000865520008BA
:10578000DD520008D3550008D355000847530008E0
:10579000C1530008235400088F540008F154000836
:1057A00053550008084863E4094B0A2293F8401057
:1057B0003CE621460648FFF767FAFFF725BB00BF26
:1057C000003200207C1000207A250308503200208F
:1057D000603100202DE9F041044617461E469DF831
:1057E0001850002900F0278209219848FEF767F930
:1057F0000C2C00F21C82DFE814F00D002E00640077
:105800009600C700F800330164011A021A021A0256
:105810001A029501FFF794FA002F00F03582092152
:105820008A48FEF74CF9FFF793FA002E00F05482F5
:1058300009218648FEF743F9FFF792FA2DB10921B5
:105840008248FEF73CF9FFF793FA0A217F48FEF7FA
:1058500036F9BDE8F0817E4818F0CCFA18B92A2153
:105860007A48FEF72CF9002F00F00E8209217748C4
:10587000FEF725F9774818F0BDFA18B92A217348C0
:10588000FEF71DF9002E00F0278209216F48FEF770
:1058900016F9714818F0AEFA18B92A216B48FEF7CC
:1058A0000EF9002DD1D009216848FEF708F96B48A0
:1058B00018F0A0FA0028C8D12A216448FEF7FFF8A2
:1058C000C3E7634818F057FA18B12A215F48FEF77A
:1058D000F6F8002F00F0D88109215C48FEF7EFF8B8
:1058E0005C4818F048FA18B12A215848FEF7E7F842
:1058F000002E00F0F18109215448FEF7E0F85648E7
:1059000018F039FA18B12A215048FEF7D8F8002DBE
:105910009BD009214D48FEF7D2F8504818F02BFAD9
:10592000002892D0C8E74A4818F01CFA18B12A217A
:105930004648FEF7C4F8002F00F0A681092143482D
:10594000FEF7BDF8434818F00DFA18B12A213F4878
:10595000FEF7B5F8002E00F0BF8109213B48FEF7A5
:10596000AEF83D4818F0FEF918B12A213748FEF785
:10597000A6F8002D3FF469AF09213448FEF79FF8DF
:10598000364818F0EFF9CBE7314818F0D0F918B1E4
:105990002A212E48FEF793F8002F00F07581092187
:1059A0002A48FEF78CF82B4818F0C1F918B12A21C3
:1059B0002648FEF784F8002E00F08E810921234846
:1059C000FEF77DF8244818F0B2F918B12A211F48D3
:1059D000FEF775F8002D3FF438AF09211B48FEF79C
:1059E0006EF81E4818F0A3F99AE7194818F096F9CE
:1059F00018B12A211548FEF762F8002F00F0448103
:105A000009211248FEF75BF8124818F087F918B11F
:105A10002A210E48FEF753F8002E00F05D8109217F
:105A20000A48FEF74CF80C4818F078F918B12A210A
:105A30000648FEF744F8002D3FF407AF092103485C
:105A4000FEF73DF8054818F069F969E77C10002079
:105A5000B0310020003200205032002060310020A0
:105A6000B34818F049F918B12A21B248FEF727F8CF
:105A7000002F00F009810921AE48FEF720F8AE485A
:105A800018F03AF918B12A21AA48FEF718F8002EA2
:105A900000F022810921A748FEF711F8A74818F065
:105AA0002BF918B12A21A348FEF709F8002D3FF47D
:105AB000CCAE09219F48FEF702F8A14818F01CF966
:105AC0002EE79B4818F021F918B12A219948FDF7D3
:105AD000F6FF002F00F0D88009219648FDF7EFFF70
