:020000040800F2
:1000000000C00020A5030008210E0008250E0008EE
:10001000290E00082D0E0008310E00083B150008BF
:100020003B1500083B1500083B1500083B15000870
:100030003B1500083B1500083B1500084D1500084E
:100040003B1500083B1500083B1500083B15000850
:100050003B1500083B150008750E0008950E0008BA
:10006000B50E0008D50E0008F50E0008CD0C0008EE
:10007000E50C0008FD0C0008190D0008350D0008FE
:10008000510D00086D0D0008D90A00083B15000845
:10009000C52000083B1500083B150008150F000897
:1000A000311800085518000879180008B118000820
:1000B0000519000875190008E51900082D12000837
:1000C0004512000839120008511200083B150008BB
:1000D0003B150008311E0008811E0008D11E0008D3
:1000E000590F00083B1500083B1500080D1B0008C0
:1000F000311B0008551B00088D1B0008310B000840
:100100003B1500083B150008551A00083B15000870
:10011000211F0008711F0008C51A0008E91A00080D
:10012000890D0008A10D0008B90D0008D50D0008C3
:1001300010B5054C237833B9044B13B10448AFF321
:1001400000800123237010BD70100020000000000B
:10015000F820030808B5034B1BB103490348AFF36C
:10016000008008BD0000000074100020F820030883
:1001700010B512490A2309220968114800F0EAF96A
:1001800010490323022209680F4800F0E3F90F49E0
:100190001B231A2209680E4800F0DCF90D492B23B5
:1001A0002A2209680C4800F0D5F9BDE810400B4937
:1001B00032232C2209680A4800F0CCB984020020BE
:1001C0008C10002088020020A41000208C02002047
:1001D000BC1000207C020020D410002080020020EF
:1001E000EC10002010B5044600F0F8FC034B20464C
:1001F000BDE81040197800F058BC00BF1600002080
:10020000F8B50446056801F0FDF9002223685B019A
:1002100003F184431A6080232B600123AB622A61BF
:10022000EA606B61637973B1012B0FD001222368FF
:100230005B0103F18443C3F8802223685B0103F16F
:1002400084431A60F8BD4FF400436B644FF6FF72AD
:1002500000252368DA626E1CF7B23946204601F0A9
:10026000E6F9E8B148F6FF72236817F0010F03F1D1
:10027000340343F8252014BF6FF0FF026FF47F4270
:1002800023684FEA650503F1180353F8251001EAC6
:10029000020114BF68224FF4D0420A4343F82520DC
:1002A000042E3546D7D1C1E77047000038B5002588
:1002B000264A274C1368022043F01003136000F015
:1002C0006DFE002001F02EF865602368182023F4ED
:1002D0000023236001F032F8102001F02FF800F025
:1002E00043F8A560102001F01DF8102001F034F84B
:1002F0000028FAD000F039F8164801F039F8182033
:1003000001F010F8182001F027F80028FAD0022098
:1003100000F0F8FF00214FF0006000F0C9FF0E4828
:1003200001F00CF900F038F80C4B188800F03EFC96
:100330000B4800F03FFC0B4801F03EF900F02EF8AE
:1003400000F02DF8FFF7B0FF38BD00BF00200240DD
:10035000001002400C0000203F1901001400002092
:10036000E5010008010200087047002108B50846B1
:1003700001F03EF84FF48061012001F039F80021CE
:10038000022001F035F82D2001F042F8BDE80840C8
:100390000021032001F02CB800F014BE704700F0DB
:1003A00050BE000001498D460149084700C00020A9
:1003B000B503000808B5114B1A68114B9A4213D1C6
:1003C000104B114A934213D32AF058FF00221146D2
:1003D000104602F0C7FD0D4B7BB12AF0EBFC52F842
:1003E000041B043343F8041C09498B42F7D3E7E7A5
:1003F0000022043343F8042CE3E7FEE7608303089C
:100400000000002070100020D8390020B5AD02088F
:100410007010002010B50D4B1A680AB90C4A1A600A
:100420001A680C49891A814204DB09494442511A6D
:10043000A14207DA2AF0B8FC0C234FF0FF32036028
:10044000104610BD10441860FAE700BF04110020E8
:10045000D839002068F30328002070474FF4005378
:1004600000204B607047012070474FF0FF3070470D
:100470000020704710B50C46FFF7FAFF20700120EE
:1004800010BD704770B515460C468E18B44201D1A8
:10049000284670BD14F8010BFFF7F3FFF6E7FEE7FF
:1004A000C38882889B1AC2888188914282BF028950
:1004B00001329B1898B2704710B50369044658681A
:1004C000FFF7EEFF88B123695B689A88196892B2DA
:1004D000885C99881A89C0B292B28A420FBF002202
:1004E0009A88013292B29A8010BD4FF0FF30FBE73C
:1004F00008B503695868FFF7D3FF08BD03695B6857
:100500009988DA8892B28A421FBF9A881B6892B291
:10051000985C14BFC0B24FF0FF3070470269916819
:100520008888CB889BB28342FAD1126813685B0635
:10053000FCD5704713B504698DF8071001220DF141
:100540000701204601F097FB0028F7D0012002B0F8
:1005500010BD000030B54FF0000C4FF47A75C0E9C3
:1005600001C5034D016105600275437530BD00BFD3
:10057000A03603082DE9F74303690446DB68884683
:100580008B42914625D3067D134D3601AB19477D2D
:10059000586818B10022597B01F000F9206901F078
:1005A0001FFB39016A18127BAB19CDF804901B7B35
:1005B000695800932069AB5901F0D9FB2069424684
:1005C000002101F0FAFB206903B0BDE8F04301F01F
:1005D0002DBB03B0BDE8F083683303080022FFF7AA
:1005E000C9BF0000044B02791B789A4202BF034B3B
:1005F0001B681860704700BF281100202C110020D4
:10060000002310B50446036072B6054B193119700A
:10061000044B1860044800F0CFFF62B6204610BDBE
:10062000281100202C110020E50500080022036895
:100630001B685B0103F184431A6070470122036861
:100640001B685B0103F184431A607047036801393A
:100650001B6889B29962704703681A68D36A9BB2B3
:10066000994228BF19465162704738B561B90122D5
:1006700003681B68996203681B68DA6203681B6879
:10068000DC6AA4B2204638BD48224A434FF6FF71C7
:10069000B2FBF1F1013189B202EB5102B2FBF1F28E
:1006A00094B2FFF7D3FF036892B21B68DA62E9E7FE
:1006B000012203681B685B0103F18443C3F88022B5
:1006C0007047000008B501211048FFF799FF02218B
:1006D0000F48FFF795FF03210E48FFF791FF042114
:1006E0000D48FFF78DFF05210C48FFF789FF062114
:1006F0000B48FFF785FF07210A48FFF781FFBDE898
:10070000084008210848FFF77BBF00BF0811002000
:100710000C110020101100201411002018110020CD
:100720001C1100202011002024110020F8B50646DD
:100730000C4615468F18A74206D0336814F8011BE3
:100740001B6830469847F6E72846F8BD70B5054661
:100750000C46084649B12BF04DFE2B680246214657
:100760002846BDE870409B68184770BD0368C9B251
:100770001B68184703685B68184738B50D210546A4
:10078000FFF7F4FF0A2104462846FFF7EFFF204455
:1007900038BD38B50546FFF7EDFF04462846FFF79C
:1007A000ECFF204438BD2DE970439046994690B047
:1007B00058EA090306469DF8585007D13021FFF743
:1007C000D5FF0125284610B0BDE8708300244046BF
:1007D00049462A46002321F0B5F98046894601346E
:1007E0000DEB040303F8012C58EA0903EFD10025AF
:1007F000013C1DF804103046092994BF30313731CF
:1008000049B2FFF7B3FF0544002CF1D1DAE72DE937
:10081000F0411D46002A75F1000307461446069E66
:1008200005DA2D21FFF7A2FF644265EB4505F6B21C
:10083000069622462B463846BDE8F041FFF7B3BF87
:1008400007B5CB1700920A46FFF7E1FF03B05DF84A
:1008500004FB38B50546FFF7F3FF04462846FFF7CB
:100860008CFF204438BD07B5CB1700920A46FFF72E
:10087000CEFF03B05DF804FB37B5CB1700920A46F4
:100880000546FFF7C4FF04462846FFF776FF2044DD
:1008900003B030BD07B5D2B200920023CAB2FFF751
:1008A00082FF03B05DF804FB07B5D2B200920023CB
:1008B0000A46FFF778FF03B05DF804FB37B5D2B204
:1008C000009200230A460546FFF76DFF04462846BE
:1008D000FFF753FF204403B030BD000000000000CC
:1008E0002DE9F34717461E4682460022002338466C
:1008F000314620F005FD9DF828504FF00104F8B175
:1009000043A3D3E900233846314620F0EFFC00B979
:100910000446E4B20022002338463146C4B120F038
:10092000D1FC18B12D215046FFF720FF04463C4969
:100930005046FFF71FFF0444204602B0BDE8F08791
:1009400035A3D3E900233846314620F0C5FCDEE765
:1009500020F0B8FC30B12D215046FFF707FF0446C8
:1009600006F100464FF0000800202E495FFA88F398
:100970009D4206D900222C4B20F05CFB08F10108B7
:10098000F4E73A46334620F075F806460F4621F064
:10099000F1F80A230246009380460B4650468946EA
:1009A000FFF735FF0444002DC6D04046494620F0ED
:1009B000E9F902460B463046394620F059F806461A
:1009C0000F4650461949FFF7D5FE0444013DEDB2EC
:1009D000FF2DB1D0144B00223046394620F000FAEA
:1009E0000F46064620F096FC0A22014680465046F5
:1009F000FFF726FF0444404620F088F902460B46E4
:100A00003046394620F034F806460F46DEE700BF90
:100A1000800350726C92DF43800350726C92DFC38C
:100A2000BC3603080000E03F000024408E5D030850
:100A30009DF800100091FFF753BF37B59DF81810CF
:100A400005460091FFF74CFF04462846FFF795FE48
:100A5000204403B030BD000030B504460D4687B0D9
:100A6000064901A82BF0B2FA22462B4601A90A98A2
:100A70002BF0ACFA0A9807B030BD00BFCB360308A4
:100A8000FEE7704710B50446007900F07FFC20793E
:100A9000BDE8104000F092BC026841F480119368F8
:100AA00023F46023194391607047002330B51C463E
:100AB0001D4603EB4302072B01FA02F203F1010387
:100AC000D8BF15430A2B44EA0204F2D10368DD6063
:100AD00003681C6130BD000070B5144C23681B68AE
:100AE0001D68A90707D51A6822F002021A60236858
:100AF0009B6803B198476A0709D523681A68136889
:100B000023F00403136023681B6903B19847EB07C4
:100B10000BD523681A68136823F001031360236858
:100B2000DB6813B1BDE87040184770BD1C000020A1
:100B300070B5144C23681B681D68A90707D51A688F
:100B400022F002021A6023689B6803B198476A0783
:100B500009D523681A68136823F004031360236817
:100B60001B6903B19847EB070BD523681A68136814
:100B700023F0010313602368DB6813B1BDE8704004
:100B8000184770BD24000020012203685B0103F1B7
:100B9000844303F58673191F1A6018680028FCD176
:100BA00043F8042C0B68002BFCD17047014604204D
:100BB00000F01EBC10B50446054B1868A047054B55
:100BC0001868A047044B18682346BDE81040184732
:100BD0001C000020200000202400002010B5044646
:100BE000FFF750FF20464FF46021FFF755FF012229
:100BF000236820465B0103F18443C3F85021236836
:100C00005B0103F18443C3F80021BDE81040FFF706
:100C1000BBBF007900F0BABB142301395943006807
:100C20000830435823F4405343EA0232425070479D
:100C3000036814200833013900FB01314A60704712
:100C400000EBC10340F8312093F90430002B08DB9E
:100C50000122591103F01F0302FA03F3014A42F87B
:100C60002130704700E100E014220368013902FBE3
:100C700001310123490101F18441C1F8003170477C
:100C800014220368013902FB01310023490101F1FB
:100C90008441C1F8003170472DE9F04114251C460C
:100CA00090464B1E5D430668FFF7EAFF9DF81C3037
:100CB000240244EA8324089B08361C43069B7719C8
:100CC0007451FB60C7F80880BDE8F08110B5044B93
:100CD0001C68A3681BB19847012223685A6010BDA5
:100CE0006000002010B5044B1C6823691BB19847B5
:100CF000102223685A6010BD6000002010B5054B1B
:100D00001C68A36923B198474FF4807223685A6026
:100D100010BD00BF6000002010B5054B1C68236AA1
:100D200023B198474FF4805223685A6010BD00BF2A
:100D30006000002010B5054B1C68A36A23B19847DA
:100D40004FF4803223685A6010BD00BF600000205D
:100D500010B5054B1C68236B23B198474FF48012E4
:100D600023685A6010BD00BF6000002010B5054B1D
:100D70001C68A36B23B198474FF0807223685A60B8
:100D800010BD00BF6000002010B5044B1C68A368B4
:100D90001BB19847012223685A6010BD64000020EF
:100DA00010B5044B1C6823691BB1984710222368B7
:100DB0005A6010BD6400002010B5054B1C68A36983
:100DC00023B198474FF4807223685A6010BD00BF6A
:100DD0006400002038B5104C636CD8070BD523682D
:100DE000D90408D50D4B1D682B6A23B198474FF4E1
:100DF00080522B685A60A36DDA070BD52368DB039A
:100E000008D5064B1C68A36A23B198474FF480327B
:100E100023685A6038BD00BF00040240640000200F
:100E2000012007E0022005E0032003E0042001E0A8
:100E30000520FFE70D4A0121116072B60C4A00211E
:100E40001160074902B4084902B486B005498E46CC
:100E5000704700BFAFF30080AFF30080AFF30080B6
:100E600000000061F9FFFFFF312F000814ED00E0E2
:100E700010E000E008B5054A136833B150689847A0
:100E80000122034B5A6100BF00BF08BD3011002092
:100E90000004014008B5054A936833B1D06898470B
:100EA0000222034B5A6100BF00BF08BD3011002071
:100EB0000004014008B5054A136933B150699847E9
:100EC0000422034B5A6100BF00BF08BD301100204F
:100ED0000004014008B5054A936933B1D0699847C9
:100EE0000822034B5A6100BF00BF08BD301100202B
:100EF0000004014008B5054A136A33B1506A9847A7
:100F00001022034B5A6100BF00BF08BD3011002002
:100F1000000401402DE9F041002705240C4DD5F8CF
:100F200014800126A64018EA060F08D0094BE100FC
:100F300053F834201AB10B445868904737430134B2
:100F40000A2CEED16F6100BF00BFBDE8F08100BF89
:100F500000040140301100202DE9F04100270A244F
:100F60000C4DD5F814800126A64018EA060F08D0CB
:100F7000094BE10053F834201AB10B4458689047EC
:100F800037430134102CEED16F6100BF00BFBDE8C4
:100F9000F08100BF0004014030110020034A1368B3
:100FA00023F0070318431060704700BF0020024081
:100FB00010B50446007900F0E9F92079BDE8104049
:100FC00000F0FCB908B50748FFF7F2FF0648FFF745
:100FD000EFFF0648FFF7ECFFBDE808400448FFF7C5
:100FE000E7BF00BFD8000020E0000020E80000209C
:100FF000F000002070B50F250368CE0801F007004F
:10100000840053F82600092A05FA04F520EA0505AC
:1010100014BF10460820A0402843082A43F82600A1
:1010200007D10120DA6800FA01F122EA0101D96052
:1010300070BD092AFCD10122D86802FA01F10143EE
:10104000F5E708B5032000F0A1F9BDE8084003204A
:1010500000F0B4B903681A6812F4985FFBD11A68FB
:1010600042F480721A60704703681A6812F4985F3D
:10107000FBD11A6842F400721A600268136813F414
:10108000985FFBD17047000070B5026845685169F0
:1010900092695A4AAE781268CB07044606F00106F8
:1010A000C26014D50023EB8000F0D8F822685368A2
:1010B00043F48063536026B12268136843F480636D
:1010C000136000212B88226846EA4303136111F064
:1010D0000A0F10D0AB88002E45D0012B0AD1226810
:1010E0002046136823F480631360A38B012B37D948
:1010F000FFF7B0FF002101F08402802A03D1A38B07
:10110000002B49D1002101F08402842A0DD1A18B4A
:101110002046002954D0FFF79DFF22685369D90764
:10112000FCD5002163680C3363604B0661D52368EE
:10113000AA681969EB88581CE880D154AB88EA8802
:10114000591E8A424BD122682046136823F48063DB
:101150001360A38B022B3ED9BDE87040FFF77ABF26
:10116000FFF782FFC6E7012B08D9EB88A9685A1C54
:10117000EA802268CB5C13613146BCE7002BFBD1CF
:101180002046FFF771FF2268536823F40073536011
:10119000022384F82330ADE7EB88A9685A1CEA8063
:1011A0002268CB5C1361EA88AB889A42AAD1226894
:1011B000536823F480635360A38B013BA383A1E7AF
:1011C000FFF752FF2268536823F400735360022331
:1011D00084F82330A9E7BDE87040FFF745BF9A4285
:1011E00007D1A38B013B9BB2A3831BB9022384F8D5
:1011F000233070BD63680C336360FAE770390020F8
:1012000008B50268536903F4706383600023536177
:1012100002689361FFF728FF0268536823F4E063D4
:101220005360FF2380F8233008BD00000148FFF71A
:101230002BBF00BFF80000200148FFF725BF00BF0B
:101240001C0100200148FFF7DBBF00BFF8000020B1
:101250000148FFF7D5BF00BF1C01002010B50446B0
:10126000002190F9210000F00FF894F922000021EC
:10127000BDE8104000F008B84AF6AA22014B1A60F7
:10128000704700BF003000400028A8BF00F1604058
:101290004FEA0111B8BF054BC9B2B5BF00F00F004E
:1012A00000F56140195480F80013704714ED00E018
:1012B00010B5002421F0604121F07F01064A01436E
:1012C000916060B20F210134FFF7DEFF3C2CF8D1B2
:1012D000F02382F8233010BD00ED00E00449054BF7
:1012E000CA6802F4E0621343CB60BFF34F8FFEE79E
:1012F00000ED00E00400FA05014B13F81000704700
:10130000F0360308064B5A6822F0030202435A6083
:1013100080005A6802F00C028242FAD1704700BF86
:1013200000100240030AC2B2012003F1804303F51A
:101330000433196890400843186070470121030A7C
:1013400003F1804303F504331A68C0B201FA00F0D8
:1013500022EA000018607047030A03F1804303F596
:1013600004331A680223C0B203FA00F01040704739
:10137000054A0168536823F474130B4341680968F4
:101380000B435360704700BF0010024010B5044685
:10139000FFF7B2FF074B53F82020074800EB44004B
:1013A000437803EBC20301229B0003F184431A60DC
:1013B00010BD00BF40010020F036030810B5044600
:1013C000FFF79AFF084B53F82020084800EB440031
:1013D000437803EBC20301229B0003F184431A60AC
:1013E00000221A6010BD00BF58010020F03603082B
:1013F00010B5054A054C536854F8200023EA000351
:101400000B43536010BD00BF00100240DC360308E0
:1014100010B50446FFF770FF074B53F8202007482C
:1014200000EB4400437803EBC20300229B0003F16E
:1014300084431A6010BD00BF4C010020F036030841
:1014400001EBC000800000F184400260704710B5DD
:1014500004460079FFF79AFF2079BDE81040FFF7B6
:10146000ADBF012206210068FFF7EABF0022062176
:101470000068FFF7E5BF10B50C46016803464A68EF
:1014800022F0E0024A6002681268624012F4205FB3
:1014900001D0FFF7EBFF1A6818461460BDE8104052
:1014A000FFF7DFBF134343F004031943FFF7E3BF24
:1014B0000122006811460430FFF7C2BF0068002215
:1014C00001210430FFF7BCBF006801220021043075
:1014D000FFF7B6BF002203685B0103F18443C3F842
:1014E00080207047F8B51046069C9DF81C709DF84A
:1014F00020609DF8245081B10B2239462046FFF729
:1015000079FD042231462046FFF774FD0B2229465F
:101510002046BDE8F840FFF76DBD19460422FFF7ED
:1015200069FD042239462046FFF764FD0B2231464F
:101530002046FFF75FFD0422E9E7FEE70722024BA2
:1015400058601A60704700BF10E000E0044A13685A
:1015500001331360034B1B6803B11847704700BF8A
:1015600070390020B011002011F0010F70B501F1A9
:10157000FF340DBF082500256FF0FF016FF47F4198
:101580000068C4F34004183050F82460134331401D
:10159000AB400B4340F8243070BD02684B1E02F193
:1015A000404220329B0003EBC20301229B0003F167
:1015B00084431A607047000010B504460948A047EC
:1015C0000948A0470948A0470948A0470948A0473B
:1015D0000948A0470948A0472346BDE810400848ED
:1015E000184700BF84010020AC010020D00100207A
:1015F000F4010020180200203C02002048020020D4
:101600005402002010B504460079FFF7BFFE207990
:10161000BDE81040FFF7D2BE0023026813600268E5
:10162000D3604279012A9CBF026813627047037934
:101630001E2B10D9212B0ED0202B0ED9222B01D0FE
:10164000252B04D102298CBF0020012070474B1E9E
:1016500058425841704701207047002070470000F1
:101660008B1C40F82320012342798B4010B5DB43CB
:10167000EAB1012A41F65F6218BF0122134001223C
:1016800004682361036803F140430C3301EBC30397
:101690009B0003F184431A60427903793ABB07291E
:1016A00015D8DFE801F007151515151A1A1F41F6B0
:1016B000FF62E3E71A2B0CBF19232C2301225909DF
:1016C00003F01F0302FA03F3254A42F8213010BD4C
:1016D0001A2B0CBF1B232E23F0E71A2B0CBF1A2347
:1016E0002D23EBE71A2B0CBF18232B23E6E71B3B1C
:1016F0000C2BECD801A252F823F000BF5D170008B4
:101700003117000835170008391700083D17000881
:1017100041170008CF1600084517000849170008B0
:101720004D170008511700085517000859170008F1
:101730001D23C3E71E23C1E73223BFE73623BDE7DE
:101740003723BBE71823B9E71923B7E71A23B5E70F
:101750002B23B3E72C23B1E72D23AFE71C23ADE701
:1017600000E100E00022036803F140430C3301EB89
:10177000C3039B0003F1844302311A6040F8212027
:10178000704738B504460D4613460022FFF7ECFEBD
:1017900029462046BDE83840FFF7FFBE38B54379FB
:1017A0000546022B0C4615D0042A13D8DFE802F0B8
:1017B00003132A2D3A00FFF7D5FF0268631E02F1DA
:1017C000404220329B0003EBC20300229B0003F146
:1017D00084431A6038BD0022036803F140430C3390
:1017E00001EBC3039B0003F184431A6008236022CA
:1017F00021462846FFF7B8FE21462846BDE8384076
:10180000FFF7CBBE00231022F2E74FF2F11203687C
:101810009A61032203689A60036801225B0103F165
:101820008443D6E70122BDE83840FFF7AABF000095
:1018300010B5074A1468E36821690B401B0606D5FA
:10184000536A23B19847236923F08003236110BDB5
:101850008401002010B5074A1468E36821690B4031
:10186000DB0706D5936823B19847236923F001036A
:10187000236110BD84010020F8B50C4D2F68FE686F
:101880003B691E4016F0400403D02C6A0CB1A047FF
:101890004024B30604D5EB6913B1984744F0200403
:1018A0003B6923EA04043C61F8BD00BF84010020C9
:1018B000F8B5134D2F68FE683B691E4016F0100402
:1018C00003D0AC690CB1A0471024310704D56B6973
:1018D00013B1984744F00804720704D52B6913B17B
:1018E000984744F00404B30704D5EB6813B1984754
:1018F00044F002043B6923EA04043C61F8BD00BFE4
:1019000084010020F8B51A4D2F68FE683B691E401F
:1019100016F0400403D02C6A0CB1A0474024F30613
:1019200004D5AB6913B1984744F01004300704D5CF
:101930006B6913B1984744F00804710704D52B690B
:1019400013B1984744F00404B20704D5EB6813B10F
:10195000984744F00204F30704D5AB6813B19847E5
:1019600044F001043B6923EA04043C61F8BD00BF74
:10197000AC010020F8B51A4D2F68FE683B691E4087
:1019800016F0400403D02C6A0CB1A0474024F306A3
:1019900004D5AB6913B1984744F01004300704D55F
:1019A0006B6913B1984744F00804710704D52B699B
:1019B00013B1984744F00404B20704D5EB6813B19F
:1019C000984744F00204F30704D5AB6813B1984775
:1019D00044F001043B6923EA04043C61F8BD00BF04
:1019E000D0010020F8B51A4D2F68FE683B691E40F3
:1019F00016F0400403D02C6A0CB1A0474024F30633
:101A000004D5AB6913B1984744F01004300704D5EE
:101A10006B6913B1984744F00804710704D52B692A
:101A200013B1984744F00404B20704D5EB6813B12E
:101A3000984744F00204F30704D5AB6813B1984704
:101A400044F001043B6923EA04043C61F8BD00BF93
:101A5000F4010020F8B51A4D2F68FE683B691E405E
:101A600016F0400403D02C6A0CB1A0474024F306C2
:101A700004D5AB6913B1984744F01004300704D57E
:101A80006B6913B1984744F00804710704D52B69BA
:101A900013B1984744F00404B20704D5EB6813B1BE
:101AA000984744F00204F30704D5AB6813B1984794
:101AB00044F001043B6923EA04043C61F8BD00BF23
:101AC0001802002010B5074A1468E36821690B402A
:101AD000DB0706D5936823B19847236923F00103F8
:101AE000236110BD3C02002010B5074A1468E3686A
:101AF00021690B40DB0706D5936823B1984723691A
:101B000023F00103236110BD4802002010B5074AED
:101B10001468E36821690B401B0606D5536A23B19C
:101B20009847236923F08003236110BD54020020ED
:101B300010B5074A1468E36821690B40DB0706D536
:101B4000936823B19847236923F00103236110BDF3
:101B500054020020F8B50C4D2F68FE683B691E400A
:101B600016F0400403D02C6A0CB1A0474024B30601
:101B700004D5EB6913B1984744F020043B6923EA8C
:101B800004043C61F8BD00BF54020020F8B5134DB9
:101B90002F68FE683B691E4016F0100403D0AC6944
:101BA0000CB1A0471024310704D56B6913B19847D5
:101BB00044F00804720704D52B6913B1984744F028
:101BC0000404B30704D5EB6813B1984744F002044A
:101BD0003B6923EA04043C61F8BD00BF54020020C5
:101BE00000223F2110B50446436810309A801860E7
:101BF000DA801981A3689A80DA8004F15002198191
:101C00001A6094F89000FFF7C1FB94F99130002B13
:101C100008DB0122591103F01F0302FA03F3024A01
:101C200042F8213010BD00BF00E100E00368DA682F
:101C300042F02C02DA60DA6842F40052DA6070474F
:101C400010B5036881688C88CA8892B2A242FAD122
:101C5000DA68910402D51A685206F9D5DA6822F4D6
:101C60000052DA60426893889BB2D380826893887E
:101C70009BB2D38010BDF0B50B4606460468B5682C
:101C8000581AAF88ED88ADB2BD4204D125682D0643
:101C900001D5824210D8E36823F08003E3609042CC
:101CA000B3680DD39A88DB889BB293421EBFE3686A
:101CB00043F08003E360F0BD13F8010B6060DEE7E2
:101CC000DD889F880135BD42ECD0DF881D89ADB22B
:101CD000BD4203D19D88ADB2002DE3D0DD8811F85F
:101CE00000C01F68ADB207F805C0DF881D8901304C
:101CF000ADB2BD420FBF0025DD880135ADB2DD803C
:101D0000CDE703468288016892B2885C99881A8977
:101D1000C0B292B28A420FBF00229A88013292B2B8
:101D20009A80704738B5C38882880133934204464D
:101D30000D4607D0C28803899BB2934214D1838891
:101D40009BB28BB92046FFF7DCFFE38822689BB289
:101D5000D554E28823899BB293420FBF0023E388C6
:101D600001339BB2E38038BD4FF0FF30EDE770B533
:101D70001E460546084611460422059CFFF73AF91F
:101D80000B229DF810103046FFF734F929686302E2
:101D9000CA6803F4F05322F4F0521204120C1343F5
:101DA000CB602A682402136904F4405423F440539E
:101DB0001B041B0C1C43146170BD38B5054614464A
:101DC00011B900F0FDF8014619235943A200B1FBF7
:101DD000F2F26421B2FBF1F001FB10231B0132335C
:101DE000B3FBF1F303F00F032C6843EA00139BB23B
:101DF000A36038BD10B50446084B1868A047084BCF
:101E00001868A047074B1868A047074B1868A047F9
:101E1000064B18682346BDE810401847840200208E
:101E2000880200208C0200207C020020800200201A
:101E300010B5104CE368980607D52368990604D5B9
:101E400061680D48C9B2FFF76DFFE3681A060BD54C
:101E500023681B0608D509488288C3889BB2934231
:101E600003D0FFF74EFF606010BDE36823F08003EE
:101E7000E360F9E700380140E4110020F011002090
:101E800010B5104CE368980607D52368990604D569
:101E900061680D48C9B2FFF745FFE3681A060BD524
:101EA00023681B0608D509488288C3889BB29342E1
:101EB00003D0FFF726FF606010BDE36823F08003C6
:101EC000E360F9E700440040FC1100200812002004
:101ED00010B5104CE368980607D52368990604D519
:101EE00061680D48C9B2FFF71DFFE3681A060BD5FC
:101EF00023681B0608D509488288C3889BB2934291
:101F000003D0FFF7FEFE606010BDE36823F080039E
:101F1000E360F9E70048004014120020201200207E
:101F200010B5104CE368980607D52368990604D5C8
:101F300061680D48C9B2FFF7F5FEE3681A060BD5D4
:101F400023681B0608D509488288C3889BB2934240
:101F500003D0FFF7D6FE606010BDE36823F0800376
:101F6000E360F9E7004C0040B4110020C0110020EC
:101F700010B5104CE368980607D52368990604D578
:101F800061680D48C9B2FFF7CDFEE3681A060BD5AC
:101F900023681B0608D509488288C3889BB29342F0
:101FA00003D0FFF7AEFE606010BDE36823F080034E
:101FB000E360F9E700500040CC110020D811002068
:101FC00008B590F89000FFF797F920B10128034871
:101FD00018BF002008BD0248FCE700BF00A24A0469
:101FE0000051250230B548F28005094C226822F4E0
:101FF000804222F070022A4342402260236823F488
:10200000E04323F040032B434B40236030BD00BF2F
:10201000005C0040284B072818BF18701A78052A62
:1020200048D8DFE802F003131E232B364FF6FB716E
:10203000224A106C014011644FF43F4111640622A2
:102040001A701F4B1B685A7B1A7370474FF6FB714F
:102050001A4A106C014011644FF43F41116404228C
:1020600002E002225A7003221A7006E05A78013AFE
:10207000D2B25A705A78002AF1D070470F490A6CD0
:1020800092B242F010020A6405221A700A225A70B3
:1020900070475A78013AD2B25A705A78002AECD175
:1020A0004FF6EF720549086C02400A64044A126850
:1020B000517B11730622D7E774390020005C004081
:1020C000740500202DE9F0415F4D604A2B68546C87
:1020D0001B68A4B223405E0506D56FF48063536489
:1020E0005B4B1B685B6898472A6813682340980419
:1020F00042BF6FF40051554B596413682340D90413
:1021000006D56FF4C052514B00205A64FFF782FF8E
:102110002B681A68224012050FD54C490A6C92B2FE
:1021200042F0080042F00C0208640A641A7B5A73F9
:1021300003221A736FF4C0524A641A68224097054A
:1021400042BF6FF40071414A51641B682340DE05B1
:1021500006D56FF480723D4B07205A64FFF75AFF93
:102160002B681B681C40240403D5384C676C3B0467
:1021700001D4BDE8F0816FF4004317F00F066364EB
:1021800038D148F68003D4F8008018EA030FECD069
:102190001FFA88F32F4D304E03F440524FF4005095
:1021A00003F03003202133802A80FFF71BFFF8065D
:1021B00023680ED423F4E14323F070031B041B0CAB
:1021C000236000F09BFD31882888BDE8F041FFF7CF
:1021D00009BF18F0800FEDD123F070031B051B0D14
:1021E00018F4006F236002D000F0A6FBEBE700F0CC
:1021F00003FDE8E7B40004F1804404F5B84427681F
:1022000039040DD5236823F070031B051B0D2360D3
:102210002A6806F180439268013B52F823309847C0
:102220003A06A2D5236806F1804623F4E14323F061
:1022300070031B041B0C23602B68013E5B6853F882
:102240002630984791E700BF74050020005C0040ED
:102250007C3900207639002078390020800000F198
:10226000804000F5B840036823F4804323F07003F6
:1022700043F4004343F0800359400160704700007D
:1022800018B90722024B1B681A820248704700BF28
:1022900084390020E40500200022012110B5104BF4
:1022A0001B689A720F4B19640F490868026008682E
:1022B00004681C644FF4E0545A64046008680468BD
:1022C0001C644FF43F445A64046008680068186452
:1022D0004FF48010054B18600B681A7310BD00BFD7
:1022E00084390020005C00407405002000E100E01B
:1022F00013B5104B1A68137803F07F03212B16D106
:10230000022808D0222801D0022405E093780A4A46
:1023100003F0030313700024084B1B6823B102A9C8
:1023200001F8010D02209847204602B010BD02249A
:10233000FAE700BF84390020301200202C12002060
:1023400021B901288CBF022000207047022070476D
:10235000054B1B689B78032B04D8044901EBC30190
:1023600000F0BCBA0020704784390020CC05002062
:10237000014900F0B3BA00BF88050020014900F010
:10238000ADBA00BF9005002037B5114C2268127815
:1023900002F07F02212A02D0022003B030BDA0F15A
:1023A0002003012B0B4B0C4D1B6888BF002523B16C
:1023B00002A901F8010D02209847002DECD02368F6
:1023C00000249D615C822046A8472046E5E700BFC7
:1023D000843900202C120020812200082DE9F047CA
:1023E00000254FF0C00948F68F1648F280074FF0DD
:1023F000400A434B434C1B68DFF838819D7283F8D9
:102400000990256523682846334043F40073236010
:10241000236803EA08033B4383F010032360226D23
:10242000394B520043F802A08022236D5B0003F178
:10243000804303F5C0431A60236823F4E24323F08A
:1024400070031B041B0C2360304B1B6893F82C108B
:1024500000F072F84FF440512846FFF7FFFEA368E2
:102460002946334043F4C063A360226D284B5200D9
:1024700013444FF480721A60A268022002EA080234
:102480003A4382F02002A260FFF7E8FEE36851467B
:102490003340E360226D1F4B520013444FF48872A7
:1024A00003201A6000F048F84FF440510320FFF772
:1024B000D5FE636829461E406660226D164B5200A9
:1024C00043F802906368012003EA08033B4383F06A
:1024D00020036360FFF7C2FE0122104B28461B68F1
:1024E0001A7300F0EBFBFF220D4B1D600D4B1D60BE
:1024F0000D4B1D600D4B1D600D4B1A70BDE8F08734
:1025000084390020005C0040086000407C390020D5
:1025100020600040386000401060004074050020DA
:1025200034120020381200204012002044120020F3
:102530003C120020BF8FFFFF0D4B0E4A1B6D3E2942
:1025400003EBC0004FEA400002440AD94B09C80619
:1025500004BF03F1FF339BB29B0243F400431360BB
:1025600070474B08C90748BF01339B02F7E700BF1C
:10257000005C00400C60004010B5064C18B9012208
:1025800023681A8210BD044B1B681B68984720689B
:102590000A30F7E7843900208039002010B5064C56
:1025A00018B9012223681A8210BD044B1B689B686E
:1025B000984720680C30F7E78439002080390020E4
:1025C00010B51E4B1C68002310B90223238210BDD6
:1025D0001B4803802178024611F07F0112D1617AF5
:1025E0008C0644BF02230370037848064CBF23F0D7
:1025F000010343F001031370124B1B681B699847DA
:102600000F48E4E70129E2D0022915D1217901F030
:102610000F039B0003F1804303F5B84309061B68D1
:1026200005D503F03003102BE6D10123E3E703F4D3
:102630004053B3F5805FF7E71846C8E784390020B8
:102640007A390020803900202DE9F843234FDFF844
:10265000A0803D682C8AD4B92E7A042E17D1204947
:102660000B78012B0ED11F4B1A681F4B92B21344EB
:102670005B001C6030230C70A8F800303B681E72B1
:10268000BDE8F88310230726A8F80030F6E7AB8AE8
:102690009C4294BF042602269C4228BF1C46AB697C
:1026A000204698478146002000F0B4FB22460146B0
:1026B000484600F052FB2146002000F0C7FB2B8A61
:1026C0004FF440521B1B2B826B8A1C443023A8F80A
:1026D0000030064B6C821A80D0E700BF843900209E
:1026E00048120020505C0040023000207639002063
:1026F0007839002010B50A4B0A491B6849789A7846
:1027000091420AD3D97841B99C8834B99A72064B60
:102710001B685B689847204610BD0220FCE700BF9D
:1027200084390020C80500208039002038B50F4AC0
:102730000F4D12682B6892699978187990472B6829
:1027400004469A7A7AB170B95A7962B9DB7853B98A
:10275000084B1B68DB6898472B681A79DA729A78FD
:102760001A73204638BD0224FBE700BF7C390020E5
:10277000843900208039002038B52B4B1B6818782D
:1027800010F07F0004D15A7A22F020025A7238BD2C
:10279000022847D15A88002AF9D15A79002AF6D15D
:1027A0001979224D21F08000840004F1804404F561
:1027B000B844226849B22D780029B4BF02F0300233
:1027C00002F4405285422DD962B39B7A53B300295B
:1027D000236811DA03F03003102B07D1C4B220466E
:1027E00000F004FB3021204600F0D8FA104B1B68A3
:1027F0005B6998470020CAE703F44053B3F5805F54
:10280000F4D10C4D58B90C4B93F82C1000F02CFB64
:1028100023682B409BB283F440532360E6E700F02B
:10282000D2FAF5E70220B2E784390020C80500207B
:10283000803900208FBFFFFF9805002038B51B4B63
:102840001B4D18682D78017921F08004A30003F155
:10285000804303F5B8431A6849B20029B4BF02F0B7
:10286000300202F44052A5421DD94488DCB9D2B1ED
:10287000827AC2B11A680029B5BF22F4E04222F47C
:10288000804222F0400222F07002B5BF92B292B2B2
:1028900082F0100282F480521A60064B1B689B691A
:1028A0009847002038BD0220FCE700BF8439002093
:1028B000C80500208039002008B5064B1A68537AF5
:1028C00043F020035372044B1B68DB6998470020D8
:1028D00008BD00BF843900208039002010B5054BA9
:1028E0001C68628A18B98B889B1A238210BD0868FD
:1028F0001044FBE78439002008B50B4B002093F807
:102900002C1000F0B1FA094B1B68187A082806D180
:102910004FF48052064B1A801022064B1A80A0F109
:1029200009035842584108BD980500208439002009
:10293000763900207839002073B5964C964E216880
:1029400032680B7A092B16D0944B92B213445B0079
:102950001B885B0003F1804303F5C0431A780A70BB
:1029600059782268517099882268518019892268A3
:1029700091809B89D380012223681A72DA885D785E
:10298000002A64D11A7812F07F024DD1092D03D1AB
:10299000FFF7B0FE40BB16E0052D20D193F90220D1
:1029A000002A07DA08232268137202B0BDE87040DB
:1029B000FFF7A2BFDA78002AF4D19A88002AF1D171
:1029C0009B7A002BEED13268754B92B213440022F1
:1029D0005B001A603022734B1A800623E3E7032D55
:1029E00014D19A78012A08D06F4B28461B685B697E
:1029F0009847032828D10923D5E79A88002AF3D1DC
:102A00005B7A9A06F0D5FFF757FFC3E7012DEBD1AC
:102A10009A78012AE8D19A88002AE5D15B7A9B0648
:102A2000E2D5FFF7A9FEB5E7012A04D10B2DDBD1D2
:102A3000FFF77CFEAEE7022AD6D1012DF1D0032D9F
:102A4000D2D1FFF7FBFEA5E70028ABD1BBE7062DEF
:102A500012D11A7855065AD1DB78534A012B1268E5
:102A600002D1D369DBB952E0022B01D1136AF9E735
:102A7000032B4CD1536AF5E7002D54D15988002916
:102A800045D15A6822F0FF02B2F5003F3FD11A78D3
:102A900012F07F0216D19B88002B38D1434B0025C2
:102AA0002268284655829361984728464FF6FF7161
:102AB00023681A8A8A4233D0022801D0002A55D1CD
:102AC00008222EE0012A0AD1374A18791268926941
:102AD0009047E0B923689B7A002BDFD117E0022AE8
:102AE00015D11A7902F00F018B00100603F1804313
:102AF0002F4803F5B8431B6800784CBF03F0300340
:102B000003F44053884202D912F0700FE4D0264BF0
:102B100022681B6850781B6998470328C6D1236830
:102B200009221A7241E7082D04D11B785B06EED109
:102B3000204BB4E70A2DEAD11A7802F07F02012A6D
:102B4000E5D19A7A002AE2D059880029DFD15A6863
:102B500022F0FF02B2F5803FD9D1134A18791268EA
:102B6000926990470028D2D1134B98E793F900104F
:102B7000002936DAD9880C4C0191019824688242E8
:102B80001CD9019A1A8294F82C209A82FFF75CFDD6
:102B90000BE700BF84390020505C00400430002067
:102BA00002300020783900207C390020C12500083F
:102BB000C8050020792500089D2500088A42E2D238
:102BC00094F82C00824203D20021094A1170DAE7FE
:102BD00092FBF0F100FB1122002AD4D1044A01211A
:102BE000F4E703221A724FF44052024B1A80DCE6DB
:102BF0004812002076390020F8B52A4E3468237A2E
:102C0000032B01D0052B44D1A369B3B1258AA5B10B
:102C1000A28A954228BF154628469847238A074628
:102C20005B1B2382638A00202B44638200F000F93F
:102C30002A460146384600F09FF8238A53B1002106
:102C40004FF44052184B08461A8000F0FFF830222B
:102C5000164B1A80228AA18A3368914209D803222E
:102C60001A7233681B7A32681372BDE8F840FFF7B6
:102C700043BE0AB10522F3E7062119720C4B19680D
:102C80000C4B89B20B445B001A603022074B1A8050
:102C9000E7E7072B03D1084B1B68DB68984708233D
:102CA000E1E700BF84390020763900207839002020
:102CB000505C0040023000207C390020002210B51A
:102CC0000C4B1C78A24204D30B4B40F080001860E0
:102CD00010BD02F1805303F5B8539B00196821F42D
:102CE000E04121F070010904090C1143196001321F
:102CF000E8E700BFC80500204C5C004010B5134C4D
:102D000023681A7A022A01D0042A09D1FFF79CFC11
:102D100023681B7A22681372BDE81040FFF7ECBDF0
:102D2000062A10D15A78052A09D11A78520606D1F6
:102D30009878FFF7C3FF064B1B681B6A9847054B43
:102D40001B689B6898470823E4E700BF843900208C
:102D5000803900207C390020704701F10051013298
:102D600001F540515210490002B9704730F8023B5A
:102D7000013A21F8043BF7E7002310B501F10051B7
:102D8000013201F54051521049009A4200D110BD64
:102D900051F8234020F813400133F6E7800000F19A
:102DA000804000F5B8400368CA0623F4E04323F0EE
:102DB00040039BB248BF83F010038A0648BF83F0EC
:102DC000200303607047800000F1804000F5B840A8
:102DD00003685B0409D5036823F4E04323F0700320
:102DE0001B041B0C43F4804303607047800000F118
:102DF000804000F5B84003685B0609D5036823F4FA
:102E0000E04323F070031B041B0C43F040030360FA
:102E100070470000054B1B689BB203EBC00000F13C
:102E2000005000F54050400000887047505C004062
:102E3000044B1B689BB203EBC000034B03445B00D5
:102E400018887047505C004004300020044B1B6819
:102E50009BB203EBC000034B03445B001960704757
:102E6000505C0040023000200D4B0E4A1B683E298A
:102E70009BB203EBC00002444FEA42020AD94B095D
:102E8000C80604BF03F1FF339BB29B0243F4004327
:102E9000136070474B08C90748BF01339B02F7E72F
:102EA000505C00400630002013B504468DF8071032
:102EB00001220DF107012046FEF7DDFE0028F7D0C4
:102EC00002B010BD38B505464C1E14F9011F01B9FA
:102ED00038BDC9B22846FFF7E7FFF6E708B5134B40
:102EE00003221C6801212046FEF784F800230121FB
:102EF0001A46B2F5007F0CD072B1B3F5007F01D154
:102F000000230A449A420CD9022520680561013346
:102F1000EFE74FF0FF31F0E7B3F5007F4FF001012D
:102F2000EED020684FF40035F0E700BFD836030834
:102F300008B5034B0BB100F045F862B6FFF7CEFFC2
:102F4000C52F000808B5044B23B100F05BF8034916
:102F5000FFF7B8FFFFF7ECFF05300008C3370308A1
:102F6000FDF7A4B908B501F09BF901F065FAFCE79B
:102F700028F0CAB932280BD8064B03EB001043687F
:102F80001A68437B343203F18043013B42F823103B
:102F9000704700BF6833030838B50C460546072163
:102FA00004EB042400F046F8A1B22846BDE83840FE
:102FB000FFF7E0BF002203685B0103F18443C3F81D
:102FC000002170474FF0FF3310B50A4C0A48C4F88F
:102FD0008030C4F88430FEF7EFFA0848FDF7EAFDC8
:102FE0000748FEF707FF4FF4002323604FF48013D8
:102FF000236010BD00E100E019160008B52F00089D
:10300000411C000810B5094B094C18680B2202211D
:10301000FDF7F0FF2068FEF7E3FD20684FF416523D
:103020000021FEF7CAFE206810BD00BFD436030899
:1030300088020020322838B53BD8082939D8DFE883
:1030400001F00529171A1D2017232600002403224A
:10305000184B00011D18297B1858FDF7CBFF686835
:1030600038B3697BCCB1BDE838400122FEF796BB8E
:1030700000240422ECE700242246E9E70024092288
:10308000E6E700240822E3E701240B22E0E701241D
:103090000F22DDE700240722DAE702684B1E02F167
:1030A000404220329B0003EBC2039B0003F18443A8
:1030B0001C6038BD6833030808B501211048FDF7CE
:1030C0009FFA02210F48FDF79BFA03210E48FDF7F6
:1030D00097FA04210D48FDF793FA05210C48FDF7F6
:1030E0008FFA06210B48FDF78BFA07210A48FDF7F6
:1030F00087FABDE8084008210848FDF781BA00BFFB
:103100004C120020501200205412002058120020AF
:103110005C1200206012002064120020681200205F
:1031200032280DD8074B000119181B58097B1B6862
:103130009A6801238B40134214BF0120002070477E
:103140000020704768330308322810B50ED8084BAA
:1031500000011C181B58B1FA81F11A680123207B69
:1031600049098340090103FA01F1116110BD00BF53
:10317000683303080A4A0B4B11689B6800BF00BF05
:1031800012688A42F6D14820C3F58C3303F5A07348
:10319000B3FBF0F34FF47A7000FB0230704700BFCE
:1031A0007039002010E000E038B50446FFF7E2FF78
:1031B00005465CB1FDF765FCFFF7DCFF401BB0F591
:1031C0007A7FF6D3013C05F57A75F5D138BD28B183
:1031D0000C234343013B18460138FDD870470000DB
:1031E0000449054BCA6822F4E0621204120C13432E
:1031F000CB60704700ED00E00003FA0570477047B0
:103200000120704713B5104C20461DF060FB20468E
:1032100004211DF0F6FA204602220C491DF0F4FAB2
:10322000002302220A4900932046A0231DF052FBEE
:1032300020461DF045FB20461DF034FB204602B021
:10324000BDE810401DF035BB74120020E8370308BC
:103250006E12002024280AD0252807D10123054A10
:1032600032F81330044AC3F38903138070470023F4
:10327000F5E700BF6E1200206C120020044B03EB38
:1032800000135B6813B1C0B2FFF786BE704700BF82
:1032900068330308FEF722B8024B034819681DF093
:1032A000AEBA00BF1C0000207412002010B5074CFD
:1032B000032294F84C10206CFDF79CFE236C94F8CC
:1032C0004C101A6801238B40136110BD683303084A
:1032D000062838B58CBF00250A4B0B4C98BF1D5CE7
:1032E0002046E46600F03FF92946204600F04DF9FB
:1032F0002046012100F056F92046BDE83840002163
:1033000000F05DB9EA37030884120020FF2101486C
:1033100000F06AB9841200200B46024600210148E1
:1033200000F01ABA841200200146014800F09CBA4D
:103330008412002070B50D46064C0146204600F070
:1033400093FA29462046BDE8704001234FF40072ED
:1033500000F07EBA8412002001398B00012102683E
:1033600099405160704703689A689107FCD59A6844
:103370001206FCD47047436823B1417B00221846F3
:10338000FEF70CBA70470000172806D0182806D0A0
:103390001628044818BF00207047034870470348A8
:1033A000704700BF4C83030850830308548303080D
:1033B0002DE9F04F814687B000798A46FFF7E4FF98
:1033C00060B30578174C46782D012B1987783601A4
:1033D00090F8038006EB040B1846059304EB0717DF
:1033E000FFF7C9FF5846FFF7C6FF04EB0818384639
:1033F000FFF7C1FF4046FFF7BEFF98F80C20059B82
:1034000051461B7B03923A7B484602929BF80C2064
:103410000192325900922A59FEF764F807B0BDE8CC
:10342000F08F00BF6833030810B50C46FDF764FF4A
:1034300090B10228094B88BF002300225B089C4200
:10344000D0B205D20132072A4FEA5303F7D1104612
:10345000034B0344187B10BD024BEEE700A24A0465
:103460004C830308005125022DE9F0410346044630
:103470006C302C4D00221D6001255A731D735A605B
:10348000C3E9072224339842F3D124224B1E02FBC6
:1034900003430229E366DFF8AC80234E39D00329C9
:1034A0003CD0A94201D1214B1C60214B214F1B680C
:1034B000216823611879FFF7B7FF3B680225A361F4
:1034C00003236375D8F80030A06063632575616AD3
:1034D0001879FFF7A9FF3B68E062E363052384F8EE
:1034E0003930042384F838303368A16CA365187927
:1034F000FFF79AFF104B00221B682065236601230B
:1035000084F85C30E36E84F85D50DA732046BDE8E1
:10351000F081D8F800306363084BC5E73368A365D2
:10352000074BC1E700093D0068010020F4120020AC
:10353000600100206000002064000020F8120020DC
:10354000FC12002064010020C06E037B4268012B46
:103550000CBF0023802342F440721343017A427B64
:103560000069FDF79FBF10B50446C36E1869FDF7EB
:103570006EFFE36E01211869FFF71AFF2046FFF77F
:10358000E3FF0122E36EDA7310BDC36E9960C36E70
:1035900001F038011B691A68136823F038031943D6
:1035A00011607047C36E1973C36E1B691A68136884
:1035B00023F0800309B943F0800313607047C36EA2
:1035C0005973C36E01F003011B691A68136823F075
:1035D0000303194311607047C36E1B691B68D960F0
:1035E000C36E1869FFF7BFBE10B5C36E1C692368B0
:1035F0002046DA68D960FFF7B6FE2368D868C0B203
:1036000010BD0000F0B50546C36E85B09869174639
:103610000E46FDF7FEFAE86E4468017DA4F50063EE
:103620005C425C4103691A688223CDE9014300973B
:1036300023460C328069FDF72FFBE86E0369417D5C
:103640001A68C6B91023CDE901430D4B00932346F8
:103650000C328069FDF720FBEB6E0022597D9869E2
:10366000FDF7DAFA0322EB6E197D986905B0BDE823
:10367000F040FDF7D1BA90230096CDE90143E6E78B
:10368000F137030870B504460D4611B900252846E8
:1036900070BDC36E1A6912689168CE0748BFD268C0
:1036A0000422DA73C36E2A46197D9869FDF7C0FAC1
:1036B000E36E2A46597D9869FDF7BAFAE36E197DE3
:1036C0009869FDF7D1FAE36E597D9869FDF7CCFA58
:1036D000E36E1869FDF7F8FEE36E1869FDF7E8FE82
:1036E000E26ED369002BD1D193691A491E68537DCC
:1036F0000D68013B9B00DBB23068D840800727D4BF
:103700000868401B6428F7D902251069FFF72BFED3
:10371000E36E1869FDF7D2FEE36E1869FDF7DAFE75
:10372000E36E597D9869FDF7ABFAE36E197D9869F0
:10373000FDF7A6FAE36E197D9869FFF70DFEE36EBB
:10374000597D9869FFF708FE0122E36EDA739EE760
:103750000025DAE77039002038B504461D46FFF72A
:1037600051FF29462046BDE83840FFF78BBF7FB5A3
:10377000054614460E46C36EE4019869FDF749FA02
:10378000E86E44F012044368417DA3F500625342A1
:10379000534102691268CDE9013400960C32806908
:1037A000FDF77AFA0022EB6E597D986904B0BDE806
:1037B0007040FDF731BA000070B504460D4611B9EE
:1037C0000025284670BDC36E597D9869FFF7C4FD7A
:1037D000E36E2A46597D9869FDF72AFA0322E36EC3
:1037E000DA73E36E597D9869FDF73EFAE36E186966
:1037F000FDF75EFEE26E136A002BE1D19369134977
:103800001E68537D0D68013B9B00DBB23068D840D9
:10381000800719D40868401B6428F7D9022510696D
:10382000FFF7A1FDE36E1869FDF748FEE36E597DD1
:103830009869FDF725FAE36E597D9869FFF78CFDCD
:103840000122E36EDA73BCE70025E8E77039002057
:1038500038B5044615461A46FFF789FF2946204623
:10386000BDE83840FFF7A8BF08B5FFF7B5FE012057
:1038700008BD000001210148FFF7F6BD84120020B9
:10388000012342798B4010B5DB439AB1012A41F6FE
:103890005F6218BF0122046813402361036803F1CB
:1038A00040430C3301EBC3010123890001F1844142
:1038B0000B6010BD41F6FF62EDE7002203685B017B
:1038C00003F184431A607047012203685B0103F12E
:1038D0008443C3F88022704770B5224D224C2B7868
:1038E000BFF35B8F13F0010F0AD128461EF092FB45
:1038F00030B1012000F09EFA206028461EF0A6FBA1
:1039000023681B681E69B20714D5184D0322297B52
:103910002868FDF76FFB2B68297B1A684FF480330A
:103920008B401361002223681B685B0103F1844311
:10393000C3F80422730713D50C4D0322297B286892
:10394000FDF758FB2B68297B1A6801238B40136114
:10395000002223681B685B0103F18443C3F808223B
:1039600070BD00BF04130020081300206833030853
:103970004FF0FF33044A43601378022B8EBFFF23BE
:10398000591C1170037070470013002038B542684D
:103990000546531C28D003780BB9006938BD8468EC
:1039A00044F62060114B03EB02135A685B7B1268EC
:1039B00003F180433432013B52F823104FF6AF72CB
:1039C00089B20023A1FB00011EF06CF8E968A0F5A4
:1039D0000870091B4FF4E862002380FB01011EF010
:1039E00061F8204400B2D9E70020D7E76833030824
:1039F000F8B501200D4600F01DFA044600283ED01F
:103A00001F4E2D017719397B70590322FDF7F2FA09
:103A1000735901251A683B7B204605FA03F31B0402
:103A20001361FFF74AFF02222946FDF7B7FE22681D
:103A300029469369204623F0FF0393612268936926
:103A400023F47F439361152223689A624FF6AF7384
:103A50002268D3622268536322689363094AFDF7A0
:103A6000FFFD084A02212046FDF7FAFD2046FFF738
:103A70002BFF284623685B0103F184431D60F8BDDA
:103A800068330308D938000870B5054601200E4692
:103A900000F0D0F903685E63FFF716FF3EB1012125
:103AA000FFF7EEFEBDE870400221FFF7E9BE0368B4
:103AB0000F4C5B0103F18443C3F884610368032264
:103AC0005B0103F18443C3F888616B681B01E11853
:103AD000097BE058FDF78EFA6B681B01E118E3588B
:103AE000097B1A684FF480338B40136170BD00BFAF
:103AF00068330308037813B91146FFF7C5BF074BB6
:103B000003EB0113596839B15B7B086803F180430B
:103B10003430013B40F82320704700BF683303086E
:103B2000F8B505780446022D0E4601D90020F8BDEF
:103B30003229FBDCC0E902234FF0FF33036125B9D2
:103B4000FFF756FF08B16660F1E7114B03EB061370
:103B50005D68002DEAD0F7B207213846FFF76AFA10
:103B6000002239462046FFF7C5FF2846FFF7A5FE8D
:103B700015222B689A624FF6AF722B68DA62FFF754
:103B8000A3FE01202B685B0103F184431860DAE790
:103B90006833030808B541684A1C08D04FF0FF326B
:103BA000C9B202610022FFF7A5FF012008BD002075
:103BB000FCE738B5456804466B1C28D0D0E90232D2
:103BC0008B4222DC9142A8BF11464FF4E86021618C
:103BD000D21AC91A81FB0001D3171DF063FF4FF6FB
:103BE000AF7100F5087080B2002344F62062A0FB9C
:103BF00001011DF057FFE9B282B22046FFF77AFFBC
:103C0000BDE83840322000F007BD1946DDE738BD79
:103C1000084B186803F178420749A2F57C325050EE
:103C2000064A04339342F4D10022054B01201A7056
:103C3000704700BF00F003080C13002000000408C8
:103C40000C23002070B5164D2C783CB31CF0F8FE08
:103C500014481CF0ADFE052805D01CF0FDFE002325
:103C60002B70204670BD10481CF0A2FE0528F4D130
:103C70000C4E0E4A06F17843A3F57C33D15A3046F8
:103C80001CF0B8FE052804D000241CF0E5FE2C70C2
:103C9000E7E7074B02369E42EBD1DEE70124E0E77F
:103CA0000C23002000F0030800F803080C13002088
:103CB00000000408F8B505460024944206D0094ED9
:103CC0000F5D2868264437540134F6E70120064A80
:103CD0001070A2B2184612F0EFF82B6800201C44B6
:103CE0002C60F8BD0C1300200C23002070B5154685
:103CF0009DF8102004465AB901680A4A1144AAB234
:103D0000184612F0D9F8226800202A44226070BDBB
:103D10000022AA42F3D0034E20681644305C885437
:103D20000132F6E70C1300200228F8B506460D46CE
:103D300039D0052836D100262C4C022223680121D7
:103D40005B0103F184431E602046FDF727FD2849EF
:103D50004FF6FF70B1FBF5F11122814228BF0146F9
:103D600023685E629A62D8629A69204622F0FF0256
:103D70009A6159635B0103F184430121DE611D4AAD
:103D8000FDF76EFC01213220FDF77EFA0122236847
:103D90005B0103F18443C3F8802223685B0103F1D4
:103DA00084431A60F8BD0027134C024623680121A2
:103DB0005B0103F184431F602046FDF7EFFC40F2F6
:103DC000E73223680D495F62B1FBF5F19A624FF665
:103DD000FF72914228BF1146DA6220465963084AB1
:103DE0000121FDF73DFC31461C20CDE718020020E3
:103DF00000093D0061B70108AC0100204019010035
:103E000029CA010802280CD005280CD1074B1B68D1
:103E10005B0103F18443D3F88401003018BF012013
:103E20007047034BF3E70020704700BF18020020E3
:103E3000AC010020013807289ABF024B53F820003C
:103E400000207047F4370308FDF716BA704703687F
:103E5000C9B21B68184700000023054A9A568242DF
:103E600004D00133162BF8D1002070470120704791
:103E7000523A030808B500F029FBBDE808400148A4
:103E800000F012BBBE38030808B515F055FC15F05C
:103E9000B7FCFE2014F0CAFABDE8084014F0A4BA3A
:103EA000054BD3F8D02293F8DC124FF4803312681C
:103EB0008B401361704700BF683303080E4AD2F885
:103EC000803092F88C101868012303FA01F109047C
:103ED0000161D2F81011086892F81C1103FA01F17F
:103EE00009040161D2F8201292F82C22096893404B
:103EF0001B040B61FFF7D4BF68330308044BD3F8EE
:103F0000D02293F8DC12012312688B4013617047B2
:103F10006833030840B9054BD3F8D02293F8DC127C
:103F2000012312688B401361704700BF6833030898
:103F3000012130B4124BD3F88020106893F88C2004
:103F400001FA02F202610F48027822F001040470C3
:103F5000D3F81041256893F81C4101FA04F42C6150
:103F600022F003040470D3F8204293F82C32246822
:103F7000994022F007022161027030BCFFF7BEBFFA
:103F8000683303084F290020074B1B784BB9074BB8
:103F900093F90000012805D0054B1878C0F3800084
:103FA00070470020704700BFE4230020382900201C
:103FB0000C3800200B4B1B788BB90B4B93F900305E
:103FC000022B0CD0094B1B78C3F3C00040B1084A48
:103FD000D07828B1C3F3800080F001007047012041
:103FE000704700BFE4230020382900200C3800204F
:103FF000EC37002012F0DCBC10B5194C2378013BE3
:10400000042B29D8DFE803F0030C1118230012F069
:10401000B1FC3B280CD9134807F070FD40B910BD26
:10402000114807F06BFD18B9F9E7E4220F4B1A703D
:10403000237801332370F2E712F09CFC0C4A0D4BFD
:104040003B2894BF1046184607F058FDEBE715F0E3
:10405000B1FB094800F028FA00232370DFE700BF16
:10406000EA3700206538030869380308D42800209F
:10407000543803085B3803086D38030810B540F264
:10408000E9330446013B08D000BF00BF00BF42F641
:104090002F22013A00BFFCD1F4E772B640F2E933B7
:1040A000013B08D000BF00BF00BF41F29312013AAC
:1040B00000BFFCD1F4E718F005F924B1FFF738FF91
:1040C000FFF7C2FEFCE7FFF719FFF9E70D460446CC
:1040D000164608B518F0F6F800F0F8F9074800F0B1
:1040E000E3F907490748002D18BF2946002C18BFDF
:1040F000204611F089FB3046FFF7C0FFCD3803089A
:1041000035380308433A030870B5394B05461B7828
:10411000032B01D807F058FF364B374A1B68146849
:10412000ABB1364909680B44E31A002B0FDB00F0F2
:10413000CDF9334B3348196800F0CEF90A213248E3
:10414000FFF785FE002211461046FFF7BFFF2F4BF9
:104150001B6843B12E4908782E49097888420ED051
:104160001268264B1A602C4D03F0FEF92B68E31AF7
:10417000002B03DB643415F033FA2C6070BD274A42
:104180001178274A89BB85BB1C4909680B44E31A8F
:10419000002B2ADB1378002BE5D101231370214A71
:1041A000D2F88010086892F88C1003FA01F10161CE
:1041B0001D48017821F001050570D2F810512E68D4
:1041C00092F81C5103FA05F5356121F003050570DD
:1041D000D2F8205292F82C222D68934021F007014A
:1041E0002B610170FFF78AFEBDE700231370BAE769
:1041F000CC25002018230020703900200024002046
:1042000010240020813803088C100020EC050020C9
:10421000AE300020AF30002010230020E423002027
:1042200014230020683303084F29002010B50446EA
:1042300011F02CFB06F06AFC2046FFF765FF18F032
:104240003BF911F0C3FDFEF7D9FF044B1B781BB9F6
:10425000BDE8104018F090BE10BD00BF042400203F
:1042600010B50C4C18F02EF812F04AFB2378012BF5
:104270000ED100F02BF9084800F016F9002107488C
:1042800011F0D6FA4FF4AF7000F0C6F9082323708E
:1042900010BD00BF17230020F13803084A3A030875
:1042A00037B5FEF79DFF504A136823F0E06343F0F3
:1042B0000073136017F02AFB4FF4E1314B48FCF711
:1042C0008DF94B4B4B481B6800F0EEF800F0F8F806
:1042D000FEF796FFC507044602D5474800F0E4F80C
:1042E000A00702D5454800F0DFF8610702D5444831
:1042F00000F0DAF8220702D5424800F0D5F8A3060C
:1043000002D5414800F0D0F8FEF779FF3F4800F0B1
:10431000CBF820213548FFF79AFD3D4800F0C4F85E
:104320000A213248FFF793FD00F0CAF8394800F03F
:10433000BBF800F0C5F8384800F0B6F800F0C0F857
:104340000020FCF767F80DF10701091A334800F067
:10435000CFF84FF4D861324800F0CAF8314C0A2146
:104360002248FFF774FD11F0A7F9002011F076FC48
:1043700009F060F8237823B913F020FE08B1012377
:104380002370294C294D216828681DF061F869685F
:10439000206060681DF05CF8A9686060A0681DF08E
:1043A00057F8A06014F020F8214817F0A5FE12F08D
:1043B000CFFA13F04BFE16F095FD16F075FB16F0D4
:1043C00081FA002013F064FE012000F053FDFFF796
:1043D0003DFD01231A461946184602F065FB0122ED
:1043E000144B1A7003B030BD040001408C10002043
:1043F000703900208169030868390308713903089E
:104400008239030894390308A53903083C3A0308A4
:10441000B6390308BD390308FF390308163A030803
:10442000253A0308152300205C2900207C29002060
:10443000DC3300201723002008B50020FFF7F6FE2C
:104440001AF0B6FE114B1B785B0613D51AF07EFAF4
:1044500007F0A8FAFFF718FD12F052FA17F032FF32
:104460000021084617F08EFC0022094B09481A70FB
:1044700007F034FB084B1B780BB1FFF7BDFD07F0CD
:104480002FFCBDE8084013F003BF00BF0C3800202C
:10449000F0050020ED380308EA37002001481AF043
:1044A00019B800BF1623002010B5044614F9011BEB
:1044B00019B10248FFF7CBFCF8E710BD8C100020C3
:1044C0000148FFF7F1BF00BF7A3A03080148FFF740
:1044D000EBBF00BF733A030810B50C46FFF7E4FFCB
:1044E0002146BDE810400148FCF744B98C1000207B
:1044F00010B50C46FFF7D8FF2146BDE810400A2250
:104500000148FCF79DB900BF8C10002010B50C4687
:10451000FFF7CAFF2146BDE810400A220148FCF718
:10452000A2B900BF8C10002013B50C46FFF7BCFFEA
:1045300020461CF0FDFB02230246009302480B4676
:10454000FCF776FA02B010BD8C10002010B50C46B6
:10455000FFF7AAFF2146BDE810400A220148FCF7F8
:10456000A3B900BF8C10002010B50446013CE4B292
:10457000FF2C04D020210248FFF769FCF6E710BDAC
:104580008C100020034A044B002814BF1046184624
:10459000FFF78ABFBA440308C643030808B5FFF70C
:1045A000F1FF0A210148FFF752FC08BD8C100020E2
:1045B000034A044B002814BF10461846FFF774BF87
:1045C000683A03086D3A0308F8B507460E461546E3
:1045D0001846069CFFF768FF39680B48FFF7A4FFF1
:1045E00031680A48FFF7A0FF29680948FFF79CFFD8
:1045F00024B12046BDE8F840FFF756BF0A21054820
:10460000FFF725FCF8BD00BF403803084738030812
:104610004E3803088C10002010B50446322C06D901
:104620003220323CFEF7C0FD17F046FFF6E7204689
:10463000FEF7BAFDBDE8104017F03EBF38B5094C93
:1046400025882DB2002D0CD0CCBF0121002117F000
:10465000DDF82388002DCCBF03F1FF3301331BB2FB
:10466000238038BD20230020084B1B7823FA00F05C
:10467000C30709D5064A89B213880B441380054B3A
:104680001A88114409B21980704700BF4F290020D1
:104690001E230020202300200A4610B5074B0446A5
:1046A00003EB8003596910681CF0DAFF1DF0B4F9C0
:1046B00001B22046BDE81040FFF7D6BFFC30002015
:1046C0002DE9F74F1F4683001D18404C01936B18CE
:1046D000884654F823100090084616461DF086F9C7
:1046E00000286FD0009BF2B2D618F6B23244FBB26B
:1046F000D2B206EB860003EB080102EB8202C9B2DC
:1047000000EB080702EB08060B4454F827B054F8F6
:104710002670DBB26E1801441D4454F821901344F6
:104720003946384654F826A054F8256054F82350EA
:104730001DF05CF900B10027594658461DF056F9A6
:1047400000B1BB46314630461DF050F900B100269D
:10475000514650461DF04AF900B1B2462946284656
:104760001DF044F900B10025494648461DF03EF9C8
:1047700000B1A946DDE90023594613445846984440
:104780001CF066FE39461CF061FE51460746504655
:104790001CF05EFE31461CF059FE014638461CF006
:1047A00057FE4946064648461CF052FE29461CF074
:1047B0004DFE014630461CF04BFE05491DF004F845
:1047C00044F8280003B0BDE8F08F00BF6423002048
:1047D0000000404000EB8000024B014453F82100F0
:1047E000704700BF64230020F8B502263546022436
:1047F000012321461A46C4F104072846FFF760FF4B
:10480000FFB2214601234FF0FF323046FFF758FF39
:104810004FF0FF33012239462846FFF751FF4FF092
:10482000FF33013C1A4639463046E4B2FFF748FFF1
:10483000FF2CDDD1013DEDB20136FF2DF6B2D6D110
:10484000F8BD000010B50548FFF72EFEBDE810408A
:104850000521034B0322084600F0DEB9803A030825
:10486000D547000838B5104C0021256828461DF0B2
:104870008BF8A0B929464FF07E501CF0A5FF0546E5
:104880006468002120461DF07FF850B921464FF0A2
:104890007E501CF099FF054B1D60586038BD002507
:1048A000EEE70020F7E700BF542300204C23002050
:1048B0002DE9F74F674E0546316800681CF0C6FDCC
:1048C0007168044668681CF0C1FD634D814621464D
:1048D00028681DF059F8DFF8AC81604F28BB604BA9
:1048E0002C60196820461CF0BBFE064625F0AEF988
:1048F000002104461DF052F8002831D159492046C4
:104900001DF06AF800B1574C214630461CF09EFD60
:10491000C8F8000020461DF07FF840B23870013022
:104920000428A8BF0420504B1870494668681DF041
:104930002BF84E4E97F9004096F900B0DFF848A1E9
:1049400080B1A34536D1DAF80010D8F800001CF089
:1049500087FE474B19681CF07BFD03B0BDE8F08F64
:104960000024D1E73E4BC5F80490596848461CF036
:1049700077FE054625F06AF9002181461DF00EF804
:10498000002864D1374948461DF026F808B1DFF801
:10499000D490494628461CF059FDC8F80400484602
:1049A0001DF03AF840B2787001300428A8BF042006
:1049B0002D4B5870A34597F901302E4DDFF8CC9060
:1049C00003D196F901209A4225D03A88DFF898B0B1
:1049D000328004EB8404284EE2189BF9017056F8EB
:1049E00022103C44296056F8240001931CF02EFD4F
:1049F0009BF90020019B02EB8202134456F823101E
:104A00001E4B1744C9F80000196056F827001CF027
:104A10001DFD1B4B1860D8F80460D9F80010304613
:104A20001CF01EFE29681CF013FD0446104B186094
:104A3000134B304619681CF013FE104B19681CF01C
:104A400007FD21461CF002FDCAF800007BE74FF08D
:104A500000099EE75C230020F40500204823002085
:104A60004C230020000040403C230020FC05002097
:104A70002823002034230020642300203823002032
:104A80003023002040230020242300202C2300205A
:104A900010B5064B002118684FF001041CF074FF9C
:104AA00008B14FF0000404F0010010BD54230020B1
:104AB00030B5054685B028B1124B002118681CF0AE
:104AC00063FFB0B9104C2378AB4212D014F098FEBB
:104AD0000E4A01AB07CA83E807001846FFF7E8FE55
:104AE000237843B10A4814F0D7FD0023237013F054
:104AF0007BFC05B030BD01230548237014F0F4FDA4
:104B0000F5E700BF54230020AC3000209C3A030896
:104B10005C2900202DE9F041244D04460F46014652
:104B200028681CF031FF00283DD1214B1E78FFF78B
:104B3000BFFF002120461CF04FFF00B900242C606D
:104B40001C4920461CF03EFF20B11B4920461CF0AA
:104B50002FFF30BB21464FF07E501CF035FE174B27
:104B6000174A1860174B1A60EEB1174C0120D4F8A1
:104B700000806668A568FFF79BFFA7B141462068E3
:104B80001CF002FF48B1314660681CF0FDFE20B108
:104B9000A16828461CF0F8FE28B9BDE8F04113F0E2
:104BA0000DBC0020DBE7BDE8F08100BF88300020AD
:104BB000AC300020BD3786B5BD378635B830002013
:104BC000F0FF79C4A42900205C29002008B500204A
:104BD000FFF76EFF00230C4A536013600B4A5360CB
:104BE00013600B4B03F164010A4A143343F8142C8D
:104BF00043F8102C43F80C2C43F8082C43F8042CF1
:104C00009942F1D108BD00BF5C230020542300204D
:104C1000642300200000C07F2DE9F74F0446894639
:104C200017469A460025A5420FD0EBB20A2B34BF97
:104C3000032002203844C0B2FFF796FC29460A221E
:104C40002D48FBF7FDFD0135EDE70A212A48FFF766
:104C5000FEF80024A1455FFA84FB46D0092C03D856
:104C600020212548FFF7F3F80A2221462248FBF7C6
:104C7000E7FD0026AE425FFA86F830D020211E48BC
:104C8000FFF7E5F859464046D047014680461CF0FC
:104C9000ADFE98B9002140461CF094FE18B12B21BE
:104CA0001548FFF7D4F840461CF042F8009702463A
:104CB0000B461148FBF7BCFE0136DBE74FF000085E
:104CC0005FFA88F3BA1C9A42F6DB002B14BF3D2131
:104CD00020210948FFF7BBF808F10108F0E70A2195
:104CE0000548FFF7B4F80134B4E70A210248FFF79A
:104CF000AEF803B0BDE8F08F8C100020064BD3F85F
:104D0000F02093F8FC10012312688B409268134244
:104D100014BF0120002070476833030810B50C460B
:104D200001460748FEF745FF2068B0F5FA7F38BF17
:104D30004FF4FA70FFF770FCBDE81040FFF7DEBFDC
:104D40005C3100204FF4FA7337B540F2EE2502AC27
:104D500044F8043D2146A020FFF7E0FF21465A20F9
:104D60000195FFF7DBFF21460A200195FFF7D6FFEB
:104D700021465A200195FFF7D1FF03B030BD000056
:104D800037B540F2EE2502AC44F8045D21460A2016
:104D9000FFF7C4FF18B90024204603B030BDFFF769
:104DA000D1FF21460A200195FFF7B8FF04460028ED
:104DB000F1D0FFF78BFB0348FFF776FBFFF750FAC4
:104DC000EAE700BFA83A030837B540F2EE2502AC87
:104DD00044F8045D21465A20FFF7A0FF18B90024CB
:104DE000204603B030BD4FF4FA732146A020019352
:104DF000FFF794FF21465A200195FFF78FFF0446E5
:104E00000028ECD0FFF762FB0248FFF74DFBFFF7ED
:104E100027FAE5E7A83A030840F2EE2373B502AC9F
:104E200044F8043D214606460A20FFF777FF962006
:104E30002146019006B18C209625FFF76FFF214691
:104E400082200195FFF76AFF019521466EB18C2003
:104E5000FFF764FF40F2EE2321465A200193FFF74B
:104E60005DFF034B1E7002B070BD2846F0E700BF27
:104E7000C82300204FF4FA7337B502AC44F8043D60
:104E800021460546A020FFF749FF40F2EE232146C8
:104E90005A200193FFF742FF044B1B781BB115B159
:104EA0000020FFF7B9FF03B030BD00BFC8230020CA
:104EB00038B51B4B93F90030012B2DD0194D19B18A
:104EC0000023194A2B601370184B1A682B68D31AE9
:104ED000002B21DB144C002894F900301DDB011D50
:104EE000994219DB9842CCBF4FF47A704FF4FA70B4
:104EF00003F001031902C91A03EBC10103EBC1015D
:104F00008900104401F55C71286089B2322010F0EC
:104F100093FF23780133237038BD4FF47A70E7E7AD
:104F2000FE050020E0230020DC2300207039002053
:104F300010B5104B01461B781B070AD40E4B1C788A
:104F40003CB90E4BB3F908200D4BB3F900309A422F
:104F500009DB0B2000220DF023FDBDE810400121EC
:104F6000002018F047B8FFF7ABFA0648FFF79CFAA5
:104F7000204610BD1D2300207C3300204C33002030
:104F80008A0600203C3B030838B5094B094C0D4606
:104F9000006819681CF018FCE1681CF059FAE06020
:104FA000284613F06DFABDE8384014F029BC00BF64
:104FB000700600205C2900202DE9F04F85B09DF996
:104FC000405081462846884617469A469DF8384004
:104FD0009DF83CB0FFF7ACFF064648B924B1024645
:104FE000294609200DF0DCFC304605B0BDE8F08F05
:104FF000BBF1000F28D024B10022294604200DF077
:10500000CFFCFFF75DFA3A48FFF74EFA0121504610
:10501000FFF74EFF0321374B012093F90020197051
:1050200035499B460B4608701978019351B1002110
:1050300050460092FFF73CFF0120FFF7F7F8DDE94B
:105040000023F1E78BF8002024B100222946052037
:105050000DF0A6FC0021D9F800001CF095FC30B939
:10506000264B04A941F8043D4846FFF78DFF002177
:10507000D8F800001CF088FC68B9214D214BD5F808
:105080003890AB631D4B04A941F8043D4046FFF73F
:105090007BFFC5F83890002138681CF09DFC60B19A
:1050A00024B10022062011460DF07AFC164B04A90B
:1050B00041F8043D3846FFF767FF002C94D00323E6
:1050C00000220C4D114695F900802B700A4B0720E9
:1050D0001A700DF065FC0D4B93F900301BB90120DF
:1050E000FFF7A4F8F7E7012B85F80080D3D07BE722
:1050F000E53A0308FC2300201C2300200000C040E8
:10510000FC3000200000C84100004040F023002097
:105110002DE9F743814610460E461446FFF708FF77
:10512000054648B926B10246014609200DF038FC73
:10513000284603B0BDE8F08326B1002221460320B3
:105140000DF02EFC154B02AC0093154B684644F84D
:10515000043D2146FFF718FF41F28830FFF75CFA63
:10516000104E114B114F2146684600930197FFF7EF
:105170000BFFD6F83880B763D9F80030214600938A
:105180000B4B68460193FFF7FFFE0020C6F83880FE
:10519000FEF7C0FE6420FFF73FFAC9E7000050C1E8
:1051A00000007042FC3000200000A8410000C8410F
:1051B000000020412DE9F7433C4D1F462B788046E7
:1051C0008946164623B10024204603B0BDE8F0838B
:1051D000374B1B7818070FD4002110681CF0D4FB44
:1051E00050B9344B1C783CB9334BB3F90820334BDE
:1051F000B3F900309A423FDB0123314A2B70137818
:1052000059074AD411F090FB2E4C2F4B0FCB84E85A
:105210000F0014F0F5FA0021D8F800001CF0B4FBE0
:10522000B0B9244B1B7863B9234B002158681CF09C
:105230000FF91CF0F1FB214B00B2B3F9003098429A
:1052400006DB224B02A941F8043D4046FFF79CFED5
:10525000072013F0D7FB18B94946022010F086FE4C
:10526000002130681CF090FBE8B902223946304634
:10527000FFF74EFF0124A7E7FFF722F91448FFF7D5
:1052800013F9002F9FD02146224609200DF088FBFC
:105290002146104810F0CCFA96E76FF382031370A2
:1052A00002232B70AEE701248EE700BFE423002029
:1052B0001D2300207C3300204C3300208A06002070
:1052C0000C380020CC2300205C2900200000704214
:1052D0003C3B03084D3B0308002210B50446114631
:1052E000904214BF042002200DF05AFBFFF7E8F8AB
:1052F0000448054B002C08BF1846BDE81040FFF7D6
:10530000D3B800BFE53A0308073B03082DE9F84F7F
:1053100089468346FFF7E0FF01214846FFF7C8FDB5
:10532000244A254C1368254F03F52F43C8332360C7
:1053300000232371032397F900A03B7001239046BB
:105340001F4D2B702B7883B300214846FFF7B0FD2B
:10535000237933B300220A2011460DF021FBFFF719
:10536000AFF81848FFF7A0F82E781EB10120FEF71D
:105370005DFFF9E730462660267116F061FF304682
:10538000FFF7D6FD5846FFF7A7FF0121D8F80030F8
:10539000484603F52F43C833236026712970FFF771
:1053A00087FD0120FEF742FFCCE787F800A0BDE8AB
:1053B000F88F00BF7039002044330020FC23002008
:1053C0001C2300201F3B03082DE9F0433B4C99466A
:1053D000237889B006460F469046002B6AD00020FD
:1053E000374B1D791860187116F02AFF7DB9354BBF
:1053F0001B7863B9344B002158681CF029F81CF065
:105400000BFB324B00B2B3F9003098420ADB0023A9
:10541000CDE9015301234246009339464B463046BD
:10542000FFF7CAFD00222A4D114608200DF0B8FAF8
:105430000021E8681CF0B2FA06AE30B1254B3146C7
:1054400005F10C000693FFF79FFD95E80300224A43
:1054500008AB43F80C2D86E803001946304613F0DC
:1054600075F81E4B31461E48069313F079F8EB6829
:105470001C481D4A40F80C3FD36015F08FF80022FD
:10548000092011460DF08CFA2378013BDBB2237022
:1054900023B119F051FA2378013B2370134B93F990
:1054A0000030022B01D111F083FA002010F0D6FB5E
:1054B00009F08EFC09B0BDE8F08300BFE4230020B2
:1054C000443300207C3300204C3300208A06002027
:1054D000CC230020000070420000C8420000A04021
:1054E000D42300206C2900205C29002038290020CA
:1054F00010B50B6804461B69084698472379C0F32A
:10550000400210F01E0F60F3000362F3410314BF6A
:105510000122002262F38203C0F304426271C0F3ED
:105520008072206062F34513C00F60F386136FF33F
:10553000C7132371204610BD0A3908B509291CD8A4
:10554000DFE801F0051B0E1B1B1B1B1B1C141AF0B4
:1055500074F9BDE8084001460A220A48FBF79AB9E7
:105560001AF00DF8BDE80840FFF722B819F0B6FFB1
:1055700018B12A210348FEF76AFC08BD19F0B7FFED
:10558000F6E700BF8C1000200B2908B508D11AF0EF
:10559000C2FABDE8084001460A221048FBF750B99C
:1055A000093907290CD8DFE801F0150B0B0B040CA7
:1055B0000F1219F0D2FF18B12A210848FEF747FC54
:1055C00008BD19F0C1FFF6E719F0B5FFF3E719F0D0
:1055D000A9FFF0E719F0CAFFDBE700BF8C1000203D
:1055E00008B509210148FEF732FC08BD8C100020E7
:1055F00008B558210148FEF72AFC08BD8C10002090
:1056000008B559210148FEF722FC08BD8C10002086
:1056100008B55A210148FEF71AFC08BD8C1000207D
:1056200008B545210148FEF712FC08BD8C1000208A
:10563000F7B5044617461E469DF82050002900F095
:1056400033840921BA48FEF702FC162C00F2DD83F0
:10565000DFE814F01700DB03380061009200C5009A
:1056600027017A01DB03B401DB03F301DB0333021F
:105670006402DB03DB03AD02EA0212034803790391
:10568000AA03FFF7B5FF002F00F062840921A848A4
:10569000FEF7DDFBFFF7B4FF002E00F0A084092128
:1056A000A348FEF7D4FBFFF7B3FF2DB10921A048B3
:1056B000FEF7CDFBFFF7B4FF0A219D48FEF7C7FBBD
:1056C00003B0F0BD9B481AF0A6F8FEF771FF002F5B
:1056D00000F03E8409219648FEF7B9FB96481AF07F
:1056E0009AF8FEF765FF002E00F0798409219048B2
:1056F000FEF7ADFB91481AF08EF8FEF759FF002D2A
:10570000DAD009218A48FEF7A2FB8D481AF083F807
:10571000FEF74EFFD0E7874B0A22B3F848108448C3
:10572000FBF78EF8002F00F0138409218048FEF764
:105730008EFB814B0A22B3F848107D48FBF780F8B6
:10574000002E00F04C8409217948FEF780FB7B4B4A
:105750000A22B3F848107648FBF772F8002DABD058
:1057600009217348FEF773FB0A22754BB3F8481002
:105770006F48FBF765F89FE76E481AF09CFA0A221B
:1057800001466B48FBF75CF8002F00F0E18309212C
:105790006748FEF75CFB68481AF08DFA0A2201465A
:1057A0006348FBF74DF8002E00F01984092160488A
:1057B000FEF74DFB61481AF07EFA0A2201465C486A
:1057C000FBF73EF8002D3FF477AF09215848FEF76C
:1057D0003EFB5B481AF06FFA0A220146C8E75548BB
:1057E0001AF069FA1BF0E4FE1BF0A2FA4EA3D3E90B
:1057F00000231BF0F5FA0023024600934C480B46A9
:10580000FBF716F9002F00F0A38309214848FEF7A3
:105810001EFB49481AF04FFA1BF0CAFE1BF088FA2B
:1058200041A3D3E900231BF0DBFA002302460093D7
:105830003F480B46FBF7FCF8002E00F0D08309210F
:105840003B48FEF704FB3D481AF035FA1BF0B0FE6A
:105850001BF06EFA34A3D3E900231BF0C1FA002336
:105860000246009332480B46FBF7E2F8002D3FF466
:1058700023AF09212E48FEF7EAFA31481AF01BFA45
:105880001BF096FE1BF054FA27A3D3E900231BF06C
:10589000A7FA00230246009325480B46FBF7C8F8F9
:1058A0000AE7244819F0C6FE0A2201462048FAF702
:1058B000F1FF2448FEF7F8FD002F00F0498309218D
:1058C0001B48FEF7C4FA1C4819F0B4FE0A22014630
:1058D0001748FAF7DFFF1B48FEF7E6FD002E00F041
:1058E0007E8309211248FEF7B2FA144819F0A2FE8D
:1058F0000A2201460E48FAF7CDFF1248FEF7D4FD02
:10590000002D3FF4D9AE09210948FEF7A0FA0C4852
:1059100019F090FE01460A220548FAF7BBFF094834
:10592000FEF7C2FDC8E600BF8FC2F5285C8FF63FC8
:105930008C10002054320020A4320020F4320020C9
:10594000043200208A3E0308AD4819F06FFE0A2297
:105950000146AC48FAF79EFFAB48FEF7A5FD002FC5
:1059600000F0F6820921A748FEF771FAA74819F05E
:105970005DFE0A220146A348FAF78CFFA248FEF713
:1059800093FD002E00F02B8309219E48FEF75FFA5D
:105990009F4819F04BFE0A2201469A48FAF77AFF0F
:1059A0009948FEF781FD002D3FF486AE0921954808
:1059B000FEF74DFA974819F039FEABE7904819F019
:1059C000D5FD0A2201468F48FAF73AFF8E48FEF7C6
:1059D0006BFD002F00F0BC8209218A48FEF737FAE0
:1059E0008A4819F0C3FD0A2201468648FAF728FFC3
:1059F0008548FEF759FD002E00F0F182092181480B
:105A0000FEF725FA824819F0B1FD0A2201467D48C9
:105A1000FAF716FF7C48FEF747FD002D3FF44CAE29
:105A200009217848FEF713FA7A4819F09FFD0A22F7
:105A300001467448FAF704FF71E7714819F00EFD4A
:105A4000754A764B002814BF10461846FEF72CFD09
:105A5000002F00F07D8209216A48FEF7F8F96B48B3
:105A600019F0FCFC6C4A6D4B002814BF1046184618
:105A7000FEF71AFD002E00F0B28209216148FEF700
:105A8000E6F9634819F0EAFC634A644B002814BF46
:105A900010461846FEF708FD002D3FF40DAE092113
:105AA0005848FEF7D4F95B4819F0D8FC5A4A5B4BCA
:105AB000002814BF1046184632E751481AF05CF926
:105AC0000A2201464F48FAF7BBFE002F00F0408241
:105AD00009214C48FEF7BBF94C481AF04DF90A224F
