:020000040800F2
:1000000000C00020A5030008310E0008350E0008CE
:10001000390E00083D0E0008410E00084B1500087F
:100020004B1500084B1500084B1500084B15000830
:100030004B1500084B1500084B1500085D1500080E
:100040004B1500084B1500084B1500084B15000810
:100050004B1500084B150008850E0008A50E00087A
:10006000C50E0008E50E0008050F0008D50C0008B5
:10007000ED0C0008050D0008210D00083D0D0008DD
:10008000590D0008750D0008E10A00084B1500081D
:10009000D52000084B1500084B150008250F000857
:1000A000411800086518000889180008C1180008E0
:1000B0001519000885190008F51900083D120008F7
:1000C0005512000849120008611200084B1500087B
:1000D0004B150008411E0008911E0008E11E000893
:1000E000690F00084B1500084B1500081D1B000880
:1000F000411B0008651B00089D1B0008390B000808
:100100004B1500084B150008651A00084B15000830
:10011000311F0008811F0008D51A0008F91A0008CD
:10012000910D0008A90D0008C10D0008DD0D0008A3
:1001300010B5054C237833B9044B13B10448AFF321
:1001400000800123237010BD781000200000000003
:100150007816030808B5034B1BB103490348AFF3F6
:10016000008008BD000000007C1000207816030805
:1001700010B512490A2309220968114800F0EAF96A
:1001800010490323022209680F4800F0E3F90F49E0
:100190001B231A2209680E4800F0DCF90D492B23B5
:1001A0002A2209680C4800F0D5F9BDE810400B4937
:1001B00032232C2209680A4800F0CCB984020020BE
:1001C0009410002088020020AC1000208C02002037
:1001D000C41000207C020020DC10002080020020DF
:1001E000F410002010B5044600F0FCFC034B204640
:1001F000BDE81040197800F05CBC00BF160000207C
:10020000F8B50446056801F005FA002223685B0191
:1002100003F184431A6080232B600123AB622A61BF
:10022000EA606B61637973B1012B0FD001222368FF
:100230005B0103F18443C3F8802223685B0103F16F
:1002400084431A60F8BD4FF400436B644FF6FF72AD
:1002500000252368DA626E1CF7B23946204601F0A9
:10026000EEF9E8B148F6FF72236817F0010F03F1C9
:10027000340343F8252014BF6FF0FF026FF47F4270
:1002800023684FEA650503F1180353F8251001EAC6
:10029000020114BF68224FF4D0420A4343F82520DC
:1002A000042E3546D7D1C1E77047000038B5002588
:1002B000264A274C1368022043F01003136000F015
:1002C00075FE002001F036F865602368182023F4DD
:1002D0000023236001F03AF8102001F037F800F015
:1002E00043F8A560102001F025F8102001F03CF83B
:1002F0000028FAD000F039F8164801F041F818202B
:1003000001F018F8182001F02FF80028FAD0022088
:1003100001F000F800214FF0006000F0D1FF0E481E
:1003200001F014F900F038F80C4B188800F042FC8A
:100330000B4800F043FC0B4801F046F900F02EF8A2
:1003400000F02DF8FFF7B0FF38BD00BF00200240DD
:10035000001002400C0000203F1901001400002092
:10036000E5010008010200087047002108B50846B1
:1003700001F046F84FF48061012001F041F80021BE
:10038000022001F03DF82D2001F04AF8BDE80840B8
:100390000021032001F034B800F01CBE704700F0CB
:1003A00058BE000001498D460149084700C00020A1
:1003B000B503000808B5114B1A68114B9A4213D1C6
:1003C000104B114A934213D32AF01AFA0022114615
:1003D000104602F0CFFD0D4B7BB129F0ADFF52F876
:1003E000041B043343F8041C09498B42F7D3E7E7A5
:1003F0000022043343F8042CE3E7FEE760780308A7
:100400000000002078100020F838002039A30208EE
:100410007810002010B50D4B1A680AB90C4A1A6002
:100420001A680C49891A814204DB09494442511A6D
:10043000A14207DA29F07AFF0C234FF0FF32036064
:10044000104610BD10441860FAE700BF0C110020E0
:10045000F8380020E8E80328002070474FF40053E4
:1004600000204B607047012070474FF0FF3070470D
:100470000020704710B50C46FFF7FAFF20700120EE
:1004800010BD704770B515460C468E18B44201D1A8
:10049000284670BD14F8010BFFF7F3FFF6E7FEE7FF
:1004A000C38882889B1AC2888188914282BF028950
:1004B00001329B1898B2704710B50369044658681A
:1004C000FFF7EEFF88B123695B689A88196892B2DA
:1004D000885C99881A89C0B292B28A420FBF002202
:1004E0009A88013292B29A8010BD4FF0FF30FBE73C
:1004F00008B503695868FFF7D3FF08BD03695B6857
:100500009988DA8892B28A421FBF9A881B6892B291
:10051000985C14BFC0B24FF0FF3070470269916819
:100520008888CB889BB28342FAD1126813685B0635
:10053000FCD5704713B504698DF8071001220DF141
:100540000701204601F09FFB0028F7D0012002B0F0
:1005500010BD000030B54FF0000C4FF47A75C0E9C3
:1005600001C5034D016105600275437530BD00BFD3
:10057000202C03082DE9F74303690446DB6888460D
:100580008B42914625D3067D134D3601AB19477D2D
:10059000586818B10022597B01F008F9206901F070
:1005A00027FB39016A18127BAB19CDF804901B7B2D
:1005B000695800932069AB5901F0E1FB206942467C
:1005C000002101F002FC206903B0BDE8F04301F016
:1005D00035BB03B0BDE8F083E82803080022FFF72D
:1005E000C9BF0000044B02791B789A4202BF034B3B
:1005F0001B681860704700BF3011002034110020C4
:10060000002310B50446036072B6054B193119700A
:10061000044B1860044800F0D7FF62B6204610BDB6
:100620003011002034110020E50500080022036885
:100630001B685B0103F184431A6070470122036861
:100640001B685B0103F184431A607047036801393A
:100650001B6889B29962704703681A68D36A9BB2B3
:10066000994228BF19465162704738B561B90122D5
:1006700003681B68996203681B68DA6203681B6879
:10068000DC6AA4B2204638BD48224A434FF6FF71C7
:10069000B2FBF1F1013189B202EB5102B2FBF1F28E
:1006A00094B2FFF7D3FF036892B21B68DA62E9E7FE
:1006B000C9B2006800F0DCBF012203681B685B015F
:1006C00003F18443C3F880227047000008B501217C
:1006D0001048FFF795FF02210F48FFF791FF032114
:1006E0000E48FFF78DFF04210D48FFF789FF052114
:1006F0000C48FFF785FF06210B48FFF781FF072114
:100700000A48FFF77DFFBDE8084008210848FFF7C9
:1007100077BF00BF10110020141100201811002015
:100720001C1100202011002024110020281100207D
:100730002C110020F8B506460C4615468F18A74226
:1007400006D0336814F8011B1B6830469847F6E75B
:100750002846F8BD70B505460C46084649B12BF051
:100760000BF92B68024621462846BDE870409B687D
:10077000184770BD0368C9B21B68184703685B68F7
:10078000184738B50D210546FFF7F4FF0A21044646
:100790002846FFF7EFFF204438BD38B50546FFF780
:1007A000EDFF04462846FFF7ECFF204438BD2DE955
:1007B00070439046994690B058EA090306469DF862
:1007C000585007D13021FFF7D5FF0125284610B03A
:1007D000BDE870830024404649462A46002320F0A5
:1007E000E9FA8046894601340DEB040303F8012C35
:1007F00058EA0903EFD10025013C1DF804103046EA
:10080000092994BF3031373149B2FFF7B3FF0544AE
:10081000002CF1D1DAE72DE9F0411D46002A75F1EF
:10082000000307461446069E05DA2D21FFF7A2FFB6
:10083000644265EB4505F6B2069622462B463846DD
:10084000BDE8F041FFF7B3BF07B5CB1700920A46EA
:10085000FFF7E1FF03B05DF804FB38B50546FFF78D
:10086000F3FF04462846FFF78CFF204438BD07B548
:10087000CB1700920A46FFF7CEFF03B05DF804FBEA
:1008800037B5CB1700920A460546FFF7C4FF04466A
:100890002846FFF776FF204403B030BD07B5D2B23B
:1008A00000920023CAB2FFF782FF03B05DF804FB99
:1008B00007B5D2B2009200230A46FFF778FF03B0D3
:1008C0005DF804FB37B5D2B2009200230A46054614
:1008D000FFF76DFF04462846FFF753FF204403B09F
:1008E00030BD0000000000002DE9F34717461E460A
:1008F000824600220023384631461FF089FE9DF8CB
:1009000028504FF00104F8B143A3D3E9002338463F
:1009100031461FF073FE00B90446E4B20022002302
:1009200038463146C4B11FF055FE18B12D2150464E
:10093000FFF720FF04463C495046FFF71FFF0444E1
:10094000204602B0BDE8F08735A3D3E9002338463E
:1009500031461FF049FEDEE71FF03CFE30B12D218D
:100960005046FFF707FF044606F100464FF0000827
:1009700000202E495FFA88F39D4206D900222C4BB5
:100980001FF0E0FC08F10108F4E73A4633461FF097
:10099000F9F906460F4620F025FA0A23024600938D
:1009A00080460B4650468946FFF735FF0444002D2C
:1009B000C6D0404649461FF06DFB02460B46304606
:1009C00039461FF0DDF906460F4650461949FFF734
:1009D000D5FE0444013DEDB2FF2DB1D0144B0022F1
:1009E000304639461FF084FB0F4606461FF01AFEBC
:1009F0000A22014680465046FFF726FF044440463F
:100A00001FF00CFB02460B46304639461FF0B8F982
:100A100006460F46DEE700BF800350726C92DF434C
:100A2000800350726C92DFC33C2C03080000E03F4F
:100A300000002440925203089DF800100091FFF737
:100A400053BF37B59DF8181005460091FFF74CFFCE
:100A500004462846FFF795FE204403B030BD000051
:100A600030B504460D4687B0064901A82AF070FD4E
:100A700022462B4601A90A982AF06AFD0A9807B077
:100A800030BD00BF4B2C0308FEE7704710B504468D
:100A9000007900F083FC2079BDE8104000F096BC9E
:100AA000026841F48011936823F460231943916034
:100AB0007047002330B51C461D4603EB4302072B4D
:100AC00001FA02F203F10103D8BF15430A2B44EAED
:100AD0000204F2D10368DD6003681C6130BD0000D0
:100AE00070B5144C23681B681D68A90707D51A68E0
:100AF00022F002021A6023689B6803B198476A07D4
:100B000009D523681A68136823F004031360236867
:100B10001B6903B19847EB070BD523681A68136864
:100B200023F0010313602368DB6813B1BDE8704054
:100B3000184770BD1C00002070B5144C23681B685A
:100B40001D68A90707D51A6822F002021A602368F7
:100B50009B6803B198476A0709D523681A68136828
:100B600023F00403136023681B6903B19847EB0764
:100B70000BD523681A68136823F0010313602368F8
:100B8000DB6813B1BDE87040184770BD2400002039
:100B9000012203685B0103F1844303F58673191F87
:100BA0001A6018680028FCD143F8042C0B68002B4D
:100BB000FCD170470146042000F022BC10B5044669
:100BC000054B1868A047054B1868A047044B1868E8
:100BD0002346BDE8104018471C00002020000020DC
:100BE0002400002010B50446FFF750FF20464FF4C4
:100BF0006021FFF755FF0122236820465B0103F1C6
:100C00008443C3F8502123685B0103F18443C3F894
:100C10000021BDE81040FFF7BBBF007900F0BEBB6C
:100C200014230139594300680830435823F44053D2
:100C300043EA0232425070470368142008330139F6
:100C400000FB01314A60704700EBC10340F83120DE
:100C500093F90430002B08DB0122591103F01F0324
:100C600002FA03F3014A42F82130704700E100E044
:100C700014220368013902FB01310123490101F10A
:100C80008441C1F80031704714220368013902FB26
:100C900001310023490101F18441C1F8003170475D
:100CA0002DE9F04114251C4690464B1E5D43066815
:100CB000FFF7EAFF9DF81C30240244EA8324089BD6
:100CC00008361C43069B77197451FB60C7F80880EF
:100CD000BDE8F08110B5044B1C68A3681BB19847B0
:100CE000012223685A6010BD6000002010B5044B3B
:100CF0001C6823691BB19847102223685A6010BDF5
:100D00006000002010B5054B1C68A36923B198470B
:100D10004FF4807223685A6010BD00BF600000204D
:100D200010B5054B1C68236A23B198474FF48052D5
:100D300023685A6010BD00BF6000002010B5054B4D
:100D40001C68A36A23B198474FF4803223685A6025
:100D500010BD00BF6000002010B5054B1C68236B60
:100D600023B198474FF4801223685A6010BD00BF2A
:100D70006000002010B5054B1C68A36B23B1984799
:100D80004FF0807223685A6010BD00BF60000020E1
:100D900010B5044B1C68A3681BB198470122236857
:100DA0005A6010BD6400002010B5044B1C68236914
:100DB0001BB19847102223685A6010BD64000020C0
:100DC00010B5054B1C68A36923B198474FF4807296
:100DD00023685A6010BD00BF6400002038B5104C75
:100DE000636CD8070BD52368D90408D50D4B1D6853
:100DF0002B6A23B198474FF480522B685A60A36D39
:100E0000DA070BD52368DB0308D5064B1C68A36AF9
:100E100023B198474FF4803223685A6038BD00BF31
:100E200000040240640000200000000000000000F8
:100E3000012007E0022005E0032003E0042001E098
:100E40000520FFE70D4A0121116072B60C4A00210E
:100E50001160074902B4084902B486B005498E46BC
:100E6000704700BFAFF30080AFF30080AFF30080A6
:100E700000000061F9FFFFFF412F000814ED00E0C2
:100E800010E000E008B5054A136833B15068984790
:100E90000122034B5A6100BF00BF08BD381100207A
:100EA0000004014008B5054A936833B1D0689847FB
:100EB0000222034B5A6100BF00BF08BD3811002059
:100EC0000004014008B5054A136933B150699847D9
:100ED0000422034B5A6100BF00BF08BD3811002037
:100EE0000004014008B5054A936933B1D0699847B9
:100EF0000822034B5A6100BF00BF08BD3811002013
:100F00000004014008B5054A136A33B1506A984796
:100F10001022034B5A6100BF00BF08BD38110020EA
:100F2000000401402DE9F041002705240C4DD5F8BF
:100F300014800126A64018EA060F08D0094BE100EC
:100F400053F834201AB10B445868904737430134A2
:100F50000A2CEED16F6100BF00BFBDE8F08100BF79
:100F600000040140381100202DE9F04100270A2437
:100F70000C4DD5F814800126A64018EA060F08D0BB
:100F8000094BE10053F834201AB10B4458689047DC
:100F900037430134102CEED16F6100BF00BFBDE8B4
:100FA000F08100BF0004014038110020034A13689B
:100FB00023F0070318431060704700BF0020024071
:100FC00010B50446007900F0E9F92079BDE8104039
:100FD00000F0FCB908B50748FFF7F2FF0648FFF735
:100FE000EFFF0648FFF7ECFFBDE808400448FFF7B5
:100FF000E7BF00BFD8000020E0000020E80000208C
:10100000F000002070B50F250368CE0801F007003E
:10101000840053F82600092A05FA04F520EA05059C
:1010200014BF10460820A0402843082A43F8260091
:1010300007D10120DA6800FA01F122EA0101D96042
:1010400070BD092AFCD10122D86802FA01F10143DE
:10105000F5E708B5032000F0A1F9BDE8084003203A
:1010600000F0B4B903681A6812F4985FFBD11A68EB
:1010700042F480721A60704703681A6812F4985F2D
:10108000FBD11A6842F400721A600268136813F404
:10109000985FFBD17047000070B5026845685169E0
:1010A00092695A4AAE781268CB07044606F00106E8
:1010B000C26014D50023EB8000F0D8F82268536892
:1010C00043F48063536026B12268136843F480635D
:1010D000136000212B88226846EA4303136111F054
:1010E0000A0F10D0AB88002E45D0012B0AD1226800
:1010F0002046136823F480631360A38B012B37D938
:10110000FFF7B0FF002101F08402802A03D1A38BF6
:10111000002B49D1002101F08402842A0DD1A18B3A
:101120002046002954D0FFF79DFF22685369D90754
:10113000FCD5002163680C3363604B0661D52368DE
:10114000AA681969EB88581CE880D154AB88EA88F2
:10115000591E8A424BD122682046136823F48063CB
:101160001360A38B022B3ED9BDE87040FFF77ABF16
:10117000FFF782FFC6E7012B08D9EB88A9685A1C44
:10118000EA802268CB5C13613146BCE7002BFBD1BF
:101190002046FFF771FF2268536823F40073536001
:1011A000022384F82330ADE7EB88A9685A1CEA8053
:1011B0002268CB5C1361EA88AB889A42AAD1226884
:1011C000536823F480635360A38B013BA383A1E79F
:1011D000FFF752FF2268536823F400735360022321
:1011E00084F82330A9E7BDE87040FFF745BF9A4275
:1011F00007D1A38B013B9BB2A3831BB9022384F8C5
:10120000233070BD63680C336360FAE790380020C8
:1012100008B50268536903F4706383600023536167
:1012200002689361FFF728FF0268536823F4E063C4
:101230005360FF2380F8233008BD00000148FFF70A
:101240002BBF00BFF80000200148FFF725BF00BFFB
:101250001C0100200148FFF7DBBF00BFF8000020A1
:101260000148FFF7D5BF00BF1C01002010B50446A0
:10127000002190F9210000F00FF894F922000021DC
:10128000BDE8104000F008B84AF6AA22014B1A60E7
:10129000704700BF003000400028A8BF00F1604048
:1012A0004FEA0111B8BF054BC9B2B5BF00F00F003E
:1012B00000F56140195480F80013704714ED00E008
:1012C00010B5002421F0604121F07F01064A01435E
:1012D000916060B20F210134FFF7DEFF3C2CF8D1A2
:1012E000F02382F8233010BD00ED00E00449054BE7
:1012F000CA6802F4E0621343CB60BFF34F8FFEE78E
:1013000000ED00E00400FA05014B13F810007047EF
:10131000702C0308064B5A6822F0030202435A60FD
:1013200080005A6802F00C028242FAD1704700BF76
:1013300000100240030AC2B2012003F1804303F50A
:101340000433196890400843186070470121030A6C
:1013500003F1804303F504331A68C0B201FA00F0C8
:1013600022EA000018607047030A03F1804303F586
:1013700004331A680223C0B203FA00F01040704729
:10138000054A0168536823F474130B4341680968E4
:101390000B435360704700BF0010024010B5044675
:1013A000FFF7B2FF074B53F82020074800EB44003B
:1013B000437803EBC20301229B0003F184431A60CC
:1013C00010BD00BF40010020702C030810B504467A
:1013D000FFF79AFF084B53F82020084800EB440021
:1013E000437803EBC20301229B0003F184431A609C
:1013F00000221A6010BD00BF58010020702C0308A5
:1014000010B5054A054C536854F8200023EA000340
:101410000B43536010BD00BF001002405C2C03085A
:1014200010B50446FFF770FF074B53F8202007481C
:1014300000EB4400437803EBC20300229B0003F15E
:1014400084431A6010BD00BF4C010020702C0308BB
:1014500001EBC000800000F184400260704710B5CD
:1014600004460079FFF79AFF2079BDE81040FFF7A6
:10147000ADBF012206210068FFF7EABF0022062166
:101480000068FFF7E5BF10B50C46016803464A68DF
:1014900022F0E0024A6002681268624012F4205FA3
:1014A00001D0FFF7EBFF1A6818461460BDE8104042
:1014B000FFF7DFBF134343F004031943FFF7E3BF14
:1014C0000122006811460430FFF7C2BF0068002205
:1014D00001210430FFF7BCBF006801220021043065
:1014E000FFF7B6BF002203685B0103F18443C3F832
:1014F00080207047F8B51046069C9DF81C709DF83A
:1015000020609DF8245081B10B2239462046FFF718
:1015100079FD042231462046FFF774FD0B2229464F
:101520002046BDE8F840FFF76DBD19460422FFF7DD
:1015300069FD042239462046FFF764FD0B2231463F
:101540002046FFF75FFD0422E9E7FEE70722024B92
:1015500058601A60704700BF10E000E0044A13684A
:1015600001331360034B1B6803B11847704700BF7A
:1015700090380020B811002011F0010F70B501F172
:10158000FF340DBF082500256FF0FF016FF47F4188
:101590000068C4F34004183050F82460134331400D
:1015A000AB400B4340F8243070BD02684B1E02F183
:1015B000404220329B0003EBC20301229B0003F157
:1015C00084431A607047000010B504460948A047DC
:1015D0000948A0470948A0470948A0470948A0472B
:1015E0000948A0470948A0472346BDE810400848DD
:1015F000184700BF84010020AC010020D00100206A
:10160000F4010020180200203C02002048020020C3
:101610005402002010B504460079FFF7BFFE207980
:10162000BDE81040FFF7D2BE0023026813600268D5
:10163000D3604279012A9CBF026813627047037924
:101640001E2B10D9212B0ED0202B0ED9222B01D0EE
:10165000252B04D102298CBF0020012070474B1E8E
:1016600058425841704701207047002070470000E1
:101670008B1C40F82320012342798B4010B5DB43BB
:10168000EAB1012A41F65F6218BF0122134001222C
:1016900004682361036803F140430C3301EBC30387
:1016A0009B0003F184431A60427903793ABB07290E
:1016B00015D8DFE801F007151515151A1A1F41F6A0
:1016C000FF62E3E71A2B0CBF19232C2301225909CF
:1016D00003F01F0302FA03F3254A42F8213010BD3C
:1016E0001A2B0CBF1B232E23F0E71A2B0CBF1A2337
:1016F0002D23EBE71A2B0CBF18232B23E6E71B3B0C
:101700000C2BECD801A252F823F000BF6D17000893
:101710004117000845170008491700084D17000831
:1017200051170008DF160008551700085917000860
:101730005D170008611700086517000869170008A1
:101740001D23C3E71E23C1E73223BFE73623BDE7CE
:101750003723BBE71823B9E71923B7E71A23B5E7FF
:101760002B23B3E72C23B1E72D23AFE71C23ADE7F1
:1017700000E100E00022036803F140430C3301EB79
:10178000C3039B0003F1844302311A6040F8212017
:10179000704738B504460D4613460022FFF7ECFEAD
:1017A00029462046BDE83840FFF7FFBE38B54379EB
:1017B0000546022B0C4615D0042A13D8DFE802F0A8
:1017C00003132A2D3A00FFF7D5FF0268631E02F1CA
:1017D000404220329B0003EBC20300229B0003F136
:1017E00084431A6038BD0022036803F140430C3380
:1017F00001EBC3039B0003F184431A6008236022BA
:1018000021462846FFF7B8FE21462846BDE8384065
:10181000FFF7CBBE00231022F2E74FF2F11203686C
:101820009A61032203689A60036801225B0103F155
:101830008443D6E70122BDE83840FFF7AABF000085
:1018400010B5074A1468E36821690B401B0606D5EA
:10185000536A23B19847236923F08003236110BDA5
:101860008401002010B5074A1468E36821690B4021
:10187000DB0706D5936823B19847236923F001035A
:10188000236110BD84010020F8B50C4D2F68FE685F
:101890003B691E4016F0400403D02C6A0CB1A047EF
:1018A0004024B30604D5EB6913B1984744F02004F3
:1018B0003B6923EA04043C61F8BD00BF84010020B9
:1018C000F8B5134D2F68FE683B691E4016F01004F2
:1018D00003D0AC690CB1A0471024310704D56B6963
:1018E00013B1984744F00804720704D52B6913B16B
:1018F000984744F00404B30704D5EB6813B1984744
:1019000044F002043B6923EA04043C61F8BD00BFD3
:1019100084010020F8B51A4D2F68FE683B691E400F
:1019200016F0400403D02C6A0CB1A0474024F30603
:1019300004D5AB6913B1984744F01004300704D5BF
:101940006B6913B1984744F00804710704D52B69FB
:1019500013B1984744F00404B20704D5EB6813B1FF
:10196000984744F00204F30704D5AB6813B19847D5
:1019700044F001043B6923EA04043C61F8BD00BF64
:10198000AC010020F8B51A4D2F68FE683B691E4077
:1019900016F0400403D02C6A0CB1A0474024F30693
:1019A00004D5AB6913B1984744F01004300704D54F
:1019B0006B6913B1984744F00804710704D52B698B
:1019C00013B1984744F00404B20704D5EB6813B18F
:1019D000984744F00204F30704D5AB6813B1984765
:1019E00044F001043B6923EA04043C61F8BD00BFF4
:1019F000D0010020F8B51A4D2F68FE683B691E40E3
:101A000016F0400403D02C6A0CB1A0474024F30622
:101A100004D5AB6913B1984744F01004300704D5DE
:101A20006B6913B1984744F00804710704D52B691A
:101A300013B1984744F00404B20704D5EB6813B11E
:101A4000984744F00204F30704D5AB6813B19847F4
:101A500044F001043B6923EA04043C61F8BD00BF83
:101A6000F4010020F8B51A4D2F68FE683B691E404E
:101A700016F0400403D02C6A0CB1A0474024F306B2
:101A800004D5AB6913B1984744F01004300704D56E
:101A90006B6913B1984744F00804710704D52B69AA
:101AA00013B1984744F00404B20704D5EB6813B1AE
:101AB000984744F00204F30704D5AB6813B1984784
:101AC00044F001043B6923EA04043C61F8BD00BF13
:101AD0001802002010B5074A1468E36821690B401A
:101AE000DB0706D5936823B19847236923F00103E8
:101AF000236110BD3C02002010B5074A1468E3685A
:101B000021690B40DB0706D5936823B19847236909
:101B100023F00103236110BD4802002010B5074ADD
:101B20001468E36821690B401B0606D5536A23B18C
:101B30009847236923F08003236110BD54020020DD
:101B400010B5074A1468E36821690B40DB0706D526
:101B5000936823B19847236923F00103236110BDE3
:101B600054020020F8B50C4D2F68FE683B691E40FA
:101B700016F0400403D02C6A0CB1A0474024B306F1
:101B800004D5EB6913B1984744F020043B6923EA7C
:101B900004043C61F8BD00BF54020020F8B5134DA9
:101BA0002F68FE683B691E4016F0100403D0AC6934
:101BB0000CB1A0471024310704D56B6913B19847C5
:101BC00044F00804720704D52B6913B1984744F018
:101BD0000404B30704D5EB6813B1984744F002043A
:101BE0003B6923EA04043C61F8BD00BF54020020B5
:101BF00000223F2110B50446436810309A801860D7
:101C0000DA801981A3689A80DA8004F15002198180
:101C10001A6094F89000FFF7C1FB94F99130002B03
:101C200008DB0122591103F01F0302FA03F3024AF1
:101C300042F8213010BD00BF00E100E00368DA681F
:101C400042F02C02DA60DA6842F40052DA6070473F
:101C500010B5036881688C88CA8892B2A242FAD112
:101C6000DA68910402D51A685206F9D5DA6822F4C6
:101C70000052DA60426893889BB2D380826893886E
:101C80009BB2D38010BDF0B50B4606460468B5681C
:101C9000581AAF88ED88ADB2BD4204D125682D0633
:101CA00001D5824210D8E36823F08003E3609042BC
:101CB000B3680DD39A88DB889BB293421EBFE3685A
:101CC00043F08003E360F0BD13F8010B6060DEE7D2
:101CD000DD889F880135BD42ECD0DF881D89ADB21B
:101CE000BD4203D19D88ADB2002DE3D0DD8811F84F
:101CF00000C01F68ADB207F805C0DF881D8901303C
:101D0000ADB2BD420FBF0025DD880135ADB2DD802B
:101D1000CDE703468288016892B2885C99881A8967
:101D2000C0B292B28A420FBF00229A88013292B2A8
:101D30009A80704738B5C38882880133934204463D
:101D40000D4607D0C28803899BB2934214D1838881
:101D50009BB28BB92046FFF7DCFFE38822689BB279
:101D6000D554E28823899BB293420FBF0023E388B6
:101D700001339BB2E38038BD4FF0FF30EDE770B523
:101D80001E460546084611460422059CFFF73AF90F
:101D90000B229DF810103046FFF734F929686302D2
:101DA000CA6803F4F05322F4F0521204120C1343E5
:101DB000CB602A682402136904F4405423F440538E
:101DC0001B041B0C1C43146170BD38B5054614463A
:101DD00011B900F0FDF8014619235943A200B1FBE7
:101DE000F2F26421B2FBF1F001FB10231B0132334C
:101DF000B3FBF1F303F00F032C6843EA00139BB22B
:101E0000A36038BD10B50446084B1868A047084BBE
:101E10001868A047074B1868A047074B1868A047E9
:101E2000064B18682346BDE810401847840200207E
:101E3000880200208C0200207C020020800200200A
:101E400010B5104CE368980607D52368990604D5A9
:101E500061680D48C9B2FFF76DFFE3681A060BD53C
:101E600023681B0608D509488288C3889BB2934221
:101E700003D0FFF74EFF606010BDE36823F08003DE
:101E8000E360F9E700380140EC110020F811002070
:101E900010B5104CE368980607D52368990604D559
:101EA00061680D48C9B2FFF745FFE3681A060BD514
:101EB00023681B0608D509488288C3889BB29342D1
:101EC00003D0FFF726FF606010BDE36823F08003B6
:101ED000E360F9E7004400400412002010120020E3
:101EE00010B5104CE368980607D52368990604D509
:101EF00061680D48C9B2FFF71DFFE3681A060BD5EC
:101F000023681B0608D509488288C3889BB2934280
:101F100003D0FFF7FEFE606010BDE36823F080038E
:101F2000E360F9E7004800401C120020281200205E
:101F300010B5104CE368980607D52368990604D5B8
:101F400061680D48C9B2FFF7F5FEE3681A060BD5C4
:101F500023681B0608D509488288C3889BB2934230
:101F600003D0FFF7D6FE606010BDE36823F0800366
:101F7000E360F9E7004C0040BC110020C8110020CC
:101F800010B5104CE368980607D52368990604D568
:101F900061680D48C9B2FFF7CDFEE3681A060BD59C
:101FA00023681B0608D509488288C3889BB29342E0
:101FB00003D0FFF7AEFE606010BDE36823F080033E
:101FC000E360F9E700500040D4110020E011002048
:101FD00008B590F89000FFF797F920B10128034861
:101FE00018BF002008BD0248FCE700BF00A24A0459
:101FF0000051250230B548F28005094C226822F4D0
:10200000804222F070022A4342402260236823F477
:10201000E04323F040032B434B40236030BD00BF1F
:10202000005C0040284B072818BF18701A78052A52
:1020300048D8DFE802F003131E232B364FF6FB715E
:10204000224A106C014011644FF43F411164062292
:102050001A701F4B1B685A7B1A7370474FF6FB713F
:102060001A4A106C014011644FF43F41116404227C
:1020700002E002225A7003221A7006E05A78013AEE
:10208000D2B25A705A78002AF1D070470F490A6CC0
:1020900092B242F010020A6405221A700A225A70A3
:1020A00070475A78013AD2B25A705A78002AECD165
:1020B0004FF6EF720549086C02400A64044A126840
:1020C000517B11730622D7E794380020005C004052
:1020D000740500202DE9F0415F4D604A2B68546C77
:1020E0001B68A4B223405E0506D56FF48063536479
:1020F0005B4B1B685B6898472A6813682340980409
:1021000042BF6FF40051554B596413682340D90402
:1021100006D56FF4C052514B00205A64FFF782FF7E
:102120002B681A68224012050FD54C490A6C92B2EE
:1021300042F0080042F00C0208640A641A7B5A73E9
:1021400003221A736FF4C0524A641A68224097053A
:1021500042BF6FF40071414A51641B682340DE05A1
:1021600006D56FF480723D4B07205A64FFF75AFF83
:102170002B681B681C40240403D5384C676C3B0457
:1021800001D4BDE8F0816FF4004317F00F066364DB
:1021900038D148F68003D4F8008018EA030FECD059
:1021A0001FFA88F32F4D304E03F440524FF4005085
:1021B00003F03003202133802A80FFF71BFFF8064D
:1021C00023680ED423F4E14323F070031B041B0C9B
:1021D000236000F09BFD31882888BDE8F041FFF7BF
:1021E00009BF18F0800FEDD123F070031B051B0D04
:1021F00018F4006F236002D000F0A6FBEBE700F0BC
:1022000003FDE8E7B40004F1804404F5B84427680E
:1022100039040DD5236823F070031B051B0D2360C3
:102220002A6806F180439268013B52F823309847B0
:102230003A06A2D5236806F1804623F4E14323F051
:1022400070031B041B0C23602B68013E5B6853F872
:102250002630984791E700BF74050020005C0040DD
:102260009C3800209638002098380020800000F12B
:10227000804000F5B840036823F4804323F07003E6
:1022800043F4004343F0800359400160704700006D
:1022900018B90722024B1B681A820248704700BF18
:1022A000A4380020E40500200022012110B5104BC5
:1022B0001B689A720F4B19640F490868026008681E
:1022C00004681C644FF4E0545A64046008680468AD
:1022D0001C644FF43F445A64046008680068186442
:1022E0004FF48010054B18600B681A7310BD00BFC7
:1022F000A4380020005C00407405002000E100E0EC
:1023000013B5104B1A68137803F07F03212B16D1F5
:10231000022808D0222801D0022405E093780A4A36
:1023200003F0030313700024084B1B6823B102A9B8
:1023300001F8010D02209847204602B010BD02248A
:10234000FAE700BFA4380020381200203412002021
:1023500021B901288CBF022000207047022070475D
:10236000054B1B689B78032B04D8044901EBC30180
:1023700000F0BCBA00207047A4380020CC05002033
:10238000014900F0B3BA00BF88050020014900F000
:10239000ADBA00BF9005002037B5114C2268127805
:1023A00002F07F02212A02D0022003B030BDA0F14A
:1023B0002003012B0B4B0C4D1B6888BF002523B15C
:1023C00002A901F8010D02209847002DECD02368E6
:1023D00000249D615C822046A8472046E5E700BFB7
:1023E000A438002034120020912200082DE9F04783
:1023F00000254FF0C00948F68F1648F280074FF0CD
:10240000400A434B434C1B68DFF838819D7283F8C8
:102410000990256523682846334043F40073236000
:10242000236803EA08033B4383F010032360226D13
:10243000394B520043F802A08022236D5B0003F168
:10244000804303F5C0431A60236823F4E24323F07A
:1024500070031B041B0C2360304B1B6893F82C107B
:1024600000F072F84FF440512846FFF7FFFEA368D2
:102470002946334043F4C063A360226D284B5200C9
:1024800013444FF480721A60A268022002EA080224
:102490003A4382F02002A260FFF7E8FEE36851466B
:1024A0003340E360226D1F4B520013444FF4887297
:1024B00003201A6000F048F84FF440510320FFF762
:1024C000D5FE636829461E406660226D164B520099
:1024D00043F802906368012003EA08033B4383F05A
:1024E00020036360FFF7C2FE0122104B28461B68E1
:1024F0001A7300F0EBFBFF220D4B1D600D4B1D60AE
:102500000D4B1D600D4B1D600D4B1A70BDE8F08723
:10251000A4380020005C0040086000409C38002087
:1025200020600040386000401060004074050020CA
:102530003C12002040120020481200204C120020C3
:1025400044120020BF8FFFFF0D4B0E4A1B6D3E292A
:1025500003EBC0004FEA400002440AD94B09C80609
:1025600004BF03F1FF339BB29B0243F400431360AB
:1025700070474B08C90748BF01339B02F7E700BF0C
:10258000005C00400C60004010B5064C18B90122F8
:1025900023681A8210BD044B1B681B68984720688B
:1025A0000A30F7E7A4380020A038002010B5064C08
:1025B00018B9012223681A8210BD044B1B689B685E
:1025C000984720680C30F7E7A4380020A038002096
:1025D00010B51E4B1C68002310B90223238210BDC6
:1025E0001B4803802178024611F07F0112D1617AE5
:1025F0008C0644BF02230370037848064CBF23F0C7
:10260000010343F001031370124B1B681B699847C9
:102610000F48E4E70129E2D0022915D1217901F020
:102620000F039B0003F1804303F5B84309061B68C1
:1026300005D503F03003102BE6D10123E3E703F4C3
:102640004053B3F5805FF7E71846C8E7A438002089
:102650009A380020A03800202DE9F843234FDFF8F6
:10266000A0803D682C8AD4B92E7A042E17D1204937
:102670000B78012B0ED11F4B1A681F4B92B21344DB
:102680005B001C6030230C70A8F800303B681E72A1
:10269000BDE8F88310230726A8F80030F6E7AB8AD8
:1026A0009C4294BF042602269C4228BF1C46AB696C
:1026B000204698478146002000F0B4FB22460146A0
:1026C000484600F052FB2146002000F0C7FB2B8A51
:1026D0004FF440521B1B2B826B8A1C443023A8F8FA
:1026E0000030064B6C821A80D0E700BFA43800206F
:1026F00050120020505C004002300020963800202C
:102700009838002010B50A4B0A491B6849789A7816
:1027100091420AD3D97841B99C8834B99A72064B50
:102720001B685B689847204610BD0220FCE700BF8D
:10273000A4380020C8050020A038002038B50F4A72
:102740000F4D12682B6892699978187990472B6819
:1027500004469A7A7AB170B95A7962B9DB7853B97A
:10276000084B1B68DB6898472B681A79DA729A78ED
:102770001A73204638BD0224FBE700BF9C380020B6
:10278000A4380020A038002038B52B4B1B681878DF
:1027900010F07F0004D15A7A22F020025A7238BD1C
:1027A000022847D15A88002AF9D15A79002AF6D14D
:1027B0001979224D21F08000840004F1804404F551
:1027C000B844226849B22D780029B4BF02F0300223
:1027D00002F4405285422DD962B39B7A53B300294B
:1027E000236811DA03F03003102B07D1C4B220465E
:1027F00000F004FB3021204600F0D8FA104B1B6893
:102800005B6998470020CAE703F44053B3F5805F43
:10281000F4D10C4D58B90C4B93F82C1000F02CFB54
:1028200023682B409BB283F440532360E6E700F01B
:10283000D2FAF5E70220B2E7A4380020C80500204C
:10284000A03800208FBFFFFF9805002038B51B4B34
:102850001B4D18682D78017921F08004A30003F145
:10286000804303F5B8431A6849B20029B4BF02F0A7
:10287000300202F44052A5421DD94488DCB9D2B1DD
:10288000827AC2B11A680029B5BF22F4E04222F46C
:10289000804222F0400222F07002B5BF92B292B2A2
:1028A00082F0100282F480521A60064B1B689B690A
:1028B0009847002038BD0220FCE700BFA438002064
:1028C000C8050020A038002008B5064B1A68537AC6
:1028D00043F020035372044B1B68DB6998470020C8
:1028E00008BD00BFA4380020A038002010B5054B5B
:1028F0001C68628A18B98B889B1A238210BD0868ED
:102900001044FBE7A438002008B50B4B002093F8D7
:102910002C1000F0B1FA094B1B68187A082806D170
:102920004FF48052064B1A801022064B1A80A0F1F9
:1029300009035842584108BD98050020A4380020DA
:10294000963800209838002073B5964C964E216832
:1029500032680B7A092B16D0944B92B213445B0069
:102960001B885B0003F1804303F5C0431A780A70AB
:102970005978226851709988226851801989226893
:1029800091809B89D380012223681A72DA885D784E
:10299000002A64D11A7812F07F024DD1092D03D19B
:1029A000FFF7B0FE40BB16E0052D20D193F90220C1
:1029B000002A07DA08232268137202B0BDE87040CB
:1029C000FFF7A2BFDA78002AF4D19A88002AF1D161
:1029D0009B7A002BEED13268754B92B213440022E1
:1029E0005B001A603022734B1A800623E3E7032D45
:1029F00014D19A78012A08D06F4B28461B685B696E
:102A00009847032828D10923D5E79A88002AF3D1CB
:102A10005B7A9A06F0D5FFF757FFC3E7012DEBD19C
:102A20009A78012AE8D19A88002AE5D15B7A9B0638
:102A3000E2D5FFF7A9FEB5E7012A04D10B2DDBD1C2
:102A4000FFF77CFEAEE7022AD6D1012DF1D0032D8F
:102A5000D2D1FFF7FBFEA5E70028ABD1BBE7062DDF
:102A600012D11A7855065AD1DB78534A012B1268D5
:102A700002D1D369DBB952E0022B01D1136AF9E725
:102A8000032B4CD1536AF5E7002D54D15988002906
:102A900045D15A6822F0FF02B2F5003F3FD11A78C3
:102AA00012F07F0216D19B88002B38D1434B0025B2
:102AB0002268284655829361984728464FF6FF7151
:102AC00023681A8A8A4233D0022801D0002A55D1BD
:102AD00008222EE0012A0AD1374A18791268926931
:102AE0009047E0B923689B7A002BDFD117E0022AD8
:102AF00015D11A7902F00F018B00100603F1804303
:102B00002F4803F5B8431B6800784CBF03F030032F
:102B100003F44053884202D912F0700FE4D0264BE0
:102B200022681B6850781B6998470328C6D1236820
:102B300009221A7241E7082D04D11B785B06EED1F9
:102B4000204BB4E70A2DEAD11A7802F07F02012A5D
:102B5000E5D19A7A002AE2D059880029DFD15A6853
:102B600022F0FF02B2F5803FD9D1134A18791268DA
:102B7000926990470028D2D1134B98E793F900103F
:102B8000002936DAD9880C4C0191019824688242D8
:102B90001CD9019A1A8294F82C209A82FFF75CFDC6
:102BA0000BE700BFA4380020505C00400430002038
:102BB00002300020983800209C380020D1250008E1
:102BC000C805002089250008AD2500088A42E2D208
:102BD00094F82C00824203D20021094A1170DAE7EE
:102BE00092FBF0F100FB1122002AD4D1044A01210A
:102BF000F4E703221A724FF44052024B1A80DCE6CB
:102C00005012002096380020F8B52A4E3468237AF6
:102C1000032B01D0052B44D1A369B3B1258AA5B1FB
:102C2000A28A954228BF154628469847238A074618
:102C30005B1B2382638A00202B44638200F000F92F
:102C40002A460146384600F09FF8238A53B10021F6
:102C50004FF44052184B08461A8000F0FFF830221B
:102C6000164B1A80228AA18A3368914209D803221E
:102C70001A7233681B7A32681372BDE8F840FFF7A6
:102C800043BE0AB10522F3E7062119720C4B1968FD
:102C90000C4B89B20B445B001A603022074B1A8040
:102CA000E7E7072B03D1084B1B68DB68984708232D
:102CB000E1E700BFA43800209638002098380020B3
:102CC000505C0040023000209C380020002210B5EB
:102CD0000C4B1C78A24204D30B4B40F080001860D0
:102CE00010BD02F1805303F5B8539B00196821F41D
:102CF000E04121F070010904090C1143196001320F
:102D0000E8E700BFC80500204C5C004010B5134C3C
:102D100023681A7A022A01D0042A09D1FFF79CFC01
:102D200023681B7A22681372BDE81040FFF7ECBDE0
:102D3000062A10D15A78052A09D11A78520606D1E6
:102D40009878FFF7C3FF064B1B681B6A9847054B33
:102D50001B689B6898470823E4E700BFA43800205D
:102D6000A03800209C380020704701F1005101324A
:102D700001F540515210490002B9704730F8023B4A
:102D8000013A21F8043BF7E7002310B501F10051A7
:102D9000013201F54051521049009A4200D110BD54
:102DA00051F8234020F813400133F6E7800000F18A
:102DB000804000F5B8400368CA0623F4E04323F0DE
:102DC00040039BB248BF83F010038A0648BF83F0DC
:102DD000200303607047800000F1804000F5B84098
:102DE00003685B0409D5036823F4E04323F0700310
:102DF0001B041B0C43F4804303607047800000F108
:102E0000804000F5B84003685B0609D5036823F4E9
:102E1000E04323F070031B041B0C43F040030360EA
:102E200070470000054B1B689BB203EBC00000F12C
:102E3000005000F54050400000887047505C004052
:102E4000044B1B689BB203EBC000034B03445B00C5
:102E500018887047505C004004300020044B1B6809
:102E60009BB203EBC000034B03445B001960704747
:102E7000505C0040023000200D4B0E4A1B683E297A
:102E80009BB203EBC00002444FEA42020AD94B094D
:102E9000C80604BF03F1FF339BB29B0243F4004317
:102EA000136070474B08C90748BF01339B02F7E71F
:102EB000505C00400630002013B504468DF8071022
:102EC00001220DF107012046FEF7DDFE0028F7D0B4
:102ED00002B010BD38B505464C1E14F9011F01B9EA
:102EE00038BDC9B22846FFF7E7FFF6E708B5134B30
:102EF00003221C6801212046FEF784F800230121EB
:102F00001A46B2F5007F0CD072B1B3F5007F01D143
:102F100000230A449A420CD9022520680561013336
:102F2000EFE74FF0FF31F0E7B3F5007F4FF001011D
:102F3000EED020684FF40035F0E700BF582C0308AE
:102F400008B5034B0BB100F047F862B6FFF7CEFFB0
:102F5000D92F000808B5044B23B100F05DF80349F0
:102F6000FFF7B8FFFFF7ECFF19300008432D030807
:102F7000FDF79CB908B500F0B5FF01F079F8FCE762
:102F800027F07CBC27F082BC32280BD8064B03EB21
:102F9000001043681A68437B343203F18043013BDD
:102FA00042F82310704700BFE828030838B50C46E4
:102FB0000546072104EB042400F046F8A1B2284698
:102FC000BDE83840FFF7E0BF002203685B0103F172
:102FD0008443C3F8002170474FF0FF3310B50A4C0B
:102FE0000A48C4F88030C4F88430FEF7EDFA084887
:102FF000FDF7E4FD0748FEF705FF4FF400232360CB
:103000004FF48013236010BD00E100E02916000892
:10301000C92F0008511C000810B5094B094C18684D
:103020000B220221FDF7EEFF2068FEF7E1FD20688C
:103030004FF416520021FEF7C8FE206810BD00BFF5
:10304000542C030888020020322838B53BD80829C0
:1030500039D8DFE801F00529171A1D2017232600AB
:1030600000240322184B00011D18297B1858FDF776
:10307000C9FF686838B3697BCCB1BDE8384001222C
:10308000FEF794BB00240422ECE700242246E9E783
:1030900000240922E6E700240822E3E701240B22AA
:1030A000E0E701240F22DDE700240722DAE70268C7
:1030B0004B1E02F1404220329B0003EBC2039B00F7
:1030C00003F184431C6038BDE828030808B50121DA
:1030D0001048FDF795FA02210F48FDF791FA0321F8
:1030E0000E48FDF78DFA04210D48FDF789FA0521F8
:1030F0000C48FDF785FA06210B48FDF781FA0721F8
:103100000A48FDF77DFABDE8084008210848FDF7A8
:1031100077BA00BF54120020581200205C12002021
:103120006012002064120020681200206C1200203F
:103130007012002032280DD8074B000119181B58B7
:10314000097B1B689A6801238B40134214BF01203E
:103150000020704700207047E8280308322810B587
:103160000ED8084B00011C181B58B1FA81F11A68DF
:103170000123207B49098340090103FA01F1116110
:1031800010BD00BFE82803080A4A0B4B11689B6872
:1031900000BF00BF12688A42F6D14820C3F58C33C5
:1031A00003F5A073B3FBF0F34FF47A7000FB023029
:1031B000704700BF9038002010E000E038B50446AA
:1031C000FFF7E2FF05465CB1FDF75FFCFFF7DCFFB0
:1031D000401BB0F57A7FF6D3013C05F57A75F5D141
:1031E00038BD28B10C234343013B18460138FDD8B4
:1031F000704700000449054BCA6822F4E0621204DB
:10320000120C1343CB60704700ED00E00003FA0599
:10321000704770470120704713B5104C20461CF0D2
:10322000DEFC204604211CF074FC204602220C49DE
:103230001CF072FC002302220A4900932046A023BE
:103240001CF0D0FC20461CF0C3FC20461CF0B2FC55
:10325000204602B0BDE810401CF0B3BC7C12002038
:10326000682D03087612002024280AD0252807D1CB
:103270000123054A32F81330044AC3F3890313804B
:1032800070470023F5E700BF76120020741200207B
:10329000044B03EB00135B6813B1C0B2FFF786BEAB
:1032A000704700BFE8280308FEF720B8024B034828
:1032B00019681CF02CBC00BF1C0000207C120020F0
:1032C00010B5074C032294F84C10206CFDF79AFEC1
:1032D000236C94F84C101A6801238B40136110BDC5
:1032E000E8280308062838B58CBF00250A4B0B4C8C
:1032F00098BF1D5C2046E46600F03FF92946204651
:1033000000F04DF92046012100F056F92046BDE8B5
:103310003840002100F05DB96A2D03088C120020AE
:10332000FF21014800F06AB98C1200200B460246CA
:103330000021014800F01ABA8C1200200146014811
:1033400000F09CBA8C12002070B50D46064C014668
:10335000204600F093FA29462046BDE8704001233C
:103360004FF4007200F07EBA8C12002001398B00FD
:103370000121026899405160704703689A6891077B
:10338000FCD59A681206FCD47047436823B1417B90
:1033900000221846FEF70ABA70470000172806D028
:1033A000182806D01628044818BF00207047034884
:1033B00070470348704700BF4C78030850780308F3
:1033C000547803082DE9F04F814687B000798A468A
:1033D000FFF7E4FF60B30578174C46782D012B19F1
:1033E0008778360190F8038006EB040B18460593A6
:1033F00004EB0717FFF7C9FF5846FFF7C6FF04EBBA
:1034000008183846FFF7C1FF4046FFF7BEFF98F89F
:103410000C20059B51461B7B03923A7B4846029247
:103420009BF80C200192325900922A59FEF762F85B
:1034300007B0BDE8F08F00BFE828030810B50C46C0
:10344000FDF762FF90B10228094B88BF00230022DC
:103450005B089C42D0B205D20132072A4FEA5303DF
:10346000F7D11046034B0344187B10BD024BEEE727
:1034700000A24A044C780308005125022DE9F041CE
:10348000034604466C302C4D00221D6001255A7302
:103490001D735A60C3E9072224339842F3D12422D2
:1034A0004B1E02FB03430229E366DFF8AC80234E88
:1034B00039D003293CD0A94201D1214B1C60214BBA
:1034C000214F1B68216823611879FFF7B7FF3B681C
:1034D0000225A36103236375D8F80030A0606363FD
:1034E0002575616A1879FFF7A9FF3B68E062E3631D
:1034F000052384F83930042384F838303368A16C0C
:10350000A3651879FFF79AFF104B00221B6820650E
:103510002366012384F85C30E36E84F85D50DA732F
:103520002046BDE8F081D8F800306363084BC5E75A
:103530003368A365074BC1E700093D00680100201F
:10354000FC120020600100206000002064000020C8
:10355000001300200413002064010020C06E037BD0
:103560004268012B0CBF0023802342F440721343B6
:10357000017A427B0069FDF79DBF10B50446C36E1A
:103580001869FDF76CFFE36E01211869FFF71AFF58
:103590002046FFF7E3FF0122E36EDA7310BDC36E2E
:1035A0009960C36E01F038011B691A68136823F033
:1035B0003803194311607047C36E1973C36E1B69DA
:1035C0001A68136823F0800309B943F0800313607D
:1035D0007047C36E5973C36E01F003011B691A680B
:1035E000136823F00303194311607047C36E1B690E
:1035F0001B68D960C36E1869FFF7BFBE10B5C36EF4
:103600001C6923682046DA68D960FFF7B6FE236894
:10361000D868C0B210BD0000F0B50546C36E85B0D5
:10362000986917460E46FDF7F8FAE86E4468017D82
:10363000A4F500635C425C4103691A688223CDE90A
:103640000143009723460C328069FDF729FBE86EA1
:103650000369417D1A68C6B91023CDE901430D4BBA
:10366000009323460C328069FDF71AFBEB6E0022B3
:10367000597D9869FDF7D4FA0322EB6E197D98699C
:1036800005B0BDE8F040FDF7CBBA90230096CDE938
:103690000143E6E7712D030870B504460D4611B9E4
:1036A0000025284670BDC36E1A6912689168CE075E
:1036B00048BFD2680422DA73C36E2A46197D98691E
:1036C000FDF7BAFAE36E2A46597D9869FDF7B4FA18
:1036D000E36E197D9869FDF7CBFAE36E597D986921
:1036E000FDF7C6FAE36E1869FDF7F6FEE36E18699A
:1036F000FDF7E6FEE26ED369002BD1D193691A493A
:103700001E68537D0D68013B9B00DBB23068D840DA
:10371000800727D40868401B6428F7D90225106960
:10372000FFF72BFEE36E1869FDF7D0FEE36E186914
:10373000FDF7D8FEE36E597D9869FDF7A5FAE36EB3
:10374000197D9869FDF7A0FAE36E197D9869FFF776
:103750000DFEE36E597D9869FFF708FE0122E36EC6
:10376000DA739EE70025DAE79038002038B5044682
:103770001D46FFF751FF29462046BDE83840FFF7B8
:103780008BBF7FB5054614460E46C36EE4019869AB
:10379000FDF743FAE86E44F012044368417DA3F557
:1037A00000625342534102691268CDE90134009628
:1037B0000C328069FDF774FA0022EB6E597D98692E
:1037C00004B0BDE87040FDF72BBA000070B50446A8
:1037D0000D4611B90025284670BDC36E597D986904
:1037E000FFF7C4FDE36E2A46597D9869FDF724FA78
:1037F0000322E36EDA73E36E597D9869FDF738FAB8
:10380000E36E1869FDF75CFEE26E136A002BE1D1EE
:10381000936913491E68537D0D68013B9B00DBB221
:103820003068D840800719D40868401B6428F7D94D
:1038300002251069FFF7A1FDE36E1869FDF746FE4A
:10384000E36E597D9869FDF71FFAE36E597D98691B
:10385000FFF78CFD0122E36EDA73BCE70025E8E791
:103860009038002038B5044615461A46FFF789FF00
:1038700029462046BDE83840FFF7A8BF08B5FFF746
:10388000B5FE012008BD000001210148FFF7F6BD8B
:103890008C120020084B186803F178420749A2F502
:1038A0007C325050064A04339342F4D10022054B37
:1038B00001201A70704700BF00F0030808130020B1
:1038C000000004080823002070B5164D2C783CB386
:1038D0001CF03EFA14481CF0F3F9052805D01CF042
:1038E00043FA00232B70204670BD10481CF0E8F905
:1038F0000528F4D10C4E0E4A06F17843A3F57C332B
:10390000D15A30461CF0FEF9052804D000241CF0E2
:103910002BFA2C70E7E7074B02369E42EBD1DEE72D
:103920000124E0E70823002000F0030800F8030862
:103930000813002000000408F8B50546002494424E
:1039400006D0094E0F5D2868264437540134F6E747
:103950000120064A1070A2B2184611F029FE2B6809
:1039600000201C442C60F8BD081300200823002010
:1039700070B515469DF8102004465AB901680A4AE8
:103980001144AAB2184611F013FE226800202A44FE
:10399000226070BD0022AA42F3D0034E2068164474
:1039A000305C88540132F6E7081300200228F8B58D
:1039B00006460D4639D0052836D100262C4C022269
:1039C000236801215B0103F184431E602046FDF75B
:1039D000EDFE28494FF6FF70B1FBF5F1112281424F
:1039E00028BF014623685E629A62D8629A692046BF
:1039F00022F0FF029A6159635B0103F184430121C4
:103A0000DE611D4AFDF734FE01213220FDF744FC42
:103A1000012223685B0103F18443C3F880222368F9
:103A20005B0103F184431A60F8BD0027134C024682
:103A3000236801215B0103F184431F602046FDF7E9
:103A4000B5FE40F2E73223680D495F62B1FBF5F144
:103A50009A624FF6FF72914228BF1146DA62204601
:103A60005963084A0121FDF703FE31461C20CDE7CA
:103A70001802002000093D003DAA0108AC01002009
:103A8000401901000DBD010802280CD005280CD1F9
:103A9000074B1B685B0103F18443D3F884010030BA
:103AA00018BF01207047034BF3E70020704700BFA9
:103AB00018020020AC010020013807289ABF024BF1
:103AC00053F8200000207047742D0308FDF7DCBB7D
:103AD00070470368C9B21B68184700000023054AF5
:103AE0009A56824204D00133172BF8D10020704738
:103AF00001207047512F030808B500F007FBBDE80F
:103B00000840014800F0F0BA3E2E030808B515F051
:103B100079F915F0DBF9FE2014F046F8BDE808400D
:103B200014F020B8054BD3F8D02293F8DC124FF4F0
:103B3000803312688B401361704700BFE828030888
:103B40000E4AD2F8803092F88C101868012303FADC
:103B500001F109040161D2F81011086892F81C11F2
:103B600003FA01F109040161D2F8201292F82C2223
:103B7000096893401B040B61FFF7D4BFE8280308D2
:103B8000044BD3F8D02293F8DC12012312688B4047
:103B900013617047E828030840B9054BD3F8D022D9
:103BA00093F8DC12012312688B401361704700BF49
:103BB000E8280308012130B4124BD3F880201068A4
:103BC00093F88C2001FA02F202610F48027822F089
:103BD00001040470D3F81041256893F81C4101FAE0
:103BE00004F42C6122F003040470D3F8204293F80B
:103BF0002C322468994022F007022161027030BC07
:103C0000FFF7BEBFE82803083F290020074B1B78B9
:103C10004BB9074B93F90000012805D0054B1878E4
:103C2000C0F3800070470020704700BFDC230020F5
:103C300028290020183700200B4B1B788BB90B4B21
:103C400093F90030022B0CD0094B1B78C3F3C00052
:103C500040B1084AD07828B1C3F3800080F0010059
:103C600070470120704700BFDC2300202829002076
:103C700018370020F836002012F06EBA10B5194C33
:103C80002378013B042B29D8DFE803F0030C11183B
:103C9000230012F043FA3B280CD9134807F012FB1B
:103CA00040B910BD114807F00DFB18B9F9E7E4223F
:103CB0000F4B1A70237801332370F2E712F02EFABB
:103CC0000C4A0D4B3B2894BF1046184607F0FAFAF1
:103CD000EBE715F0D5F8094800F006FA0023237049
:103CE000DFE700BFF6360020E52D0308E92D0308C5
:103CF000C4280020D42D0308DB2D0308ED2D030874
:103D000010B540F2E9330446013B08D000BF00BFC4
:103D100000BF42F62F22013A00BFFCD1F4E772B691
:103D200040F2E933013B08D000BF00BF00BF41F2C1
:103D30009312013A00BFFCD1F4E717F015FC24B14F
:103D4000FFF738FFFFF7C2FEFCE7FFF719FFF9E7BF
:103D50000D460446164608B517F006FC00F0D6F9E5
:103D6000074800F0C1F907490748002D18BF294648
:103D7000002C18BF204611F0C3F83046FFF7C0FFF3
:103D80004D2E0308B52D03084A2F030870B5394B93
:103D900005461B78032B01D807F0FAFC364B374A4F
:103DA0001B681468ABB1364909680B44E31A002B51
:103DB0000FDB00F0ABF9334B3348196800F0ACF976
:103DC0000A213248FFF785FE002211461046FFF710
:103DD000BFFF2F4B1B6843B12E4908782E49097845
:103DE00088420ED01268264B1A602C4D03F050F812
:103DF0002B68E31A002B03DB643414F053FF2C60B0
:103E000070BD274A1178274A89BB85BB1C490968C0
:103E10000B44E31A002B2ADB1378002BE5D1012396
:103E20001370214AD2F88010086892F88C1003FAB7
:103E300001F101611D48017821F001050570D2F8FA
:103E400010512E6892F81C5103FA05F5356121F0E6
:103E500003050570D2F8205292F82C222D68934069
:103E600021F007012B610170FFF78AFEBDE70023F7
:103E70001370BAE7C42500201423002090380020D6
:103E8000F823002008240020012E030894100020AD
:103E9000EC050020FE2F0020FF2F00200C23002027
:103EA000DC23002010230020E82803083F290020FD
:103EB00010B5044611F066F806F00CFA2046FFF73C
:103EC00065FF17F04BFC11F0FDFAFFF7A1F9044B69
:103ED0001B781BB9BDE8104018F0C0B910BD00BF79
:103EE000FC23002037B5FFF785F94D4A136823F00E
:103EF000E06343F00073136016F076FE4FF4E13197
:103F00004848FCF76BFB484B48481B6800F0ECF84E
:103F100000F0F6F8FFF77EF9C507044602D54448DD
:103F200000F0E2F8A00702D5424800F0DDF8610792
:103F300002D5414800F0D8F8220702D53F4800F0EA
:103F4000D3F8A30602D53E4800F0CEF8FFF761F99A
:103F50003C4800F0C9F820213248FFF7BAFD3A4842
:103F600000F0C2F80A212F48FFF7B3FD00F0C8F8AF
:103F7000364800F0B9F800F0C3F8354800F0B4F85E
:103F800000F0BEF80020FCF745FA0DF10701091A10
:103F9000304800F0CDF84FF4C8612F4800F0C8F861
:103FA0002E4C0A211F48FFF794FD10F001FF00205E
:103FB00011F0D0F908F026FE237823B913F0D4FBD2
:103FC00008B101232370264C264D216828681CF077
:103FD000C7FB6968206060681CF0C2FBA96860606C
:103FE000A0681CF0BDFBA06013F0BCFD1E4817F0DC
:103FF000C5F912F081F813F0FFFB16F073F90020F9
:1040000013F01CFCFFF764FD01231A4619461846FD
:1040100002F01EFA0122154B1A7003B030BD00BF2A
:104020000400014094100020903800205D5E0308D9
:10403000732E03087C2E03088D2E03089F2E030881
:10404000B02E0308432F0308C12E0308CA2E03080D
:10405000062F03081D2F03082C2F0308112300200F
:10406000380600205C290020E832002013230020BD
:1040700008B50020FFF71CFF1AF00CFA134B1B7851
:104080005B0617D519F0D4FD07F070F8FFF73EFD79
:1040900012F00AF817F068FA0021084616F0B4FF8B
:1040A0000120002116F0B0FF0022094B09481A70C8
:1040B00007F0F8F8084B1B780BB1FFF7DFFD07F0AE
:1040C000F3F9BDE8084013F0A1BC00BF1837002089
:1040D000F00500206D2E0308F6360020014819F087
:1040E0006BBB00BF1223002010B5044614F9011B5E
:1040F00019B10248FFF7EDFCF8E710BD941000205D
:104100000148FFF7F1BF00BF7A2F03080148FFF70E
:10411000EBBF00BF732F030810B50C46FFF7E4FF99
:104120002146BDE810400148FCF728BB9410002050
:1041300010B50C46FFF7D8FF2146BDE810400A2213
:104140000148FCF781BB00BF9410002010B50C465D
:10415000FFF7CAFF2146BDE810400A220148FCF7DC
:1041600086BB00BF9410002013B50C46FFF7BCFFC0
:1041700020461BF065FF02230246009302480B46CF
:10418000FCF75AFC02B010BD9410002010B50C468C
:10419000FFF7AAFF2146BDE810400A220148FCF7BC
:1041A00087BB00BF9410002010B50446013CE4B268
:1041B000FF2C04D020210248FFF78BFCF6E710BD4E
:1041C00094100020034A044B002814BF10461846E0
:1041D000FFF78ABF403903084C38030808B5FFF7DA
:1041E000F1FF0A210148FFF774FC08BD941000207C
:1041F000034A044B002814BF10461846FFF774BF4B
:10420000682F03086D2F0308F8B507460E461546BC
:104210001846069CFFF768FF39680B48FFF7A4FFB4
:1042200031680A48FFF7A0FF29680948FFF79CFF9B
:1042300024B12046BDE8F840FFF756BF0A210548E3
:10424000FFF747FCF8BD00BFC02D0308C72D0308CA
:10425000CE2D03089410002010B50446322C06D948
:104260003220323CFEF7AAFF17F078FAF6E7204634
:10427000FEF7A4FFBDE8104017F070BA38B5094C3E
:1042800025882DB2002D0CD0CCBF0121002116F0C5
:104290002BFC2388002DCCBF03F1FF3301331BB26D
:1042A000238038BD1C230020084B1B7823FA00F024
:1042B000C30709D5064A89B213880B441380054BFE
:1042C0001A88114409B21980704700BF3F290020A5
:1042D0001A2300201C2300200A4610B5074B044671
:1042E00003EB8003596910681CF042FB1CF01CFDB5
:1042F00001B22046BDE81040FFF7D6BF483000208D
:104300002DE9F74F1F4683001D18404C01936B1891
:10431000884654F823100090084616461CF0EEFC20
:1043200000286FD0009BF2B2D618F6B23244FBB22E
:10433000D2B206EB860003EB080102EB8202C9B29F
:1043400000EB080702EB08060B4454F827B054F8BA
:104350002670DBB26E1801441D4454F821901344BA
:104360003946384654F826A054F8256054F82350AE
:104370001CF0C4FC00B10027594658461CF0BEFC96
:1043800000B1BB46314630461CF0B8FC00B10026F7
:10439000514650461CF0B2FC00B1B24629462846B0
:1043A0001CF0ACFC00B10025494648461CF0A6FCB8
:1043B00000B1A946DDE90023594613445846984404
:1043C0001CF0CEF939461CF0C9F951460746504653
:1043D0001CF0C6F931461CF0C1F9014638461CF004
:1043E000BFF94946064648461CF0BAF929461CF072
:1043F000B5F9014630461CF0B3F905491CF06CFBD9
:1044000044F8280003B0BDE8F08F00BF602300200F
:104410000000404000EB8000024B014453F82100B3
:10442000704700BF60230020F8B5022635460224FD
:10443000012321461A46C4F104072846FFF760FF0E
:10444000FFB2214601234FF0FF323046FFF758FFFD
:104450004FF0FF33012239462846FFF751FF4FF056
:10446000FF33013C1A4639463046E4B2FFF748FFB5
:10447000FF2CDDD1013DEDB20136FF2DF6B2D6D1D4
:10448000F8BD000010B50548FFF72EFEBDE810404E
:104490000521034B0322084600F0DEB9802F0308F4
:1044A0001544000838B5104C0021256828461CF03A
:1044B000F3FBA0B929464FF07E501CF00DFB0546DA
:1044C0006468002120461CF0E7FB50B921464FF0FC
:1044D0007E501CF001FB054B1D60586038BD002567
:1044E000EEE70020F7E700BF50230020482300201C
:1044F0002DE9F74F674E0546316800681CF02EF92C
:104500007168044668681CF029F9634D81462146AC
:1045100028681CF0C1FBDFF8AC81604F28BB604B02
:104520002C60196820461CF023FA064624F050FE41
:10453000002104461CF0BAFB002831D1594920461D
:104540001CF0D2FB00B1574C214630461CF006F956
:10455000C8F8000020461CF0E7FB40B2387001307C
:104560000428A8BF0420504B1870494668681CF006
:1045700093FB4E4E97F9004096F900B0DFF848A142
:1045800080B1A34536D1DAF80010D8F800001CF04D
:10459000EFF9474B19681CF0E3F803B0BDE8F08F62
:1045A0000024D1E73E4BC5F80490596848461CF0FA
:1045B000DFF9054624F00CFE002181461CF076FB55
:1045C000002864D1374948461CF08EFB08B1DFF85B
:1045D000D490494628461CF0C1F8C8F80400484663
:1045E0001CF0A2FB40B2787001300428A8BF042060
:1045F0002D4B5870A34597F901302E4DDFF8CC9024
:1046000003D196F901209A4225D03A88DFF898B074
:10461000328004EB8404284EE2189BF9017056F8AE
:1046200022103C44296056F8240001931CF096F8AF
:104630009BF90020019B02EB8202134456F82310E1
:104640001E4B1744C9F80000196056F827001CF0EB
:1046500085F81B4B1860D8F80460D9F80010304674
:104660001CF086F929681CF07BF80446104B186092
:10467000134B304619681CF07BF9104B19681CF07D
:104680006FF821461CF06AF8CAF800007BE74FF08B
:1046900000099EE758230020F40500204423002051
:1046A000482300200000404038230020FC05002063
:1046B0002423002030230020602300203423002006
:1046C0002C2300203C23002020230020282300202E
:1046D00010B5064B002118684FF001041CF0DCFAFD
:1046E00008B14FF0000404F0010010BD5023002079
:1046F00030B5054685B028B1124B002118681CF072
:10470000CBFAB0B9104C2378AB4212D014F0DEFBD8
:104710000E4A01AB07CA83E807001846FFF7E8FE18
:10472000237843B10A4814F01DFB0023237013F0D3
:1047300019FA05B030BD01230548237014F03AFB87
:10474000F5E700BF50230020FC2F00209C2F03081A
:10475000380600202DE9F041244D04460F4601465D
:1047600028681CF099FA00283DD1214B1E78FFF7EC
:10477000BFFF002120461CF0B7FA00B900242C60CE
:104780001C4920461CF0A6FA20B11B4920461CF00B
:1047900097FA30BB21464FF07E501CF09DF9174B25
:1047A000174A1860174B1A60EEB1174C0120D4F865
:1047B00000806668A568FFF79BFFA7B141462068A7
:1047C0001CF06AFA48B1314660681CF065FA20B105
:1047D000A16828461CF060FA28B9BDE8F04113F042
:1047E000A9B90020DBE7BDE8F08100BFE82F002079
:1047F000FC2F0020BD3786B5BD378635043000203C
:10480000F0FF79C4842900203806002008B5002074
:10481000FFF76EFF00230C4A536013600B4A53608E
:1048200013600B4B03F164010A4A143343F8142C50
:1048300043F8102C43F80C2C43F8082C43F8042CB4
:104840009942F1D108BD00BF582300205023002019
:10485000602300200000C07F2DE9F74F0446894601
:1048600017469A460025A5420FD0EBB20A2B34BF5B
:10487000032002203844C0B2FFF796FC29460A22E2
:104880002D48FBF7E1FF0135EDE70A212A48FFF744
:1048900020F90024A1455FFA84FB46D0092C03D8F7
:1048A00020212548FFF715F90A2221462248FBF767
:1048B000CBFF0026AE425FFA86F830D020211E489A
:1048C000FFF707F959464046D047014680461CF09D
:1048D00015FA98B9002140461CF0FCF918B12B21BB
:1048E0001548FFF7F6F840461BF0AAFB0097024672
:1048F0000B461148FCF7A0F80136DBE74FF0000843
:104900005FFA88F3BA1C9A42F6DB002B14BF3D21F4
:1049100020210948FFF7DDF808F10108F0E70A2136
:104920000548FFF7D6F80134B4E70A210248FFF73B
:10493000D0F803B0BDE8F08F9410002038B51B4BC1
:1049400093F90030012B2DD0194D19B10023194ACC
:104950002B601370184B1A682B68D31A002B21DBBD
:10496000144C002894F900301DDB011D994219DB1D
:104970009842CCBF4FF47A704FF4FA7003F0010301
:104980001902C91A03EBC10103EBC10189001044EC
:1049900001F55C71286089B2322010F0C9FD2378DE
:1049A0000133237038BD4FF47A70E7E7FE0500202D
:1049B000D8230020D42300209038002010B5104BBD
:1049C00001461B781B070AD40E4B1C783CB90E4BD2
:1049D000B3F908200D4BB3F900309A4209DB0B20E4
:1049E00000220DF0D7FABDE810400121002017F099
:1049F00073BCFFF785FB0648FFF776FB204610BD2A
:104A0000192300208832002058320020920600200E
:104A1000FF2F030838B5094B094C0D46006819688B
:104A20001CF05AF8E1681BF09BFEE060284613F08A
:104A3000E5F8BDE8384014F049BA00BF8006002010
:104A4000380600202DE9F04F85B09DF94050814691
:104A50002846884617469A469DF838409DF83CB04F
:104A6000FFF7ACFF064648B924B1024629460920A3
:104A70000DF090FA304605B0BDE8F08FBBF1000FA5
:104A800028D024B10022294604200DF083FAFFF734
:104A900037FB3A48FFF728FB01215046FFF74EFF4E
:104AA0000321374B012093F90020197035499B46AB
:104AB0000B4608701978019351B1002150460092BD
:104AC000FFF73CFF0120FFF7F3F9DDE90023F1E7F1
:104AD0008BF8002024B10022294605200DF05AFA57
:104AE0000021D9F800001CF0D7F830B9264B04A9F2
:104AF00041F8043D4846FFF78DFF0021D8F800003B
:104B00001CF0CAF868B9214D214BD5F83890AB6339
:104B10001D4B04A941F8043D4046FFF77BFFC5F853
:104B20003890002138681CF0DFF860B124B1002211
:104B3000062011460DF02EFA164B04A941F8043D4B
:104B40003846FFF767FF002C94D0032300220C4D5A
:104B5000114695F900802B700A4B07201A700DF052
:104B600019FA0D4B93F900301BB90120FFF7A0F99A
:104B7000F7E7012B85F80080D3D07BE7A82F030847
:104B8000F4230020182300200000C04048300020FB
:104B90000000C84100004040E82300202DE9F74311
:104BA000814610460E461446FFF708FF054648B9F1
:104BB00026B10246014609200DF0ECF9284603B063
:104BC000BDE8F08326B10022214603200DF0E2F972
:104BD000154B02AC0093154B684644F8043D214642
:104BE000FFF718FF41F28830FFF736FB104E114BEC
:104BF000114F2146684600930197FFF70BFFD6F847
:104C00003880B763D9F80030214600930B4B6846D3
:104C10000193FFF7FFFE0020C6F83880FEF7BCFFC7
:104C20006420FFF719FBC9E7000050C10000704283
:104C3000483000200000A8410000C8410000204189
:104C40002DE9F7433C4D1F462B7880468946164692
:104C500023B10024204603B0BDE8F083374B1B7816
:104C600018070FD4002110681CF016F850B9344B07
:104C70001C783CB9334BB3F90820334BB3F90030FF
:104C80009A423FDB0123314A2B70137859074AD4EB
:104C900011F01EFA2E4C2F4B0FCB84E80F0014F0AE
:104CA00015F90021D8F800001BF0F6FFB0B9244B2D
:104CB0001B7863B9234B002158681BF051FD1CF091
:104CC00033F8214B00B2B3F90030984206DB224B97
:104CD00002A941F8043D4046FFF79CFE072013F06F
:104CE00063FA18B94946022010F0BCFC0021306874
:104CF0001BF0D2FFE8B9022239463046FFF74EFFDB
:104D00000124A7E7FFF7FCF91448FFF7EDF9002F9E
:104D10009FD02146224609200DF03CF9214610483B
:104D200010F002F996E76FF38203137002232B70E1
:104D3000AEE701248EE700BFDC230020192300200A
:104D400088320020583200209206002018370020B8
:104D5000C42300203806002000007042FF2F030803
:104D600010300308002210B504461146904214BFCB
:104D7000042002200DF00EF9FFF7C2F90448054B9C
:104D8000002C08BF1846BDE81040FFF7ADB900BFC2
:104D9000A82F0308CA2F03082DE9F84F8946834638
:104DA000FFF7E0FF01214846FFF7C8FD244A254CE4
:104DB0001368254F03F52F43C83323600023237165
:104DC000032397F900A03B70012390461F4D2B70E1
:104DD0002B7883B300214846FFF7B0FD237933B326
:104DE00000220A2011460DF0D5F8FFF789F918487E
:104DF000FFF77AF92E781EB10120FFF759F8F9E78D
:104E000030462660267116F06DFB3046FFF7D6FD62
:104E10005846FFF7A7FF0121D8F80030484603F5B0
:104E20002F43C833236026712970FFF787FD0120C7
:104E3000FFF73EF8CCE787F800A0BDE8F88F00BF89
:104E40009038002050320020F42300201823002046
:104E5000E22F03082DE9F0433B4C9946237889B0B3
:104E600006460F469046002B6AD00020374B1D792E
:104E70001860187116F036FB7DB9354B1B7863B995
:104E8000344B002158681BF06BFC1BF04DFF324B7C
:104E900000B2B3F9003098420ADB0023CDE9015398
:104EA00001234246009339464B463046FFF7CAFD80
:104EB00000222A4D114608200DF06CF80021E86808
:104EC0001BF0F4FE06AE30B1254B314605F10C0067
:104ED0000693FFF79FFD95E80300224A08AB43F8CD
:104EE0000C2D86E803001946304612F0F9FE1E4BE1
:104EF00031461E48069312F0FDFEEB681C481D4A21
:104F000040F80C3FD36014F0D1FD00220920114677
:104F10000DF040F82378013BDBB2237023B118F089
:104F20007DFE2378013B2370134B93F90030022B55
:104F300001D111F011F9002010F00CFA09F030FB4A
:104F400009B0BDE8F08300BFDC2300205032002010
:104F5000883200205832002092060020C42300200E
:104F6000000070420000C8420000A040CC23002096
:104F70004C290020380600202829002010B50B6895
:104F800004461B69084698472379C0F3400210F095
:104F90001E0F60F3000362F3410314BF01220022DD
:104FA00062F38203C0F304426271C0F38072206036
:104FB00062F34513C00F60F386132371204610BDC2
:104FC0000A3908B509291CD8DFE801F0051B0E1BBA
:104FD0001B1B1B1B1C1419F0C6FDBDE80840014635
:104FE0000A220A48FBF75ABC19F03BFCBDE808400E
:104FF000FFF7FEB819F0E4FB18B12A210348FEF7C9
:1050000068FD08BD19F0E5FBF6E700BF941000202D
:10501000093908B507290CD8DFE801F0150B0B0B8F
:10502000040C0F1219F00BFC18B12A210A48FEF7E4
:1050300050FD08BD19F0FAFBF6E719F0EEFBF3E7B7
:1050400019F0E2FBF0E719F003FCBDE80840014667
:105050000A220148FBF7F8BB9410002008B509218B
:105060000148FEF736FD08BD9410002008B5582110
:105070000148FEF72EFD08BD9410002008B5592107
:105080000148FEF726FD08BD9410002008B55A21FE
:105090000148FEF71EFD08BD9410002008B545210B
:1050A0000148FEF716FD08BD941000200000000026
:1050B000F7B5074616461D469DF82040002900F02A
:1050C000E7830921BA48FEF704FD162F00F2DC83BE
:1050D000DFE817F01700DA03380061009200C5001E
:1050E00027017A01DA03B401DA03F301DA033302A8
:1050F0006402DA03DA03AD02EA0212034803790319
:10510000AA03FFF7B3FF002E00F004840921A8488A
:10511000FEF7DFFCFFF7B2FF002D00F04984092104
:10512000A348FEF7D6FCFFF7B1FF2CB10921A04838
:10513000FEF7CFFCFFF7B2FF0A219D48FEF7C9FC3E
:1051400003B0F0BD9B4819F0FCFCFFF751F8002EAE
:1051500000F0E08309219648FEF7BBFC964819F061
:10516000F0FCFFF745F8002D00F02284092190485B
:10517000FEF7AFFC914819F0E4FCFFF739F8002C7A
:10518000DAD009218A48FEF7A4FC8D4819F0D9FC31
:10519000FFF72EF8D0E7874B0A22B3F84210844875
:1051A000FBF752FB002E00F0B58309218048FEF783
:1051B00090FC814B0A22B3F842107D48FBF744FB78
:1051C000002D00F0F58309217948FEF782FC7B4B26
:1051D0000A22B3F842107648FBF736FB002CABD01E
:1051E00009217348FEF775FC0A22754BB3F842108B
:1051F0006F48FBF729FB9FE76E4819F0E4FE0A228F
:1052000001466B48FBF720FB002E00F08383092149
:105210006748FEF75EFC684819F0D5FE0A22014691
:105220006348FBF711FB002D00F0C28309216048A1
:10523000FEF74FFC614819F0C6FE0A2201465C48A1
:10524000FBF702FB002C3FF477AF09215848FEF72B
:1052500040FC5B4819F0B7FE0A220146C8E75548F2
:1052600019F0B1FE1BF02CFB1AF0EAFE4EA3D3E9B5
:1052700000231AF03DFF0023024600934C480B46E2
:10528000FBF7DAFB002E00F0458309214848FEF7C2
:1052900020FC494819F097FE1BF012FB1AF0D0FED3
:1052A00041A3D3E900231AF023FF00230246009311
:1052B0003F480B46FBF7C0FB002D00F07983092126
:1052C0003B48FEF706FC3D4819F07DFE1BF0F8FA5E
:1052D0001AF0B6FE34A3D3E900231AF009FF002325
:1052E0000246009332480B46FBF7A6FB002C3FF426
:1052F00023AF09212E48FEF7ECFB314819F063FE7D
:105300001BF0DEFA1AF09CFE27A3D3E900231AF063
:10531000EFFE00230246009325480B46FBF78CFB6B
:105320000AE7244819F0F8FA0A2201462048FBF758
:10533000B5FA2448FEF7D8FE002E00F0EB820921D2
:105340001B48FEF7C6FB1C4819F0E6FA0A22014684
:105350001748FBF7A3FA1B48FEF7C6FE002D00F026
:10536000278309211248FEF7B4FB144819F0D4FA38
:105370000A2201460E48FBF791FA1248FEF7B4FEE6
:10538000002C3FF4D9AE09210948FEF7A2FB0C48D6
:1053900019F0C2FA01460A220548FBF77FFA0948CC
:1053A000FEF7A2FEC8E600BF8FC2F5285C8FF63F6D
:1053B0009410002078310020C031002008320020F5
:1053C000303100203B330308AD4819F0A1FA0A221E
:1053D0000146AC48FBF762FAAB48FEF785FE002EAB
:1053E00000F098820921A748FEF773FBA74819F03F
:1053F0008FFA0A220146A348FBF750FAA248FEF7AB
:1054000073FE002D00F0D48209219E48FEF761FB57
:105410009F4819F07DFA0A2201469A48FBF73EFAA6
:105420009948FEF761FE002C3FF486AE09219548AD
:10543000FEF74FFB974819F06BFAABE7904819F06D
:1054400007FA0A2201468F48FBF7FEF98E48FEF75D
:105450004BFE002E00F05E8209218A48FEF739FBE0
:105460008A4819F0F5F90A2201468648FBF7ECF95B
:105470008548FEF739FE002D00F09A820921814807
:10548000FEF727FB824819F0E3F90A2201467D481E
:10549000FBF7DAF97C48FEF727FE002C3FF44CAE10
:1054A00009217848FEF715FB7A4819F0D1F90A224C
:1054B00001467448FBF7C8F971E7714819F040F9E3
:1054C000754A764B002814BF10461846FEF70CFEAE
:1054D000002E00F01F8209216A48FEF7FAFA6B4895
:1054E00019F02EF96C4A6D4B002814BF104618466F
:1054F000FEF7FAFD002D00F05B8209216148FEF7FE
:10550000E8FA634819F01CF9634A644B002814BF99
:1055100010461846FEF7E8FD002C3FF40DAE0921B9
:105520005848FEF7D6FA5B4819F00AF95A4A5B4B1D
:10553000002814BF1046184632E7514819F0A4FD60
:105540000A2201464F48FBF77FF9002E00F0E28166
:1055500009214C48FEF7BDFA4C4819F095FD0A2286
:1055600001464848FBF770F9002D00F0218209211F
:105570004448FEF7AEFA464819F086FD0A22014675
:105580004048FBF761F9002C3FF4D6AD09213D48B6
:10559000FEF79FFA3F4819F077FD5DE6384819F0AD
:1055A000A2FD3F4B014698423DD00A223548FBF709
:1055B0007FF9002E00F0AE8109213248FEF789FA0A
:1055C000324819F090FD364B0146984200F09A811E
:1055D0000A222C48FBF76CF9002D00F0E981092123
:1055E0002848FEF776FA2A4819F07DFD2C4B014633
:1055F000984200F0C9810A222248FBF759F9002C91
:105600003FF49AAD09211F48FEF763FA214819F0CB
:105610006AFD234B0146984200F004820A22194891
:10562000FBF746F988E51F48FEF75EFDC1E7144821
:1056300019F0A2F8FEF7DCFD002E00F06B810921C5
:105640001048FEF746FA114819F096F8FEF7D0FD1B
:10565000002D00F0AD8109210A48FEF73AFA0C4806
:1056600019F08AF8FEF7C4FD002C3FF465AD09215E
:105670000448FEF72EFA074819F07EF888E500BFC7
:1056800078310020941000203B330308C031002003
:1056900008320020303100202E3303083433030851
:1056A000FFFF0F003F330308B94B93F84600FEF7A6
:1056B0009FFD002E00F02E810921B648FEF709FA61
:1056C000B54B93F84600FEF793FD002D00F0708176
:1056D0000921B048FEF7FDF9B04B93F84600FEF7FC
:1056E00087FD002C3FF428AD0921AA48FEF7F1F907
:1056F000AB4B93F846004BE5A54819F031F80A2268
:105700000146A448FBF7CAF8002E00F003810921E6
:10571000A048FEF7DEF9A04819F022F80A22014657
:105720009C48FBF7BBF8002D00F042810921994805
:10573000FEF7CFF9994819F013F80A220146954867
:10574000FBF7ACF8002C3FF4F7AC09219148FEF7C9
:10575000C0F9934819F004F801460A228D48FBF776
:105760009DF8E9E48A4819F09DFC0A22014689481F
:10577000FBF794F8002E00F0CD8009218548FEF754
:10578000A8F9854819F08EFC0A2201468148FBF7EA
:1057900085F8002D00F00C8109217E48FEF799F96B
:1057A0007E4819F07FFC0A2201467A48FBF776F81A
:1057B000002C3FF4C1AC09217648FEF78AF97848FD
:1057C00019F070FCC8E7724819F012FC0A22014671
:1057D0007048FBF739F8002E00F09C8009216D48D5
:1057E000FEF777F96C4819F003FC0A220146694874
:1057F000FBF72AF8002D00F0DB8009216548FEF751
:1058000068F9664819F0F4FB0A2201466148FBF783
:105810001BF8002C3FF490AC09215E48FEF759F9C3
:105820005F4819F0E5FB17E5594819F0E8FB0A2233
:1058300001465848FBF732F8002E6BD00921554835
:10584000FEF747F9544819F0DAFB0A22014651489D
:10585000FBF724F8002D00F0AB8009214D48FEF73E
:1058600038F94E4819F0CBFB0A2201464948FBF7AC
:1058700015F8002C3FF460AC09214648FEF729F9E1
:10588000474819F0BCFB67E739464148FFF798FBEA
:10589000002E3FD009213F48FEF71BF9162F35D8BF
:1058A00001A353F827F000BF155100080D59000857
:1058B0005D510008B35100081752000893520008C8
:1058C00047530008ED5300080D59000861540008C3
:1058D0000D590008DF5400080D59000859550008FB
:1058E000C15500080D5900080D5900084756000819
:1058F000C15600081757000883570008E5570008ED
:10590000455800082748FEF7EFFB65E63946224870
:10591000FFF756FB002D4BD009211E48FEF7D9F8A2
:10592000162F41D801A353F827F000BF27510008D4
:10593000A959000875510008CF51000835520008D8
:10594000C75200086B53000811540008A9590008F9
:1059500085540008A959000803550008A9590008F2
:1059600077550008E7550008A9590008A95900080B
:105970005F560008D956000835570008A15700089F
:1059800003580008635800080648FEF7ADFB36E6EA
:105990007831002094100020C0310020083200200F
:1059A000303100203F33030839462248FFF708FB17
:1059B000002C3FF4C1AB09211F48FEF78AF8162FCF
:1059C00032D801A353F827F035510008295A0008AE
:1059D0008B510008E951000853520008FB5200089F
:1059E0008F53000835540008295A0008A9540008AC
:1059F000295A000827550008295A0008955500081B
:105A00000D560008295A0008295A00087756000840
:105A1000F156000853570008BF57000821580008E6
:105A2000815800080548BBE439460548FFF7C8FA25
:105A3000FFF782BB08320020941000203F33030898
:105A4000303100202DE9F041044617461E469DF8EE
:105A50001850002900F0278209219848FEF739F8EC
:105A60000C2C00F21C82DFE814F00D002E00640004
:105A70009600C700F800330164011A021A021A02E4
:105A80001A029501FFF7F2FA002F00F03582092182
:105A90008A48FEF71EF8FFF7F1FA002E00F0548254
:105AA00009218648FEF715F8FFF7F0FA2DB1092114
:105AB0008248FEF70EF8FFF7F1FA0A217F48FEF759
:105AC00008F8BDE8F0817E4818F0D4FE18B92A2104
:105AD0007A48FDF7FEFF002F00F00E82092177487B
